{
  "contractName": "Airdrop",
  "abi": [
    {
      "inputs": [
        {
          "internalType": "address",
          "name": "_admin",
          "type": "address"
        }
      ],
      "stateMutability": "nonpayable",
      "type": "constructor"
    },
    {
      "anonymous": false,
      "inputs": [
        {
          "indexed": false,
          "internalType": "address",
          "name": "recipient",
          "type": "address"
        },
        {
          "indexed": false,
          "internalType": "uint256",
          "name": "amount",
          "type": "uint256"
        },
        {
          "indexed": false,
          "internalType": "uint256",
          "name": "date",
          "type": "uint256"
        }
      ],
      "name": "AirdropProcessed",
      "type": "event"
    },
    {
      "inputs": [],
      "name": "admin",
      "outputs": [
        {
          "internalType": "address",
          "name": "",
          "type": "address"
        }
      ],
      "stateMutability": "view",
      "type": "function",
      "constant": true
    },
    {
      "inputs": [],
      "name": "currentAirdropAmount",
      "outputs": [
        {
          "internalType": "uint256",
          "name": "",
          "type": "uint256"
        }
      ],
      "stateMutability": "view",
      "type": "function",
      "constant": true
    },
    {
      "inputs": [],
      "name": "maxAirdropAmount",
      "outputs": [
        {
          "internalType": "uint256",
          "name": "",
          "type": "uint256"
        }
      ],
      "stateMutability": "view",
      "type": "function",
      "constant": true
    },
    {
      "inputs": [
        {
          "internalType": "address",
          "name": "",
          "type": "address"
        }
      ],
      "name": "processedAirdrops",
      "outputs": [
        {
          "internalType": "bool",
          "name": "",
          "type": "bool"
        }
      ],
      "stateMutability": "view",
      "type": "function",
      "constant": true
    },
    {
      "inputs": [],
      "name": "token",
      "outputs": [
        {
          "internalType": "contract IERC20",
          "name": "",
          "type": "address"
        }
      ],
      "stateMutability": "view",
      "type": "function",
      "constant": true
    },
    {
      "inputs": [
        {
          "internalType": "address",
          "name": "_token",
          "type": "address"
        },
        {
          "internalType": "uint256",
          "name": "_maxAmount",
          "type": "uint256"
        }
      ],
      "name": "initialize",
      "outputs": [],
      "stateMutability": "nonpayable",
      "type": "function"
    },
    {
      "inputs": [
        {
          "internalType": "address",
          "name": "newAdmin",
          "type": "address"
        }
      ],
      "name": "updateAdmin",
      "outputs": [],
      "stateMutability": "nonpayable",
      "type": "function"
    },
    {
      "inputs": [
        {
          "internalType": "address",
          "name": "recipient",
          "type": "address"
        },
        {
          "internalType": "uint256",
          "name": "amount",
          "type": "uint256"
        },
        {
          "internalType": "bytes",
          "name": "signature",
          "type": "bytes"
        }
      ],
      "name": "claimTokens",
      "outputs": [],
      "stateMutability": "nonpayable",
      "type": "function"
    }
  ],
  "bytecode": "0x608060405234801561001057600080fd5b506040516108a23803806108a283398101604081905261002f91610054565b60008054600160a060020a031916600160a060020a0392909216919091179055610084565b60006020828403121561006657600080fd5b8151600160a060020a038116811461007d57600080fd5b9392505050565b61080f806100936000396000f3fe608060405234801561001057600080fd5b50600436106100a5576000357c010000000000000000000000000000000000000000000000000000000090048063cd6dc68711610078578063cd6dc68714610117578063e2f273bd1461012a578063f851a4401461013d578063fc0c546a1461016857600080fd5b806323efeb12146100aa57806332ffa783146100c657806349e80422146100f95780637424bab11461010e575b600080fd5b6100b360045481565b6040519081526020015b60405180910390f35b6100e96100d43660046106a5565b60016020526000908152604090205460ff1681565b60405190151581526020016100bd565b61010c6101073660046106f1565b61017b565b005b6100b360035481565b61010c6101253660046106c7565b6104bf565b61010c6101383660046106a5565b61054f565b60005461015090600160a060020a031681565b604051600160a060020a0390911681526020016100bd565b60025461015090600160a060020a031681565b6040516c01000000000000000000000000600160a060020a0386160260208201526034810184905260009061021690605401604051602081830303815290604052805190602001206040517f19457468657265756d205369676e6564204d6573736167653a0a3332000000006020820152603c8101829052600090605c01604051602081830303815290604052805190602001209050919050565b600054604080516020601f8701819004810282018101909252858152929350600160a060020a03909116916102689184919087908790819084018382808284376000920191909152506105db92505050565b600160a060020a0316146102c65760405160e560020a62461bcd02815260206004820152600f60248201527f77726f6e67207369676e6174757265000000000000000000000000000000000060448201526064015b60405180910390fd5b600160a060020a03851660009081526001602052604090205460ff16156103325760405160e560020a62461bcd02815260206004820152601960248201527f61697264726f7020616c72656164792070726f6365737365640000000000000060448201526064016102bd565b60045484600354610343919061079a565b11156103945760405160e560020a62461bcd02815260206004820152601d60248201527f61697264726f707065642031303025206f662074686520746f6b656e7300000060448201526064016102bd565b600160a060020a03851660009081526001602081905260408220805460ff19169091179055600380548692906103cb90849061079a565b90915550506002546040517fa9059cbb000000000000000000000000000000000000000000000000000000008152600160a060020a038781166004830152602482018790529091169063a9059cbb90604401602060405180830381600087803b15801561043757600080fd5b505af115801561044b573d6000803e3d6000fd5b505050506040513d601f19601f8201168201806040525081019061046f9190610778565b5060408051600160a060020a038716815260208101869052428183015290517fc0312d3bf25e86c787fa77f4d038213e428dc722e16d38ca9719e987d20f7c7c9181900360600190a15050505050565b600054600160a060020a0316331461051c5760405160e560020a62461bcd02815260206004820152600a60248201527f6f6e6c792061646d696e0000000000000000000000000000000000000000000060448201526064016102bd565b6002805473ffffffffffffffffffffffffffffffffffffffff1916600160a060020a039390931692909217909155600455565b600054600160a060020a031633146105ac5760405160e560020a62461bcd02815260206004820152600a60248201527f6f6e6c792061646d696e0000000000000000000000000000000000000000000060448201526064016102bd565b6000805473ffffffffffffffffffffffffffffffffffffffff1916600160a060020a0392909216919091179055565b6000806000806105ea8561065a565b6040805160008152602081018083528b905260ff8516918101919091526060810183905260808101829052929550909350915060019060a0016020604051602081039080840390855afa158015610645573d6000803e3d6000fd5b5050604051601f190151979650505050505050565b6000806000835160411461066d57600080fd5b5050506020810151604082015160609092015160001a92909190565b8035600160a060020a03811681146106a057600080fd5b919050565b6000602082840312156106b757600080fd5b6106c082610689565b9392505050565b600080604083850312156106da57600080fd5b6106e383610689565b946020939093013593505050565b6000806000806060858703121561070757600080fd5b61071085610689565b935060208501359250604085013567ffffffffffffffff8082111561073457600080fd5b818701915087601f83011261074857600080fd5b81358181111561075757600080fd5b88602082850101111561076957600080fd5b95989497505060200194505050565b60006020828403121561078a57600080fd5b815180151581146106c057600080fd5b600082198211156107d4577f4e487b7100000000000000000000000000000000000000000000000000000000600052601160045260246000fd5b50019056fea264697066735822122049ce37481ecfd74c810ae4be5abdefa77b9f8ce31b310a7f4cb94b81d0042f4f64736f6c63430008050033",
  "immutableReferences": {},
  "source": "// SPDX-License-Identifier: MIT\npragma solidity >=0.8.4 <0.9.0;\n\nimport \"@openzeppelin/contracts/token/ERC20/IERC20.sol\";\ncontract Airdrop {\n    address public admin;\n    mapping(address => bool) public processedAirdrops;\n    IERC20 public token;\n    uint256 public currentAirdropAmount;\n    uint256 public maxAirdropAmount;\n\n    event AirdropProcessed(address recipient, uint256 amount, uint256 date);\n\n    constructor(address _admin){\n        admin = _admin;\n    }\n\n    modifier onlyAdmin() {\n        require(msg.sender == admin, \"only admin\");\n        _;\n    }\n    function initialize(address _token, uint256 _maxAmount) external onlyAdmin {\n        token = IERC20(_token);\n        maxAirdropAmount = _maxAmount;\n    }\n\n    function updateAdmin(address newAdmin) external onlyAdmin {       \n        admin = newAdmin;\n    }\n\n    function claimTokens(\n        address recipient,\n        uint256 amount,\n        bytes calldata signature\n    ) external {\n        bytes32 message =\n            prefixed(keccak256(abi.encodePacked(recipient, amount)));\n        require(recoverSigner(message, signature) == admin, \"wrong signature\");\n        require(\n            processedAirdrops[recipient] == false,\n            \"airdrop already processed\"\n        );\n        require(\n            currentAirdropAmount + amount <= maxAirdropAmount,\n            \"airdropped 100% of the tokens\"\n        );\n        processedAirdrops[recipient] = true;\n        currentAirdropAmount += amount;\n        token.transfer(recipient, amount);\n        emit AirdropProcessed(recipient, amount, block.timestamp);\n    }\n\n    function prefixed(bytes32 hash) internal pure returns (bytes32) {\n        return\n            keccak256(\n                abi.encodePacked(\"\\x19Ethereum Signed Message:\\n32\", hash)\n            );\n    }\n\n    function recoverSigner(bytes32 message, bytes memory sig)\n        internal\n        pure\n        returns (address)\n    {\n        uint8 v;\n        bytes32 r;\n        bytes32 s;\n\n        (v, r, s) = splitSignature(sig);\n\n        return ecrecover(message, v, r, s);\n    }\n\n    function splitSignature(bytes memory sig)\n        internal\n        pure\n        returns (\n            uint8,\n            bytes32,\n            bytes32\n        )\n    {\n        require(sig.length == 65);\n\n        bytes32 r;\n        bytes32 s;\n        uint8 v;\n\n        assembly {\n            // first 32 bytes, after the length prefix\n            r := mload(add(sig, 32))\n            // second 32 bytes\n            s := mload(add(sig, 64))\n            // final byte (first byte of the next 32 bytes)\n            v := byte(0, mload(add(sig, 96)))\n        }\n\n        return (v, r, s);\n    }\n}\n",
  "sourcePath": "C:/Users/skyne/Dev/work/skynet/HungryPandaHome/hungrypanda-token/contracts/Airdrop.sol",
  "compiler": {
    "name": "solc",
    "version": "0.8.5+commit.a4f2e591.Emscripten.clang"
  },
  "schemaVersion": "3.4.1",
  "updatedAt": "2021-06-12T08:38:11.723Z",
  "networkType": "ethereum",
  "devdoc": {
    "kind": "dev",
    "methods": {},
    "version": 1
  },
  "userdoc": {
    "kind": "user",
    "methods": {},
    "version": 1
  }
}