{
  "contractName": "Airdrop",
  "abi": [
    {
      "inputs": [
        {
          "internalType": "address",
          "name": "_admin",
          "type": "address"
        },
        {
          "internalType": "address",
          "name": "_token",
          "type": "address"
        },
        {
          "internalType": "uint256",
          "name": "_maxAirdropAmount",
          "type": "uint256"
        }
      ],
      "stateMutability": "nonpayable",
      "type": "constructor"
    },
    {
      "anonymous": false,
      "inputs": [
        {
          "indexed": false,
          "internalType": "address",
          "name": "recipient",
          "type": "address"
        },
        {
          "indexed": false,
          "internalType": "uint256",
          "name": "amount",
          "type": "uint256"
        },
        {
          "indexed": false,
          "internalType": "uint256",
          "name": "date",
          "type": "uint256"
        }
      ],
      "name": "AirdropProcessed",
      "type": "event"
    },
    {
      "inputs": [],
      "name": "admin",
      "outputs": [
        {
          "internalType": "address",
          "name": "",
          "type": "address"
        }
      ],
      "stateMutability": "view",
      "type": "function"
    },
    {
      "inputs": [],
      "name": "currentAirdropAmount",
      "outputs": [
        {
          "internalType": "uint256",
          "name": "",
          "type": "uint256"
        }
      ],
      "stateMutability": "view",
      "type": "function"
    },
    {
      "inputs": [],
      "name": "maxAirdropAmount",
      "outputs": [
        {
          "internalType": "uint256",
          "name": "",
          "type": "uint256"
        }
      ],
      "stateMutability": "view",
      "type": "function"
    },
    {
      "inputs": [
        {
          "internalType": "address",
          "name": "",
          "type": "address"
        }
      ],
      "name": "processedAirdrops",
      "outputs": [
        {
          "internalType": "bool",
          "name": "",
          "type": "bool"
        }
      ],
      "stateMutability": "view",
      "type": "function"
    },
    {
      "inputs": [],
      "name": "token",
      "outputs": [
        {
          "internalType": "contract IERC20",
          "name": "",
          "type": "address"
        }
      ],
      "stateMutability": "view",
      "type": "function"
    },
    {
      "inputs": [
        {
          "internalType": "address",
          "name": "newAdmin",
          "type": "address"
        }
      ],
      "name": "updateAdmin",
      "outputs": [],
      "stateMutability": "nonpayable",
      "type": "function"
    },
    {
      "inputs": [
        {
          "internalType": "uint256",
          "name": "amount",
          "type": "uint256"
        },
        {
          "internalType": "bytes",
          "name": "signature",
          "type": "bytes"
        }
      ],
      "name": "claimTokens",
      "outputs": [],
      "stateMutability": "nonpayable",
      "type": "function"
    }
  ],
  "bytecode": "0x60c060405234801561001057600080fd5b506040516108ed3803806108ed83398101604081905261002f91610083565b60008054600160a060020a031916600160a060020a0394851617905591166c010000000000000000000000000260805260a0526100bf565b8051600160a060020a038116811461007e57600080fd5b919050565b60008060006060848603121561009857600080fd5b6100a184610067565b92506100af60208501610067565b9150604084015190509250925092565b6080516c01000000000000000000000000900460a0516107ec6101016000396000818160b901526103e501526000818161016d01526104de01526107ec6000f3fe608060405234801561001057600080fd5b506004361061009a576000357c0100000000000000000000000000000000000000000000000000000000900480637424bab1116100785780637424bab114610121578063e2f273bd1461012a578063f851a4401461013d578063fc0c546a1461016857600080fd5b806314d8bbf11461009f57806323efeb12146100b457806332ffa783146100ee575b600080fd5b6100b26100ad3660046106ce565b61018f565b005b6100db7f000000000000000000000000000000000000000000000000000000000000000081565b6040519081526020015b60405180910390f35b6101116100fc36600461067c565b60016020526000908152604090205460ff1681565b60405190151581526020016100e5565b6100db60025481565b6100b261013836600461067c565b6101a0565b60005461015090600160a060020a031681565b604051600160a060020a0390911681526020016100e5565b6101507f000000000000000000000000000000000000000000000000000000000000000081565b61019b33848484610231565b505050565b600054600160a060020a031633146102025760405160e560020a62461bcd02815260206004820152600a60248201527f6f6e6c792061646d696e0000000000000000000000000000000000000000000060448201526064015b60405180910390fd5b6000805473ffffffffffffffffffffffffffffffffffffffff1916600160a060020a0392909216919091179055565b6040516c01000000000000000000000000600160a060020a038616026020820152603481018490526000906102cc90605401604051602081830303815290604052805190602001206040517f19457468657265756d205369676e6564204d6573736167653a0a3332000000006020820152603c8101829052600090605c01604051602081830303815290604052805190602001209050919050565b600054604080516020601f8701819004810282018101909252858152929350600160a060020a039091169161031e9184919087908790819084018382808284376000920191909152506105aa92505050565b600160a060020a0316146103775760405160e560020a62461bcd02815260206004820152600f60248201527f77726f6e67207369676e6174757265000000000000000000000000000000000060448201526064016101f9565b600160a060020a03851660009081526001602052604090205460ff16156103e35760405160e560020a62461bcd02815260206004820152601960248201527f61697264726f7020616c72656164792070726f6365737365640000000000000060448201526064016101f9565b7f000000000000000000000000000000000000000000000000000000000000000084600254610412919061074a565b11156104635760405160e560020a62461bcd02815260206004820152601d60248201527f61697264726f707065642031303025206f662074686520746f6b656e7300000060448201526064016101f9565b600160a060020a03851660009081526001602081905260408220805460ff191690911790556002805486929061049a90849061074a565b90915550506040517fa9059cbb000000000000000000000000000000000000000000000000000000008152600160a060020a038681166004830152602482018690527f0000000000000000000000000000000000000000000000000000000000000000169063a9059cbb90604401602060405180830381600087803b15801561052257600080fd5b505af1158015610536573d6000803e3d6000fd5b505050506040513d601f19601f8201168201806040525081019061055a91906106ac565b5060408051600160a060020a038716815260208101869052428183015290517fc0312d3bf25e86c787fa77f4d038213e428dc722e16d38ca9719e987d20f7c7c9181900360600190a15050505050565b6000806000806105b985610629565b6040805160008152602081018083528b905260ff8516918101919091526060810183905260808101829052929550909350915060019060a0016020604051602081039080840390855afa158015610614573d6000803e3d6000fd5b5050604051601f190151979650505050505050565b6000806000835160411461063c57600080fd5b60208401516040850151606086015160001a80158061065e57508060ff166001145b156106715761066e601b82610762565b90505b969195509350915050565b60006020828403121561068e57600080fd5b8135600160a060020a03811681146106a557600080fd5b9392505050565b6000602082840312156106be57600080fd5b815180151581146106a557600080fd5b6000806000604084860312156106e357600080fd5b83359250602084013567ffffffffffffffff8082111561070257600080fd5b818601915086601f83011261071657600080fd5b81358181111561072557600080fd5b87602082850101111561073757600080fd5b6020830194508093505050509250925092565b6000821982111561075d5761075d610787565b500190565b600060ff821660ff84168060ff0382111561077f5761077f610787565b019392505050565b7f4e487b7100000000000000000000000000000000000000000000000000000000600052601160045260246000fdfea26469706673582212208bacbdb1c1d78010aaebbe2a572c09e77065f8993b9a986809382175e59aee4a64736f6c63430008050033",
  "immutableReferences": {
    "11": [
      {
        "length": 32,
        "start": 365
      },
      {
        "length": 32,
        "start": 1246
      }
    ],
    "15": [
      {
        "length": 32,
        "start": 185
      },
      {
        "length": 32,
        "start": 997
      }
    ]
  },
  "source": "// SPDX-License-Identifier: MIT\npragma solidity >=0.8.4 <0.9.0;\n\nimport \"@openzeppelin/contracts/token/ERC20/IERC20.sol\";\n\ncontract Airdrop {\n    address public admin;\n    mapping(address => bool) public processedAirdrops;\n    IERC20 public immutable token;\n    uint256 public currentAirdropAmount;\n    uint256 public immutable maxAirdropAmount;\n\n    event AirdropProcessed(address recipient, uint256 amount, uint256 date);\n\n    constructor(\n        address _admin,\n        address _token,\n        uint256 _maxAirdropAmount\n    ) {\n        admin = _admin;\n        token = IERC20(_token);\n        maxAirdropAmount = _maxAirdropAmount;\n    }\n\n    modifier onlyAdmin() {\n        require(msg.sender == admin, \"only admin\");\n        _;\n    }\n\n    function updateAdmin(address newAdmin) external virtual onlyAdmin {\n        admin = newAdmin;\n    }\n\n    function _claimTokens(\n        address recipient,\n        uint256 amount,\n        bytes calldata signature\n    ) internal {\n        bytes32 message =\n            prefixed(keccak256(abi.encodePacked(recipient, amount)));\n        // check time is in range OPEN_TIME + REG_TIME and 2 days after REG finshied\n        require(recoverSigner(message, signature) == admin, \"wrong signature\");\n        require(\n            processedAirdrops[recipient] == false,\n            \"airdrop already processed\"\n        );\n        require(\n            currentAirdropAmount + amount <= maxAirdropAmount,\n            \"airdropped 100% of the tokens\"\n        );\n        processedAirdrops[recipient] = true;\n        currentAirdropAmount += amount;\n        token.transfer(recipient, amount);\n        emit AirdropProcessed(recipient, amount, block.timestamp);\n    }\n\n    function claimTokens(uint256 amount, bytes calldata signature)\n        external\n        virtual\n    {\n        _claimTokens(msg.sender, amount, signature);\n    }\n\n    function prefixed(bytes32 hash) internal pure returns (bytes32) {\n        return\n            keccak256(\n                abi.encodePacked(\"\\x19Ethereum Signed Message:\\n32\", hash)\n            );\n    }\n\n    function recoverSigner(bytes32 message, bytes memory sig)\n        internal\n        pure\n        returns (address)\n    {\n        uint8 v;\n        bytes32 r;\n        bytes32 s;\n\n        (v, r, s) = splitSignature(sig);\n\n        return ecrecover(message, v, r, s);\n    }\n\n    function splitSignature(bytes memory sig)\n        internal\n        pure\n        returns (\n            uint8,\n            bytes32,\n            bytes32\n        )\n    {\n        require(sig.length == 65);\n\n        bytes32 r;\n        bytes32 s;\n        uint8 v;\n\n        assembly {\n            // first 32 bytes, after the length prefix\n            r := mload(add(sig, 32))\n            // second 32 bytes\n            s := mload(add(sig, 64))\n            // final byte (first byte of the next 32 bytes)\n            v := byte(0, mload(add(sig, 96)))\n        }\n        // Golang compatibility\n        if (v == 0 || v == 1) {\n            v += 27;\n        }\n        return (v, r, s);\n    }\n}\n",
  "sourcePath": "/Users/skynet/Dev/work/HungryPanda/coin/contracts/Airdrop.sol",
  "compiler": {
    "name": "solc",
    "version": "0.8.5+commit.a4f2e591.Emscripten.clang"
  },
  "schemaVersion": "3.4.1",
  "updatedAt": "2021-06-16T18:23:58.300Z",
  "devdoc": {
    "kind": "dev",
    "methods": {},
    "version": 1
  },
  "userdoc": {
    "kind": "user",
    "methods": {},
    "version": 1
  }
}