{
  "contractName": "Migrations",
  "abi": [
    {
      "inputs": [],
      "name": "last_completed_migration",
      "outputs": [
        {
          "internalType": "uint256",
          "name": "",
          "type": "uint256"
        }
      ],
      "stateMutability": "view",
      "type": "function",
      "constant": true
    },
    {
      "inputs": [],
      "name": "owner",
      "outputs": [
        {
          "internalType": "address",
          "name": "",
          "type": "address"
        }
      ],
      "stateMutability": "view",
      "type": "function",
      "constant": true
    },
    {
      "inputs": [
        {
          "internalType": "uint256",
          "name": "completed",
          "type": "uint256"
        }
      ],
      "name": "setCompleted",
      "outputs": [],
      "stateMutability": "nonpayable",
      "type": "function"
    }
  ],
  "bytecode": "0x608060405260008054600160a060020a0319163317905534801561002257600080fd5b506101d6806100326000396000f3fe608060405234801561001057600080fd5b506004361061005d577c01000000000000000000000000000000000000000000000000000000006000350463445df0ac81146100625780638da5cb5b1461007e578063fdacd576146100c3575b600080fd5b61006b60015481565b6040519081526020015b60405180910390f35b60005461009e9073ffffffffffffffffffffffffffffffffffffffff1681565b60405173ffffffffffffffffffffffffffffffffffffffff9091168152602001610075565b6100d66100d1366004610188565b6100d8565b005b60005473ffffffffffffffffffffffffffffffffffffffff163314610183576040517f08c379a000000000000000000000000000000000000000000000000000000000815260206004820152603360248201527f546869732066756e6374696f6e206973207265737472696374656420746f207460448201527f686520636f6e74726163742773206f776e657200000000000000000000000000606482015260840160405180910390fd5b600155565b600060208284031215610199578081fd5b503591905056fea2646970667358221220b33f09a59d32ea83f63c3bb742af45cf6fd77e8b9ed21ecda6aeaedf6ba0ad9f64736f6c63430008040033",
  "immutableReferences": {},
  "source": "// SPDX-License-Identifier: MIT\npragma solidity >=0.8.4 <0.9.0;\n\ncontract Migrations {\n    address public owner = msg.sender;\n    uint256 public last_completed_migration;\n\n    modifier restricted() {\n        require(\n            msg.sender == owner,\n            \"This function is restricted to the contract's owner\"\n        );\n        _;\n    }\n\n    function setCompleted(uint256 completed) public restricted {\n        last_completed_migration = completed;\n    }\n}\n",
  "sourcePath": "C:/Users/skyne/Dev/work/skynet/HungryPandaHome/hungrypanda-token/contracts/Migrations.sol",
  "compiler": {
    "name": "solc",
    "version": "0.8.4+commit.c7e474f2.Emscripten.clang"
  },
  "schemaVersion": "3.4.1",
  "updatedAt": "2021-06-12T08:38:11.728Z",
  "networkType": "ethereum",
  "devdoc": {
    "kind": "dev",
    "methods": {},
    "version": 1
  },
  "userdoc": {
    "kind": "user",
    "methods": {},
    "version": 1
  }
}