{
  "contractName": "PandaToken",
  "abi": [
    {
      "inputs": [
        {
          "internalType": "address",
          "name": "_router",
          "type": "address"
        },
        {
          "internalType": "address",
          "name": "_airdrop",
          "type": "address"
        },
        {
          "internalType": "address",
          "name": "_whiteList",
          "type": "address"
        }
      ],
      "stateMutability": "nonpayable",
      "type": "constructor"
    },
    {
      "anonymous": false,
      "inputs": [
        {
          "indexed": true,
          "internalType": "address",
          "name": "owner",
          "type": "address"
        },
        {
          "indexed": true,
          "internalType": "address",
          "name": "spender",
          "type": "address"
        },
        {
          "indexed": false,
          "internalType": "uint256",
          "name": "value",
          "type": "uint256"
        }
      ],
      "name": "Approval",
      "type": "event"
    },
    {
      "anonymous": false,
      "inputs": [
        {
          "indexed": false,
          "internalType": "uint256",
          "name": "minTokensBeforeSwap",
          "type": "uint256"
        }
      ],
      "name": "MinTokensBeforeSwapUpdated",
      "type": "event"
    },
    {
      "anonymous": false,
      "inputs": [
        {
          "indexed": true,
          "internalType": "address",
          "name": "previousOwner",
          "type": "address"
        },
        {
          "indexed": true,
          "internalType": "address",
          "name": "newOwner",
          "type": "address"
        }
      ],
      "name": "OwnershipTransferred",
      "type": "event"
    },
    {
      "anonymous": false,
      "inputs": [
        {
          "indexed": false,
          "internalType": "address",
          "name": "account",
          "type": "address"
        }
      ],
      "name": "Paused",
      "type": "event"
    },
    {
      "anonymous": false,
      "inputs": [
        {
          "indexed": true,
          "internalType": "bytes32",
          "name": "role",
          "type": "bytes32"
        },
        {
          "indexed": true,
          "internalType": "bytes32",
          "name": "previousAdminRole",
          "type": "bytes32"
        },
        {
          "indexed": true,
          "internalType": "bytes32",
          "name": "newAdminRole",
          "type": "bytes32"
        }
      ],
      "name": "RoleAdminChanged",
      "type": "event"
    },
    {
      "anonymous": false,
      "inputs": [
        {
          "indexed": true,
          "internalType": "bytes32",
          "name": "role",
          "type": "bytes32"
        },
        {
          "indexed": true,
          "internalType": "address",
          "name": "account",
          "type": "address"
        },
        {
          "indexed": true,
          "internalType": "address",
          "name": "sender",
          "type": "address"
        }
      ],
      "name": "RoleGranted",
      "type": "event"
    },
    {
      "anonymous": false,
      "inputs": [
        {
          "indexed": true,
          "internalType": "bytes32",
          "name": "role",
          "type": "bytes32"
        },
        {
          "indexed": true,
          "internalType": "address",
          "name": "account",
          "type": "address"
        },
        {
          "indexed": true,
          "internalType": "address",
          "name": "sender",
          "type": "address"
        }
      ],
      "name": "RoleRevoked",
      "type": "event"
    },
    {
      "anonymous": false,
      "inputs": [
        {
          "indexed": false,
          "internalType": "uint256",
          "name": "tokensSwapped",
          "type": "uint256"
        },
        {
          "indexed": false,
          "internalType": "uint256",
          "name": "ethReceived",
          "type": "uint256"
        },
        {
          "indexed": false,
          "internalType": "uint256",
          "name": "tokensIntoLiqudity",
          "type": "uint256"
        }
      ],
      "name": "SwapAndLiquify",
      "type": "event"
    },
    {
      "anonymous": false,
      "inputs": [
        {
          "indexed": false,
          "internalType": "bool",
          "name": "enabled",
          "type": "bool"
        }
      ],
      "name": "SwapAndLiquifyEnabledUpdated",
      "type": "event"
    },
    {
      "anonymous": false,
      "inputs": [
        {
          "indexed": true,
          "internalType": "address",
          "name": "from",
          "type": "address"
        },
        {
          "indexed": true,
          "internalType": "address",
          "name": "to",
          "type": "address"
        },
        {
          "indexed": false,
          "internalType": "uint256",
          "name": "value",
          "type": "uint256"
        }
      ],
      "name": "Transfer",
      "type": "event"
    },
    {
      "anonymous": false,
      "inputs": [
        {
          "indexed": false,
          "internalType": "address",
          "name": "account",
          "type": "address"
        }
      ],
      "name": "Unpaused",
      "type": "event"
    },
    {
      "inputs": [],
      "name": "DEFAULT_ADMIN_ROLE",
      "outputs": [
        {
          "internalType": "bytes32",
          "name": "",
          "type": "bytes32"
        }
      ],
      "stateMutability": "view",
      "type": "function",
      "constant": true
    },
    {
      "inputs": [],
      "name": "PAUSER_ROLE",
      "outputs": [
        {
          "internalType": "bytes32",
          "name": "",
          "type": "bytes32"
        }
      ],
      "stateMutability": "view",
      "type": "function",
      "constant": true
    },
    {
      "inputs": [],
      "name": "_liquidityFee",
      "outputs": [
        {
          "internalType": "uint256",
          "name": "",
          "type": "uint256"
        }
      ],
      "stateMutability": "view",
      "type": "function",
      "constant": true
    },
    {
      "inputs": [],
      "name": "_maxTxAmount",
      "outputs": [
        {
          "internalType": "uint256",
          "name": "",
          "type": "uint256"
        }
      ],
      "stateMutability": "view",
      "type": "function",
      "constant": true
    },
    {
      "inputs": [],
      "name": "_taxFee",
      "outputs": [
        {
          "internalType": "uint256",
          "name": "",
          "type": "uint256"
        }
      ],
      "stateMutability": "view",
      "type": "function",
      "constant": true
    },
    {
      "inputs": [
        {
          "internalType": "address",
          "name": "_owner",
          "type": "address"
        },
        {
          "internalType": "address",
          "name": "spender",
          "type": "address"
        }
      ],
      "name": "allowance",
      "outputs": [
        {
          "internalType": "uint256",
          "name": "",
          "type": "uint256"
        }
      ],
      "stateMutability": "view",
      "type": "function",
      "constant": true
    },
    {
      "inputs": [
        {
          "internalType": "address",
          "name": "spender",
          "type": "address"
        },
        {
          "internalType": "uint256",
          "name": "amount",
          "type": "uint256"
        }
      ],
      "name": "approve",
      "outputs": [
        {
          "internalType": "bool",
          "name": "",
          "type": "bool"
        }
      ],
      "stateMutability": "nonpayable",
      "type": "function"
    },
    {
      "inputs": [
        {
          "internalType": "address",
          "name": "account",
          "type": "address"
        }
      ],
      "name": "balanceOf",
      "outputs": [
        {
          "internalType": "uint256",
          "name": "",
          "type": "uint256"
        }
      ],
      "stateMutability": "view",
      "type": "function",
      "constant": true
    },
    {
      "inputs": [],
      "name": "decimals",
      "outputs": [
        {
          "internalType": "uint8",
          "name": "",
          "type": "uint8"
        }
      ],
      "stateMutability": "view",
      "type": "function",
      "constant": true
    },
    {
      "inputs": [
        {
          "internalType": "address",
          "name": "spender",
          "type": "address"
        },
        {
          "internalType": "uint256",
          "name": "subtractedValue",
          "type": "uint256"
        }
      ],
      "name": "decreaseAllowance",
      "outputs": [
        {
          "internalType": "bool",
          "name": "",
          "type": "bool"
        }
      ],
      "stateMutability": "nonpayable",
      "type": "function"
    },
    {
      "inputs": [
        {
          "internalType": "uint256",
          "name": "tAmount",
          "type": "uint256"
        }
      ],
      "name": "deliver",
      "outputs": [],
      "stateMutability": "nonpayable",
      "type": "function"
    },
    {
      "inputs": [
        {
          "internalType": "address",
          "name": "account",
          "type": "address"
        }
      ],
      "name": "excludeFromFee",
      "outputs": [],
      "stateMutability": "nonpayable",
      "type": "function"
    },
    {
      "inputs": [
        {
          "internalType": "address",
          "name": "account",
          "type": "address"
        }
      ],
      "name": "excludeFromReward",
      "outputs": [],
      "stateMutability": "nonpayable",
      "type": "function"
    },
    {
      "inputs": [
        {
          "internalType": "bytes32",
          "name": "role",
          "type": "bytes32"
        }
      ],
      "name": "getRoleAdmin",
      "outputs": [
        {
          "internalType": "bytes32",
          "name": "",
          "type": "bytes32"
        }
      ],
      "stateMutability": "view",
      "type": "function",
      "constant": true
    },
    {
      "inputs": [
        {
          "internalType": "bytes32",
          "name": "role",
          "type": "bytes32"
        },
        {
          "internalType": "uint256",
          "name": "index",
          "type": "uint256"
        }
      ],
      "name": "getRoleMember",
      "outputs": [
        {
          "internalType": "address",
          "name": "",
          "type": "address"
        }
      ],
      "stateMutability": "view",
      "type": "function",
      "constant": true
    },
    {
      "inputs": [
        {
          "internalType": "bytes32",
          "name": "role",
          "type": "bytes32"
        }
      ],
      "name": "getRoleMemberCount",
      "outputs": [
        {
          "internalType": "uint256",
          "name": "",
          "type": "uint256"
        }
      ],
      "stateMutability": "view",
      "type": "function",
      "constant": true
    },
    {
      "inputs": [
        {
          "internalType": "bytes32",
          "name": "role",
          "type": "bytes32"
        },
        {
          "internalType": "address",
          "name": "account",
          "type": "address"
        }
      ],
      "name": "grantRole",
      "outputs": [],
      "stateMutability": "nonpayable",
      "type": "function"
    },
    {
      "inputs": [
        {
          "internalType": "bytes32",
          "name": "role",
          "type": "bytes32"
        },
        {
          "internalType": "address",
          "name": "account",
          "type": "address"
        }
      ],
      "name": "hasRole",
      "outputs": [
        {
          "internalType": "bool",
          "name": "",
          "type": "bool"
        }
      ],
      "stateMutability": "view",
      "type": "function",
      "constant": true
    },
    {
      "inputs": [
        {
          "internalType": "address",
          "name": "account",
          "type": "address"
        }
      ],
      "name": "includeInFee",
      "outputs": [],
      "stateMutability": "nonpayable",
      "type": "function"
    },
    {
      "inputs": [
        {
          "internalType": "address",
          "name": "account",
          "type": "address"
        }
      ],
      "name": "includeInReward",
      "outputs": [],
      "stateMutability": "nonpayable",
      "type": "function"
    },
    {
      "inputs": [
        {
          "internalType": "address",
          "name": "spender",
          "type": "address"
        },
        {
          "internalType": "uint256",
          "name": "addedValue",
          "type": "uint256"
        }
      ],
      "name": "increaseAllowance",
      "outputs": [
        {
          "internalType": "bool",
          "name": "",
          "type": "bool"
        }
      ],
      "stateMutability": "nonpayable",
      "type": "function"
    },
    {
      "inputs": [
        {
          "internalType": "address",
          "name": "account",
          "type": "address"
        }
      ],
      "name": "isExcludedFromFee",
      "outputs": [
        {
          "internalType": "bool",
          "name": "",
          "type": "bool"
        }
      ],
      "stateMutability": "view",
      "type": "function",
      "constant": true
    },
    {
      "inputs": [
        {
          "internalType": "address",
          "name": "account",
          "type": "address"
        }
      ],
      "name": "isExcludedFromReward",
      "outputs": [
        {
          "internalType": "bool",
          "name": "",
          "type": "bool"
        }
      ],
      "stateMutability": "view",
      "type": "function",
      "constant": true
    },
    {
      "inputs": [],
      "name": "name",
      "outputs": [
        {
          "internalType": "string",
          "name": "",
          "type": "string"
        }
      ],
      "stateMutability": "view",
      "type": "function",
      "constant": true
    },
    {
      "inputs": [],
      "name": "owner",
      "outputs": [
        {
          "internalType": "address",
          "name": "",
          "type": "address"
        }
      ],
      "stateMutability": "view",
      "type": "function",
      "constant": true
    },
    {
      "inputs": [],
      "name": "pause",
      "outputs": [],
      "stateMutability": "nonpayable",
      "type": "function"
    },
    {
      "inputs": [],
      "name": "paused",
      "outputs": [
        {
          "internalType": "bool",
          "name": "",
          "type": "bool"
        }
      ],
      "stateMutability": "view",
      "type": "function",
      "constant": true
    },
    {
      "inputs": [
        {
          "internalType": "uint256",
          "name": "tAmount",
          "type": "uint256"
        },
        {
          "internalType": "bool",
          "name": "deductTransferFee",
          "type": "bool"
        }
      ],
      "name": "reflectionFromToken",
      "outputs": [
        {
          "internalType": "uint256",
          "name": "",
          "type": "uint256"
        }
      ],
      "stateMutability": "view",
      "type": "function",
      "constant": true
    },
    {
      "inputs": [],
      "name": "renounceOwnership",
      "outputs": [],
      "stateMutability": "nonpayable",
      "type": "function"
    },
    {
      "inputs": [
        {
          "internalType": "bytes32",
          "name": "role",
          "type": "bytes32"
        },
        {
          "internalType": "address",
          "name": "account",
          "type": "address"
        }
      ],
      "name": "renounceRole",
      "outputs": [],
      "stateMutability": "nonpayable",
      "type": "function"
    },
    {
      "inputs": [
        {
          "internalType": "bytes32",
          "name": "role",
          "type": "bytes32"
        },
        {
          "internalType": "address",
          "name": "account",
          "type": "address"
        }
      ],
      "name": "revokeRole",
      "outputs": [],
      "stateMutability": "nonpayable",
      "type": "function"
    },
    {
      "inputs": [
        {
          "internalType": "uint256",
          "name": "liquidityFee",
          "type": "uint256"
        }
      ],
      "name": "setLiquidityFeePercent",
      "outputs": [],
      "stateMutability": "nonpayable",
      "type": "function"
    },
    {
      "inputs": [
        {
          "internalType": "uint256",
          "name": "maxTxPercent",
          "type": "uint256"
        }
      ],
      "name": "setMaxTxPercent",
      "outputs": [],
      "stateMutability": "nonpayable",
      "type": "function"
    },
    {
      "inputs": [
        {
          "internalType": "bool",
          "name": "_enabled",
          "type": "bool"
        }
      ],
      "name": "setSwapAndLiquifyEnabled",
      "outputs": [],
      "stateMutability": "nonpayable",
      "type": "function"
    },
    {
      "inputs": [
        {
          "internalType": "uint256",
          "name": "taxFee",
          "type": "uint256"
        }
      ],
      "name": "setTaxFeePercent",
      "outputs": [],
      "stateMutability": "nonpayable",
      "type": "function"
    },
    {
      "inputs": [
        {
          "internalType": "bytes4",
          "name": "interfaceId",
          "type": "bytes4"
        }
      ],
      "name": "supportsInterface",
      "outputs": [
        {
          "internalType": "bool",
          "name": "",
          "type": "bool"
        }
      ],
      "stateMutability": "view",
      "type": "function",
      "constant": true
    },
    {
      "inputs": [],
      "name": "swapAndLiquifyEnabled",
      "outputs": [
        {
          "internalType": "bool",
          "name": "",
          "type": "bool"
        }
      ],
      "stateMutability": "view",
      "type": "function",
      "constant": true
    },
    {
      "inputs": [],
      "name": "symbol",
      "outputs": [
        {
          "internalType": "string",
          "name": "",
          "type": "string"
        }
      ],
      "stateMutability": "view",
      "type": "function",
      "constant": true
    },
    {
      "inputs": [
        {
          "internalType": "uint256",
          "name": "rAmount",
          "type": "uint256"
        }
      ],
      "name": "tokenFromReflection",
      "outputs": [
        {
          "internalType": "uint256",
          "name": "",
          "type": "uint256"
        }
      ],
      "stateMutability": "view",
      "type": "function",
      "constant": true
    },
    {
      "inputs": [],
      "name": "totalFees",
      "outputs": [
        {
          "internalType": "uint256",
          "name": "",
          "type": "uint256"
        }
      ],
      "stateMutability": "view",
      "type": "function",
      "constant": true
    },
    {
      "inputs": [],
      "name": "totalSupply",
      "outputs": [
        {
          "internalType": "uint256",
          "name": "",
          "type": "uint256"
        }
      ],
      "stateMutability": "view",
      "type": "function",
      "constant": true
    },
    {
      "inputs": [
        {
          "internalType": "address",
          "name": "recipient",
          "type": "address"
        },
        {
          "internalType": "uint256",
          "name": "amount",
          "type": "uint256"
        }
      ],
      "name": "transfer",
      "outputs": [
        {
          "internalType": "bool",
          "name": "",
          "type": "bool"
        }
      ],
      "stateMutability": "nonpayable",
      "type": "function"
    },
    {
      "inputs": [
        {
          "internalType": "address",
          "name": "sender",
          "type": "address"
        },
        {
          "internalType": "address",
          "name": "recipient",
          "type": "address"
        },
        {
          "internalType": "uint256",
          "name": "amount",
          "type": "uint256"
        }
      ],
      "name": "transferFrom",
      "outputs": [
        {
          "internalType": "bool",
          "name": "",
          "type": "bool"
        }
      ],
      "stateMutability": "nonpayable",
      "type": "function"
    },
    {
      "inputs": [
        {
          "internalType": "address",
          "name": "newOwner",
          "type": "address"
        }
      ],
      "name": "transferOwnership",
      "outputs": [],
      "stateMutability": "nonpayable",
      "type": "function"
    },
    {
      "inputs": [],
      "name": "uniswapV2Pair",
      "outputs": [
        {
          "internalType": "address",
          "name": "",
          "type": "address"
        }
      ],
      "stateMutability": "view",
      "type": "function",
      "constant": true
    },
    {
      "inputs": [],
      "name": "uniswapV2Router",
      "outputs": [
        {
          "internalType": "contract IUniswapV2Router02",
          "name": "",
          "type": "address"
        }
      ],
      "stateMutability": "view",
      "type": "function",
      "constant": true
    },
    {
      "inputs": [],
      "name": "unpause",
      "outputs": [],
      "stateMutability": "nonpayable",
      "type": "function"
    },
    {
      "stateMutability": "payable",
      "type": "receive",
      "payable": true
    }
  ],
  "bytecode": "0x60c060405269021e19e0c9bab2400000600b819055620000229060001962000b77565b620000309060001962000ae2565b600c556010805460ff191660091790556011546012556013546014556015805461ff00191661010017905568056bc75e2d6310000060168190556017553480156200007a57600080fd5b50604051620040f8380380620040f88339810160408190526200009d9162000a81565b6040518060400160405280601281526020017f48756e6772792050616e646120546f6b656e00000000000000000000000000008152506040518060400160405280600b81526020017f48554e47525950414e444100000000000000000000000000000000000000000081525069021e19e0c9bab24000006007600a878787600062000136620005fc640100000000026401000000009004565b60008054600160a060020a031916600160a060020a0383169081178255604051929350917f8be0079c531659141344cd1fd0a4f28419497f9722a3daafe3b4186f6b6457e0908290a3506003805460ff19169055620001b26000620001a3640100000000620005fc810204565b64010000000062000600810204565b620001d9600080516020620040d8833981519152620001a3640100000000620005fc810204565b620001fd600080516020620040d88339815191528264010000000062000600810204565b87516200021290600e9060208b0190620009a0565b5086516200022890600f9060208a0190620009a0565b50600b8690556200023c8660001962000b77565b6200024a9060001962000ae2565b600c8190556003805461010060a860020a031916610100600160a060020a03868116919091029190911790915560048054600160a060020a03191691841691909117905560ff868116601181905560128190556013819055601455620002c191908616640100000000620006478102620017321704565b601655600c54620002e49060ff8616640100000000620017326200064782021704565b601755600c546005600062000301640100000000620005fc810204565b600160a060020a0316600160a060020a0316815260200190815260200160002081905550600083905080600160a060020a031663c45a01556040518163ffffffff167c010000000000000000000000000000000000000000000000000000000002815260040160206040518083038186803b1580156200038057600080fd5b505afa15801562000395573d6000803e3d6000fd5b505050506040513d601f19601f82011682018060405250810190620003bb919062000a63565b600160a060020a031663c9c653963083600160a060020a031663ad5c46486040518163ffffffff167c010000000000000000000000000000000000000000000000000000000002815260040160206040518083038186803b1580156200042057600080fd5b505afa15801562000435573d6000803e3d6000fd5b505050506040513d601f19601f820116820180604052508101906200045b919062000a63565b6040517c010000000000000000000000000000000000000000000000000000000063ffffffff8516028152600160a060020a03928316600482015291166024820152604401602060405180830381600087803b158015620004bb57600080fd5b505af1158015620004d0573d6000803e3d6000fd5b505050506040513d601f19601f82011682018060405250810190620004f6919062000a63565b6c01000000000000000000000000600160a060020a03918216810260a05290821602608052600160086000620005346401000000006200065e810204565b600160a060020a0316815260208082019290925260409081016000908120805494151560ff19958616179055308152600890925290208054909116600117905562000587640100000000620005fc810204565b600160a060020a03166000600160a060020a03167fddf252ad1be2c89b69c2b068fc378daa952ba7f163c4a11628f55a4df523b3ef600b54604051620005cf91815260200190565b60405180910390a3620005ea6401000000006200066d810204565b50505050505050505050505062000bbd565b3390565b6200061a82826401000000006200173e6200074a82021704565b6000828152600260205260409020620006429082640100000000620017486200076382021704565b505050565b600062000655828462000acb565b90505b92915050565b600054600160a060020a031690565b620006a3600080516020620040d883398151915262000694640100000000620005fc810204565b64010000000062000783810204565b62000735576040517f08c379a000000000000000000000000000000000000000000000000000000000815260206004820152602b60248201527f48756e67727950616e64613a206d75737420686176652070617573657220726f60448201527f6c6520746f20706175736500000000000000000000000000000000000000000060648201526084015b60405180910390fd5b62000748640100000000620007ae810204565b565b6200075f828264010000000062000888810204565b5050565b60006200065583600160a060020a03841664010000000062000927810204565b6000918252600160209081526040808420600160a060020a0393909316845291905290205460ff1690565b620007c16401000000006200097f810204565b156200082a576040517f08c379a000000000000000000000000000000000000000000000000000000000815260206004820152601060248201527f5061757361626c653a207061757365640000000000000000000000000000000060448201526064016200072c565b6003805460ff191660011790557f62e78cea01bee320cd4e420270b5ea74000d11b0c9f74754ebdbfc544b05a2586200086b640100000000620005fc810204565b604051600160a060020a03909116815260200160405180910390a1565b6200089d828264010000000062000783810204565b6200075f576000828152600160208181526040808420600160a060020a0386168552909152909120805460ff19169091179055620008e3640100000000620005fc810204565b600160a060020a031681600160a060020a0316837f2f8788117e7eff1d82e926ec794901d17c78024a50270940304540a733656f0d60405160405180910390a45050565b60006200093e838364010000000062000988810204565b620009765750815460018181018455600084815260208082209093018490558454848252828601909352604090209190915562000658565b50600062000658565b60035460ff1690565b60009081526001919091016020526040902054151590565b828054620009ae9062000b21565b90600052602060002090601f016020900481019282620009d2576000855562000a1d565b82601f10620009ed57805160ff191683800117855562000a1d565b8280016001018555821562000a1d579182015b8281111562000a1d57825182559160200191906001019062000a00565b5062000a2b92915062000a2f565b5090565b5b8082111562000a2b576000815560010162000a30565b8051600160a060020a038116811462000a5e57600080fd5b919050565b60006020828403121562000a7657600080fd5b620006558262000a46565b60008060006060848603121562000a9757600080fd5b62000aa28462000a46565b925062000ab26020850162000a46565b915062000ac26040850162000a46565b90509250925092565b60008262000add5762000add62000b8e565b500490565b60008282101562000b1c577f4e487b7100000000000000000000000000000000000000000000000000000000600052601160045260246000fd5b500390565b60028104600182168062000b3657607f821691505b6020821081141562000b71577f4e487b7100000000000000000000000000000000000000000000000000000000600052602260045260246000fd5b50919050565b60008262000b895762000b8962000b8e565b500690565b7f4e487b7100000000000000000000000000000000000000000000000000000000600052601260045260246000fd5b6080516c01000000000000000000000000900460a0516c0100000000000000000000000090046134ab62000c2d600039600081816105650152611b80015260008181610366015281816126ce01528181612799015281816127ee01528181612860015261288701526134ab6000f3fe6080604052600436106102905760003560e060020a900480635342acb41161015e57806395d89b41116100c5578063d543dbeb1161007e578063d543dbeb146107ee578063d547741f1461080e578063dd62ed3e1461082e578063e63ab1e914610874578063ea2f0b37146108a8578063f2fde38b146108c857600080fd5b806395d89b4114610744578063a217fddf14610759578063a457c2d71461076e578063a9059cbb1461078e578063c49b9a80146107ae578063ca15c873146107ce57600080fd5b80638456cb59116101175780638456cb591461067857806388f820201461068d5780638da5cb5b146106c65780638ee88c53146106e45780639010d07c1461070457806391d148541461072457600080fd5b80635342acb4146105c65780635c975abb146105ff5780636bc87c3a1461061757806370a082311461062d578063715018a61461064d5780637d1db4a51461066257600080fd5b8063313ce567116102025780633f4ba83a116101bb5780633f4ba83a146104fe578063437823ec146105135780634549b0391461053357806349bd5a5e146105535780634a74bb021461058757806352390c02146105a657600080fd5b8063313ce5671461044657806336568abe146104685780633685d4191461048857806339509351146104a85780633b124fe7146104c85780633bd5d173146104de57600080fd5b80631694505e116102545780631694505e1461035457806318160ddd146103a057806323b872dd146103b5578063248a9ca3146103d55780632d838119146104065780632f2ff15d1461042657600080fd5b806301ffc9a71461029c578063061c82d0146102d157806306fdde03146102f3578063095ea7b31461031557806313114a9d1461033557600080fd5b3661029757005b600080fd5b3480156102a857600080fd5b506102bc6102b73660046130bf565b6108e8565b60405190151581526020015b60405180910390f35b3480156102dd57600080fd5b506102f16102ec36600461305f565b61092c565b005b3480156102ff57600080fd5b50610308610967565b6040516102c891906131c4565b34801561032157600080fd5b506102bc610330366004613018565b6109f9565b34801561034157600080fd5b50600d545b6040519081526020016102c8565b34801561036057600080fd5b506103887f000000000000000000000000000000000000000000000000000000000000000081565b604051600160a060020a0390911681526020016102c8565b3480156103ac57600080fd5b50600b54610346565b3480156103c157600080fd5b506102bc6103d0366004612fd7565b610a0f565b3480156103e157600080fd5b506103466103f036600461305f565b6000908152600160208190526040909120015490565b34801561041257600080fd5b5061034661042136600461305f565b610b03565b34801561043257600080fd5b506102f1610441366004613078565b610b9d565b34801561045257600080fd5b5060105460405160ff90911681526020016102c8565b34801561047457600080fd5b506102f1610483366004613078565b610bc4565b34801561049457600080fd5b506102f16104a3366004612f64565b610be6565b3480156104b457600080fd5b506102bc6104c3366004613018565b610dbd565b3480156104d457600080fd5b5061034660115481565b3480156104ea57600080fd5b506102f16104f936600461305f565b610df3565b34801561050a57600080fd5b506102f1610ef1565b34801561051f57600080fd5b506102f161052e366004612f64565b610f9a565b34801561053f57600080fd5b5061034661054e3660046130e9565b610feb565b34801561055f57600080fd5b506103887f000000000000000000000000000000000000000000000000000000000000000081565b34801561059357600080fd5b506015546102bc90610100900460ff1681565b3480156105b257600080fd5b506102f16105c1366004612f64565b61107b565b3480156105d257600080fd5b506102bc6105e1366004612f64565b600160a060020a031660009081526008602052604090205460ff1690565b34801561060b57600080fd5b5060035460ff166102bc565b34801561062357600080fd5b5061034660135481565b34801561063957600080fd5b50610346610648366004612f64565b6111e1565b34801561065957600080fd5b506102f1611240565b34801561066e57600080fd5b5061034660165481565b34801561068457600080fd5b506102f16112c4565b34801561069957600080fd5b506102bc6106a8366004612f64565b600160a060020a031660009081526009602052604090205460ff1690565b3480156106d257600080fd5b50600054600160a060020a0316610388565b3480156106f057600080fd5b506102f16106ff36600461305f565b61136b565b34801561071057600080fd5b5061038861071f36600461309d565b61139d565b34801561073057600080fd5b506102bc61073f366004613078565b6113b5565b34801561075057600080fd5b506103086113e0565b34801561076557600080fd5b50610346600081565b34801561077a57600080fd5b506102bc610789366004613018565b6113ef565b34801561079a57600080fd5b506102bc6107a9366004613018565b61143e565b3480156107ba57600080fd5b506102f16107c9366004613044565b6114db565b3480156107da57600080fd5b506103466107e936600461305f565b61155c565b3480156107fa57600080fd5b506102f161080936600461305f565b611573565b34801561081a57600080fd5b506102f1610829366004613078565b6115c6565b34801561083a57600080fd5b50610346610849366004612f9e565b600160a060020a03918216600090815260076020908152604080832093909416825291909152205490565b34801561088057600080fd5b506103467f65d7a28e3265b37a6474929f336521b332c1681b933f6cb9f3376673440d862a81565b3480156108b457600080fd5b506102f16108c3366004612f64565b6115d0565b3480156108d457600080fd5b506102f16108e3366004612f64565b61161e565b6000600160e060020a031982167f5a05180f00000000000000000000000000000000000000000000000000000000148061092657506109268261175d565b92915050565b600054600160a060020a031633146109625760405160e560020a62461bcd028152600401610959906131f7565b60405180910390fd5b601155565b6060600e805461097690613353565b80601f01602080910402602001604051908101604052809291908181526020018280546109a290613353565b80156109ef5780601f106109c4576101008083540402835291602001916109ef565b820191906000526020600020905b8154815290600101906020018083116109d257829003601f168201915b5050505050905090565b6000610a063384846117c4565b50600192915050565b600454600090600160a060020a031633600160a060020a031614158015610a415750600054600160a060020a03163314155b15610a9c5760035460ff1615610a9c5760405160e560020a62461bcd02815260206004820152601b60248201527f546f6b656e207472616e73666572207768696c652070617573656400000000006044820152606401610959565b610aa7848484611922565b610af98433610af48560405180606001604052806028815260200161342960289139600160a060020a038a1660009081526007602090815260408083203384529091529020549190611c3a565b6117c4565b5060019392505050565b6000600c54821115610b805760405160e560020a62461bcd02815260206004820152602a60248201527f416d6f756e74206d757374206265206c657373207468616e20746f74616c207260448201527f65666c656374696f6e73000000000000000000000000000000000000000000006064820152608401610959565b6000610b8a611c69565b9050610b968382611732565b9392505050565b610ba78282611c8c565b6000828152600260205260409020610bbf9082611748565b505050565b610bce8282611cb3565b6000828152600260205260409020610bbf9082611d3e565b600054600160a060020a03163314610c135760405160e560020a62461bcd028152600401610959906131f7565b600160a060020a03811660009081526009602052604090205460ff16610c7e5760405160e560020a62461bcd02815260206004820152601b60248201527f4163636f756e7420697320616c7265616479206578636c7564656400000000006044820152606401610959565b60005b600a54811015610db95781600160a060020a0316600a8281548110610ca857610ca86133de565b600091825260209091200154600160a060020a03161415610da757600a8054610cd3906001906132f9565b81548110610ce357610ce36133de565b600091825260209091200154600a8054600160a060020a039092169183908110610d0f57610d0f6133de565b6000918252602080832091909101805473ffffffffffffffffffffffffffffffffffffffff1916600160a060020a039485161790559184168152600682526040808220829055600990925220805460ff19169055600a805480610d7457610d746133c5565b6000828152602090208101600019908101805473ffffffffffffffffffffffffffffffffffffffff191690550190555050565b80610db181613391565b915050610c81565b5050565b336000818152600760209081526040808320600160a060020a03871684529091528120549091610a06918590610af49086611d53565b3360008181526009602052604090205460ff1615610e7c5760405160e560020a62461bcd02815260206004820152602c60248201527f4578636c75646564206164647265737365732063616e6e6f742063616c6c207460448201527f6869732066756e6374696f6e00000000000000000000000000000000000000006064820152608401610959565b6000610e8783611d5f565b50505050600160a060020a038416600090815260056020526040902054919250610eb391905082611dae565b600160a060020a038316600090815260056020526040902055600c54610ed99082611dae565b600c55600d54610ee99084611d53565b600d55505050565b610f1b7f65d7a28e3265b37a6474929f336521b332c1681b933f6cb9f3376673440d862a336113b5565b610f905760405160e560020a62461bcd02815260206004820152602d60248201527f48756e67727950616e64613a206d75737420686176652070617573657220726f60448201527f6c6520746f20756e7061757365000000000000000000000000000000000000006064820152608401610959565b610f98611dba565b565b600054600160a060020a03163314610fc75760405160e560020a62461bcd028152600401610959906131f7565b600160a060020a03166000908152600860205260409020805460ff19166001179055565b6000600b548311156110425760405160e560020a62461bcd02815260206004820152601f60248201527f416d6f756e74206d757374206265206c657373207468616e20737570706c79006044820152606401610959565b8161106157600061105284611d5f565b50939550610926945050505050565b600061106c84611d5f565b50929550610926945050505050565b600054600160a060020a031633146110a85760405160e560020a62461bcd028152600401610959906131f7565b600160a060020a03811660009081526009602052604090205460ff16156111145760405160e560020a62461bcd02815260206004820152601b60248201527f4163636f756e7420697320616c7265616479206578636c7564656400000000006044820152606401610959565b600160a060020a0381166000908152600560205260409020541561116e57600160a060020a03811660009081526005602052604090205461115490610b03565b600160a060020a0382166000908152600660205260409020555b600160a060020a03166000818152600960205260408120805460ff19166001908117909155600a805491820181559091527fc65a7bb8d6351c1cf70c95a316cc6a92839c986682d98bc35f958f4883f9d2a801805473ffffffffffffffffffffffffffffffffffffffff19169091179055565b600160a060020a03811660009081526009602052604081205460ff161561121e5750600160a060020a031660009081526006602052604090205490565b600160a060020a03821660009081526005602052604090205461092690610b03565b600054600160a060020a0316331461126d5760405160e560020a62461bcd028152600401610959906131f7565b60008054604051600160a060020a03909116907f8be0079c531659141344cd1fd0a4f28419497f9722a3daafe3b4186f6b6457e0908390a36000805473ffffffffffffffffffffffffffffffffffffffff19169055565b6112ee7f65d7a28e3265b37a6474929f336521b332c1681b933f6cb9f3376673440d862a336113b5565b6113635760405160e560020a62461bcd02815260206004820152602b60248201527f48756e67727950616e64613a206d75737420686176652070617573657220726f60448201527f6c6520746f2070617573650000000000000000000000000000000000000000006064820152608401610959565b610f98611e59565b600054600160a060020a031633146113985760405160e560020a62461bcd028152600401610959906131f7565b601355565b6000828152600260205260408120610b969083611ee4565b6000918252600160209081526040808420600160a060020a0393909316845291905290205460ff1690565b6060600f805461097690613353565b6000610a063384610af48560405180606001604052806025815260200161345160259139336000908152600760209081526040808320600160a060020a038d1684529091529020549190611c3a565b6003546000906101009004600160a060020a031633600160a060020a0316141580156114755750600054600160a060020a03163314155b156114d05760035460ff16156114d05760405160e560020a62461bcd02815260206004820152601b60248201527f546f6b656e207472616e73666572207768696c652070617573656400000000006044820152606401610959565b610a06338484611922565b600054600160a060020a031633146115085760405160e560020a62461bcd028152600401610959906131f7565b601580548215156101000261ff00199091161790556040517f53726dfcaf90650aa7eb35524f4d3220f07413c8d6cb404cc8c18bf5591bc1599061155190831515815260200190565b60405180910390a150565b600081815260026020526040812061092690611ef0565b600054600160a060020a031633146115a05760405160e560020a62461bcd028152600401610959906131f7565b6115c060646115ba83600b54611efa90919063ffffffff16565b90611732565b60165550565b610bce8282611f06565b600054600160a060020a031633146115fd5760405160e560020a62461bcd028152600401610959906131f7565b600160a060020a03166000908152600860205260409020805460ff19169055565b600054600160a060020a0316331461164b5760405160e560020a62461bcd028152600401610959906131f7565b600160a060020a0381166116ca5760405160e560020a62461bcd02815260206004820152602660248201527f4f776e61626c653a206e6577206f776e657220697320746865207a65726f206160448201527f64647265737300000000000000000000000000000000000000000000000000006064820152608401610959565b60008054604051600160a060020a03808516939216917f8be0079c531659141344cd1fd0a4f28419497f9722a3daafe3b4186f6b6457e091a36000805473ffffffffffffffffffffffffffffffffffffffff1916600160a060020a0392909216919091179055565b6000610b9682846132b5565b610db98282611f2d565b6000610b9683600160a060020a038416611f98565b6000600160e060020a031982167f7965db0b00000000000000000000000000000000000000000000000000000000148061092657507f01ffc9a700000000000000000000000000000000000000000000000000000000600160e060020a0319831614610926565b600160a060020a0383166118425760405160e560020a62461bcd028152602060048201526024808201527f45524332303a20617070726f76652066726f6d20746865207a65726f2061646460448201527f72657373000000000000000000000000000000000000000000000000000000006064820152608401610959565b600160a060020a0382166118c15760405160e560020a62461bcd02815260206004820152602260248201527f45524332303a20617070726f766520746f20746865207a65726f20616464726560448201527f73730000000000000000000000000000000000000000000000000000000000006064820152608401610959565b600160a060020a0383811660008181526007602090815260408083209487168084529482529182902085905590518481527f8c5be1e5ebec7d5bd14f71427d1e84f3dd0314c0f7b2291e5b200ac8c7c3b925910160405180910390a3505050565b600160a060020a0383166119a15760405160e560020a62461bcd02815260206004820152602560248201527f45524332303a207472616e736665722066726f6d20746865207a65726f20616460448201527f64726573730000000000000000000000000000000000000000000000000000006064820152608401610959565b600160a060020a038216611a205760405160e560020a62461bcd02815260206004820152602360248201527f45524332303a207472616e7366657220746f20746865207a65726f206164647260448201527f65737300000000000000000000000000000000000000000000000000000000006064820152608401610959565b60008111611a995760405160e560020a62461bcd02815260206004820152602960248201527f5472616e7366657220616d6f756e74206d75737420626520677265617465722060448201527f7468616e207a65726f00000000000000000000000000000000000000000000006064820152608401610959565b600054600160a060020a03848116911614801590611ac55750600054600160a060020a03838116911614155b15611b4557601654811115611b455760405160e560020a62461bcd02815260206004820152602860248201527f5472616e7366657220616d6f756e74206578636565647320746865206d61785460448201527f78416d6f756e742e0000000000000000000000000000000000000000000000006064820152608401610959565b6000611b50306111e1565b90506016548110611b6057506016545b60175481108015908190611b77575060155460ff16155b8015611bb557507f0000000000000000000000000000000000000000000000000000000000000000600160a060020a031685600160a060020a031614155b8015611bc85750601554610100900460ff165b15611bdb576017549150611bdb82611fe7565b600160a060020a03851660009081526008602052604090205460019060ff1680611c1d5750600160a060020a03851660009081526008602052604090205460ff165b15611c26575060005b611c3286868684612087565b505050505050565b60008184841115611c615760405160e560020a62461bcd02815260040161095991906131c4565b505050900390565b6000806000611c76612204565b9092509050611c858282611732565b9250505090565b60008281526001602081905260409091200154611ca98133612386565b610bbf8383611f2d565b600160a060020a0381163314611d345760405160e560020a62461bcd02815260206004820152602f60248201527f416363657373436f6e74726f6c3a2063616e206f6e6c792072656e6f756e636560448201527f20726f6c657320666f722073656c6600000000000000000000000000000000006064820152608401610959565b610db982826123ed565b6000610b9683600160a060020a038416612454565b6000610b96828461329d565b6000806000806000806000806000611d768a612541565b9250925092506000806000611d948d8686611d8f611c69565b612583565b919f909e50909c50959a5093985091965092945050505050565b6000610b9682846132f9565b60035460ff16611e0f5760405160e560020a62461bcd02815260206004820152601460248201527f5061757361626c653a206e6f74207061757365640000000000000000000000006044820152606401610959565b6003805460ff191690557f5db9ee0a495bf2e6ff9c91a7834c1ba4fdd244a5e8aa4e537bd38aeae4b073aa335b604051600160a060020a03909116815260200160405180910390a1565b60035460ff1615611eaf5760405160e560020a62461bcd02815260206004820152601060248201527f5061757361626c653a20706175736564000000000000000000000000000000006044820152606401610959565b6003805460ff191660011790557f62e78cea01bee320cd4e420270b5ea74000d11b0c9f74754ebdbfc544b05a258611e3c3390565b6000610b9683836125d3565b6000610926825490565b6000610b9682846132da565b60008281526001602081905260409091200154611f238133612386565b610bbf83836123ed565b611f3782826113b5565b610db9576000828152600160208181526040808420600160a060020a0386168086529252808420805460ff19169093179092559051339285917f2f8788117e7eff1d82e926ec794901d17c78024a50270940304540a733656f0d9190a45050565b6000818152600183016020526040812054611fdf57508154600181810184556000848152602080822090930184905584548482528286019093526040902091909155610926565b506000610926565b6015805460ff191660011790556000612001826002611732565b9050600061200f8383611dae565b9050303161201c83612677565b6000612029303183611dae565b9050612035838261285a565b60408051858152602081018390529081018490527f17bbfb9a6069321b6ded73bd96327c9e6b7212a5cd51ff219cd61370acafb5619060600160405180910390a150506015805460ff19169055505050565b806120945761209461296d565b600160a060020a03841660009081526009602052604090205460ff1680156120d55750600160a060020a03831660009081526009602052604090205460ff16155b156120ea576120e584848461299b565b6121e8565b600160a060020a03841660009081526009602052604090205460ff1615801561212b5750600160a060020a03831660009081526009602052604090205460ff165b1561213b576120e5848484612ac1565b600160a060020a03841660009081526009602052604090205460ff1615801561217d5750600160a060020a03831660009081526009602052604090205460ff16155b1561218d576120e5848484612b6a565b600160a060020a03841660009081526009602052604090205460ff1680156121cd5750600160a060020a03831660009081526009602052604090205460ff165b156121dd576120e5848484612bae565b6121e8848484612b6a565b806121fe576121fe601254601155601454601355565b50505050565b600c54600b546000918291825b600a54811015612356578260056000600a8481548110612233576122336133de565b6000918252602080832090910154600160a060020a03168352820192909252604001902054118061229e57508160066000600a8481548110612277576122776133de565b6000918252602080832090910154600160a060020a03168352820192909252604001902054115b156122b457600c54600b54945094505050509091565b6122fa60056000600a84815481106122ce576122ce6133de565b6000918252602080832090910154600160a060020a031683528201929092526040019020548490611dae565b925061234260066000600a8481548110612316576123166133de565b6000918252602080832090910154600160a060020a031683528201929092526040019020548390611dae565b91508061234e81613391565b915050612211565b50600b54600c5461236691611732565b82101561237d57600c54600b549350935050509091565b90939092509050565b61239082826113b5565b610db9576123a881600160a060020a03166014612c21565b6123b3836020612c21565b6040516020016123c4929190613143565b60408051601f198184030181529082905260e560020a62461bcd028252610959916004016131c4565b6123f782826113b5565b15610db9576000828152600160209081526040808320600160a060020a0385168085529252808320805460ff1916905551339285917ff6391f5c32d9c69d2a47ea670b442974b53935d1edc7fd64eb21e047a839171b9190a45050565b600081815260018301602052604081205480156125375760006124786001836132f9565b855490915060009061248c906001906132f9565b905060008660000182815481106124a5576124a56133de565b90600052602060002001549050808760000184815481106124c8576124c86133de565b6000918252602080832090910192909255828152600189019091526040902084905586548790806124fb576124fb6133c5565b60019003818190600052602060002001600090559055866001016000878152602001908152602001600020600090556001945050505050610926565b6000915050610926565b60008060008061255085612e6b565b9050600061255d86612e87565b905060006125758261256f8986611dae565b90611dae565b979296509094509092505050565b60008080806125928886611efa565b905060006125a08887611efa565b905060006125ae8888611efa565b905060006125c08261256f8686611dae565b939b939a50919850919650505050505050565b8154600090821061264f5760405160e560020a62461bcd02815260206004820152602260248201527f456e756d657261626c655365743a20696e646578206f7574206f6620626f756e60448201527f64730000000000000000000000000000000000000000000000000000000000006064820152608401610959565b826000018281548110612664576126646133de565b9060005260206000200154905092915050565b60408051600280825260608201835260009260208301908036833701905050905030816000815181106126ac576126ac6133de565b6020026020010190600160a060020a03169081600160a060020a0316815250507f0000000000000000000000000000000000000000000000000000000000000000600160a060020a031663ad5c46486040518163ffffffff1660e060020a02815260040160206040518083038186803b15801561272857600080fd5b505afa15801561273c573d6000803e3d6000fd5b505050506040513d601f19601f820116820180604052508101906127609190612f81565b81600181518110612773576127736133de565b6020026020010190600160a060020a03169081600160a060020a0316815250506127be307f0000000000000000000000000000000000000000000000000000000000000000846117c4565b6040517f791ac947000000000000000000000000000000000000000000000000000000008152600160a060020a037f0000000000000000000000000000000000000000000000000000000000000000169063791ac9479061282c90859060009086903090429060040161322c565b600060405180830381600087803b15801561284657600080fd5b505af1158015611c32573d6000803e3d6000fd5b612885307f0000000000000000000000000000000000000000000000000000000000000000846117c4565b7f0000000000000000000000000000000000000000000000000000000000000000600160a060020a031663f305d7198230856000806128cc600054600160a060020a031690565b60405163ffffffff881660e060020a028152600160a060020a03958616600482015260248101949094526044840192909252606483015290911660848201524260a482015260c4016060604051808303818588803b15801561292d57600080fd5b505af1158015612941573d6000803e3d6000fd5b50505050506040513d601f19601f820116820180604052508101906129669190613115565b5050505050565b60115415801561297d5750601354155b1561298457565b601180546012556013805460145560009182905555565b6000806000806000806129ad87611d5f565b600160a060020a038f16600090815260066020526040902054959b509399509197509550935091506129df9088611dae565b600160a060020a038a16600090815260066020908152604080832093909355600590522054612a0e9087611dae565b600160a060020a03808b1660009081526005602052604080822093909355908a1681522054612a3d9086611d53565b600160a060020a038916600090815260056020526040902055612a5f81612ea3565b612a698483612f2b565b87600160a060020a031689600160a060020a03167fddf252ad1be2c89b69c2b068fc378daa952ba7f163c4a11628f55a4df523b3ef85604051612aae91815260200190565b60405180910390a3505050505050505050565b600080600080600080612ad387611d5f565b600160a060020a038f16600090815260056020526040902054959b50939950919750955093509150612b059087611dae565b600160a060020a03808b16600090815260056020908152604080832094909455918b16815260069091522054612b3b9084611d53565b600160a060020a038916600090815260066020908152604080832093909355600590522054612a3d9086611d53565b600080600080600080612b7c87611d5f565b600160a060020a038f16600090815260056020526040902054959b50939950919750955093509150612a0e9087611dae565b600080600080600080612bc087611d5f565b600160a060020a038f16600090815260066020526040902054959b50939950919750955093509150612bf29088611dae565b600160a060020a038a16600090815260066020908152604080832093909355600590522054612b059087611dae565b60606000612c308360026132da565b612c3b90600261329d565b67ffffffffffffffff811115612c5357612c536133f7565b6040519080825280601f01601f191660200182016040528015612c7d576020820181803683370190505b5090507f300000000000000000000000000000000000000000000000000000000000000081600081518110612cb457612cb46133de565b60200101907effffffffffffffffffffffffffffffffffffffffffffffffffffffffffffff1916908160001a9053507f780000000000000000000000000000000000000000000000000000000000000081600181518110612d1757612d176133de565b60200101907effffffffffffffffffffffffffffffffffffffffffffffffffffffffffffff1916908160001a9053506000612d538460026132da565b612d5e90600161329d565b90505b6001811115612e19577f303132333435363738396162636465660000000000000000000000000000000085600f1660108110612d9f57612d9f6133de565b1a7f010000000000000000000000000000000000000000000000000000000000000002828281518110612dd457612dd46133de565b60200101907effffffffffffffffffffffffffffffffffffffffffffffffffffffffffffff1916908160001a905350601090940493612e128161333c565b9050612d61565b508315610b965760405160e560020a62461bcd02815260206004820181905260248201527f537472696e67733a20686578206c656e67746820696e73756666696369656e746044820152606401610959565b600061092660646115ba60115485611efa90919063ffffffff16565b600061092660646115ba60135485611efa90919063ffffffff16565b6000612ead611c69565b90506000612ebb8383611efa565b30600090815260056020526040902054909150612ed89082611d53565b3060009081526005602090815260408083209390935560099052205460ff1615610bbf5730600090815260066020526040902054612f169084611d53565b30600090815260066020526040902055505050565b600c54612f389083611dae565b600c55600d54612f489082611d53565b600d555050565b80358015158114612f5f57600080fd5b919050565b600060208284031215612f7657600080fd5b8135610b9681613410565b600060208284031215612f9357600080fd5b8151610b9681613410565b60008060408385031215612fb157600080fd5b8235612fbc81613410565b91506020830135612fcc81613410565b809150509250929050565b600080600060608486031215612fec57600080fd5b8335612ff781613410565b9250602084013561300781613410565b929592945050506040919091013590565b6000806040838503121561302b57600080fd5b823561303681613410565b946020939093013593505050565b60006020828403121561305657600080fd5b610b9682612f4f565b60006020828403121561307157600080fd5b5035919050565b6000806040838503121561308b57600080fd5b823591506020830135612fcc81613410565b600080604083850312156130b057600080fd5b50508035926020909101359150565b6000602082840312156130d157600080fd5b8135600160e060020a031981168114610b9657600080fd5b600080604083850312156130fc57600080fd5b8235915061310c60208401612f4f565b90509250929050565b60008060006060848603121561312a57600080fd5b8351925060208401519150604084015190509250925092565b7f416363657373436f6e74726f6c3a206163636f756e742000000000000000000081526000835161317b816017850160208801613310565b7f206973206d697373696e6720726f6c652000000000000000000000000000000060179184019182015283516131b8816028840160208801613310565b01602801949350505050565b60208152600082518060208401526131e3816040850160208701613310565b601f01601f19169190910160400192915050565b6020808252818101527f4f776e61626c653a2063616c6c6572206973206e6f7420746865206f776e6572604082015260600190565b600060a082018783526020878185015260a0604085015281875180845260c086019150828901935060005b8181101561327c578451600160a060020a031683529383019391830191600101613257565b5050600160a060020a03969096166060850152505050608001529392505050565b600082198211156132b0576132b06133ac565b500190565b6000826132d55760e060020a634e487b7102600052601260045260246000fd5b500490565b60008160001904831182151516156132f4576132f46133ac565b500290565b60008282101561330b5761330b6133ac565b500390565b60005b8381101561332b578181015183820152602001613313565b838111156121fe5750506000910152565b60008161334b5761334b6133ac565b506000190190565b60028104600182168061336757607f821691505b6020821081141561338b5760e060020a634e487b7102600052602260045260246000fd5b50919050565b60006000198214156133a5576133a56133ac565b5060010190565b60e060020a634e487b7102600052601160045260246000fd5b60e060020a634e487b7102600052603160045260246000fd5b60e060020a634e487b7102600052603260045260246000fd5b60e060020a634e487b7102600052604160045260246000fd5b600160a060020a038116811461342557600080fd5b5056fe45524332303a207472616e7366657220616d6f756e74206578636565647320616c6c6f77616e636545524332303a2064656372656173656420616c6c6f77616e63652062656c6f77207a65726fa2646970667358221220c3d7d7325834ab26ae0f40a4cde095e54d72f8d765a3998ae0fe3238f14fa10864736f6c6343000805003365d7a28e3265b37a6474929f336521b332c1681b933f6cb9f3376673440d862a",
  "immutableReferences": {
    "347": [
      {
        "length": 32,
        "start": 870
      },
      {
        "length": 32,
        "start": 9934
      },
      {
        "length": 32,
        "start": 10137
      },
      {
        "length": 32,
        "start": 10222
      },
      {
        "length": 32,
        "start": 10336
      },
      {
        "length": 32,
        "start": 10375
      }
    ],
    "349": [
      {
        "length": 32,
        "start": 1381
      },
      {
        "length": 32,
        "start": 7040
      }
    ]
  },
  "source": "// SPDX-License-Identifier: MIT\npragma solidity >=0.8.4 <0.9.0;\n\nimport \"./GenericToken.sol\";\n\ncontract PandaToken is GenricToken {\n    constructor(address _router, address _airdrop, address _whiteList) \n    GenricToken(\n        \"Hungry Panda Token\",\n        \"HUNGRYPANDA\",\n        10000000000 * 10**3 * 10**9,\n        7,\n        10,\n        _router,\n        _airdrop,\n        _whiteList\n    ){}\n}",
  "sourcePath": "C:/Users/skyne/Dev/work/skynet/HungryPandaHome/hungrypanda-token/contracts/PandaToken.sol",
  "compiler": {
    "name": "solc",
    "version": "0.8.5+commit.a4f2e591.Emscripten.clang"
  },
  "schemaVersion": "3.4.1",
  "updatedAt": "2021-06-12T08:38:11.717Z",
  "networkType": "ethereum",
  "devdoc": {
    "kind": "dev",
    "methods": {
      "approve(address,uint256)": {
        "details": "Sets `amount` as the allowance of `spender` over the caller's tokens. Returns a boolean value indicating whether the operation succeeded. IMPORTANT: Beware that changing an allowance with this method brings the risk that someone may use both the old and the new allowance by unfortunate transaction ordering. One possible solution to mitigate this race condition is to first reduce the spender's allowance to 0 and set the desired value afterwards: https://github.com/ethereum/EIPs/issues/20#issuecomment-263524729 Emits an {Approval} event."
      },
      "balanceOf(address)": {
        "details": "Returns the amount of tokens owned by `account`."
      },
      "getRoleAdmin(bytes32)": {
        "details": "Returns the admin role that controls `role`. See {grantRole} and {revokeRole}. To change a role's admin, use {_setRoleAdmin}."
      },
      "getRoleMember(bytes32,uint256)": {
        "details": "Returns one of the accounts that have `role`. `index` must be a value between 0 and {getRoleMemberCount}, non-inclusive. Role bearers are not sorted in any particular way, and their ordering may change at any point. WARNING: When using {getRoleMember} and {getRoleMemberCount}, make sure you perform all queries on the same block. See the following https://forum.openzeppelin.com/t/iterating-over-elements-on-enumerableset-in-openzeppelin-contracts/2296[forum post] for more information."
      },
      "getRoleMemberCount(bytes32)": {
        "details": "Returns the number of accounts that have `role`. Can be used together with {getRoleMember} to enumerate all bearers of a role."
      },
      "grantRole(bytes32,address)": {
        "details": "Overload {grantRole} to track enumerable memberships"
      },
      "hasRole(bytes32,address)": {
        "details": "Returns `true` if `account` has been granted `role`."
      },
      "owner()": {
        "details": "Returns the address of the current owner."
      },
      "paused()": {
        "details": "Returns true if the contract is paused, and false otherwise."
      },
      "renounceOwnership()": {
        "details": "Leaves the contract without owner. It will not be possible to call `onlyOwner` functions anymore. Can only be called by the current owner. NOTE: Renouncing ownership will leave the contract without an owner, thereby removing any functionality that is only available to the owner."
      },
      "renounceRole(bytes32,address)": {
        "details": "Overload {renounceRole} to track enumerable memberships"
      },
      "revokeRole(bytes32,address)": {
        "details": "Overload {revokeRole} to track enumerable memberships"
      },
      "supportsInterface(bytes4)": {
        "details": "See {IERC165-supportsInterface}."
      },
      "totalSupply()": {
        "details": "Returns the amount of tokens in existence."
      },
      "transfer(address,uint256)": {
        "details": "Moves `amount` tokens from the caller's account to `recipient`. Returns a boolean value indicating whether the operation succeeded. Emits a {Transfer} event."
      },
      "transferFrom(address,address,uint256)": {
        "details": "Moves `amount` tokens from `sender` to `recipient` using the allowance mechanism. `amount` is then deducted from the caller's allowance. Returns a boolean value indicating whether the operation succeeded. Emits a {Transfer} event."
      },
      "transferOwnership(address)": {
        "details": "Transfers ownership of the contract to a new account (`newOwner`). Can only be called by the current owner."
      }
    },
    "version": 1
  },
  "userdoc": {
    "kind": "user",
    "methods": {},
    "version": 1
  }
}