{
  "contractName": "PandaToken",
  "abi": [
    {
      "inputs": [
        {
          "internalType": "address",
          "name": "_router",
          "type": "address"
        }
      ],
      "stateMutability": "nonpayable",
      "type": "constructor"
    },
    {
      "anonymous": false,
      "inputs": [
        {
          "indexed": true,
          "internalType": "address",
          "name": "owner",
          "type": "address"
        },
        {
          "indexed": true,
          "internalType": "address",
          "name": "spender",
          "type": "address"
        },
        {
          "indexed": false,
          "internalType": "uint256",
          "name": "value",
          "type": "uint256"
        }
      ],
      "name": "Approval",
      "type": "event"
    },
    {
      "anonymous": false,
      "inputs": [
        {
          "indexed": false,
          "internalType": "uint256",
          "name": "minTokensBeforeSwap",
          "type": "uint256"
        }
      ],
      "name": "MinTokensBeforeSwapUpdated",
      "type": "event"
    },
    {
      "anonymous": false,
      "inputs": [
        {
          "indexed": true,
          "internalType": "address",
          "name": "previousOwner",
          "type": "address"
        },
        {
          "indexed": true,
          "internalType": "address",
          "name": "newOwner",
          "type": "address"
        }
      ],
      "name": "OwnershipTransferred",
      "type": "event"
    },
    {
      "anonymous": false,
      "inputs": [
        {
          "indexed": false,
          "internalType": "address",
          "name": "account",
          "type": "address"
        }
      ],
      "name": "Paused",
      "type": "event"
    },
    {
      "anonymous": false,
      "inputs": [
        {
          "indexed": true,
          "internalType": "bytes32",
          "name": "role",
          "type": "bytes32"
        },
        {
          "indexed": true,
          "internalType": "bytes32",
          "name": "previousAdminRole",
          "type": "bytes32"
        },
        {
          "indexed": true,
          "internalType": "bytes32",
          "name": "newAdminRole",
          "type": "bytes32"
        }
      ],
      "name": "RoleAdminChanged",
      "type": "event"
    },
    {
      "anonymous": false,
      "inputs": [
        {
          "indexed": true,
          "internalType": "bytes32",
          "name": "role",
          "type": "bytes32"
        },
        {
          "indexed": true,
          "internalType": "address",
          "name": "account",
          "type": "address"
        },
        {
          "indexed": true,
          "internalType": "address",
          "name": "sender",
          "type": "address"
        }
      ],
      "name": "RoleGranted",
      "type": "event"
    },
    {
      "anonymous": false,
      "inputs": [
        {
          "indexed": true,
          "internalType": "bytes32",
          "name": "role",
          "type": "bytes32"
        },
        {
          "indexed": true,
          "internalType": "address",
          "name": "account",
          "type": "address"
        },
        {
          "indexed": true,
          "internalType": "address",
          "name": "sender",
          "type": "address"
        }
      ],
      "name": "RoleRevoked",
      "type": "event"
    },
    {
      "anonymous": false,
      "inputs": [
        {
          "indexed": false,
          "internalType": "uint256",
          "name": "tokensSwapped",
          "type": "uint256"
        },
        {
          "indexed": false,
          "internalType": "uint256",
          "name": "ethReceived",
          "type": "uint256"
        },
        {
          "indexed": false,
          "internalType": "uint256",
          "name": "tokensIntoLiqudity",
          "type": "uint256"
        }
      ],
      "name": "SwapAndLiquify",
      "type": "event"
    },
    {
      "anonymous": false,
      "inputs": [
        {
          "indexed": false,
          "internalType": "bool",
          "name": "enabled",
          "type": "bool"
        }
      ],
      "name": "SwapAndLiquifyEnabledUpdated",
      "type": "event"
    },
    {
      "anonymous": false,
      "inputs": [
        {
          "indexed": true,
          "internalType": "address",
          "name": "from",
          "type": "address"
        },
        {
          "indexed": true,
          "internalType": "address",
          "name": "to",
          "type": "address"
        },
        {
          "indexed": false,
          "internalType": "uint256",
          "name": "value",
          "type": "uint256"
        }
      ],
      "name": "Transfer",
      "type": "event"
    },
    {
      "anonymous": false,
      "inputs": [
        {
          "indexed": false,
          "internalType": "address",
          "name": "account",
          "type": "address"
        }
      ],
      "name": "Unpaused",
      "type": "event"
    },
    {
      "inputs": [],
      "name": "DEFAULT_ADMIN_ROLE",
      "outputs": [
        {
          "internalType": "bytes32",
          "name": "",
          "type": "bytes32"
        }
      ],
      "stateMutability": "view",
      "type": "function",
      "constant": true
    },
    {
      "inputs": [],
      "name": "PAUSER_ROLE",
      "outputs": [
        {
          "internalType": "bytes32",
          "name": "",
          "type": "bytes32"
        }
      ],
      "stateMutability": "view",
      "type": "function",
      "constant": true
    },
    {
      "inputs": [],
      "name": "_liquidityFee",
      "outputs": [
        {
          "internalType": "uint256",
          "name": "",
          "type": "uint256"
        }
      ],
      "stateMutability": "view",
      "type": "function",
      "constant": true
    },
    {
      "inputs": [],
      "name": "_maxTxAmount",
      "outputs": [
        {
          "internalType": "uint256",
          "name": "",
          "type": "uint256"
        }
      ],
      "stateMutability": "view",
      "type": "function",
      "constant": true
    },
    {
      "inputs": [],
      "name": "_taxFee",
      "outputs": [
        {
          "internalType": "uint256",
          "name": "",
          "type": "uint256"
        }
      ],
      "stateMutability": "view",
      "type": "function",
      "constant": true
    },
    {
      "inputs": [
        {
          "internalType": "address",
          "name": "_target",
          "type": "address"
        }
      ],
      "name": "addUnpausable",
      "outputs": [],
      "stateMutability": "nonpayable",
      "type": "function"
    },
    {
      "inputs": [
        {
          "internalType": "address",
          "name": "_owner",
          "type": "address"
        },
        {
          "internalType": "address",
          "name": "spender",
          "type": "address"
        }
      ],
      "name": "allowance",
      "outputs": [
        {
          "internalType": "uint256",
          "name": "",
          "type": "uint256"
        }
      ],
      "stateMutability": "view",
      "type": "function",
      "constant": true
    },
    {
      "inputs": [
        {
          "internalType": "address",
          "name": "spender",
          "type": "address"
        },
        {
          "internalType": "uint256",
          "name": "amount",
          "type": "uint256"
        }
      ],
      "name": "approve",
      "outputs": [
        {
          "internalType": "bool",
          "name": "",
          "type": "bool"
        }
      ],
      "stateMutability": "nonpayable",
      "type": "function"
    },
    {
      "inputs": [
        {
          "internalType": "address",
          "name": "account",
          "type": "address"
        }
      ],
      "name": "balanceOf",
      "outputs": [
        {
          "internalType": "uint256",
          "name": "",
          "type": "uint256"
        }
      ],
      "stateMutability": "view",
      "type": "function",
      "constant": true
    },
    {
      "inputs": [],
      "name": "decimals",
      "outputs": [
        {
          "internalType": "uint8",
          "name": "",
          "type": "uint8"
        }
      ],
      "stateMutability": "view",
      "type": "function",
      "constant": true
    },
    {
      "inputs": [
        {
          "internalType": "address",
          "name": "spender",
          "type": "address"
        },
        {
          "internalType": "uint256",
          "name": "subtractedValue",
          "type": "uint256"
        }
      ],
      "name": "decreaseAllowance",
      "outputs": [
        {
          "internalType": "bool",
          "name": "",
          "type": "bool"
        }
      ],
      "stateMutability": "nonpayable",
      "type": "function"
    },
    {
      "inputs": [
        {
          "internalType": "address",
          "name": "_target",
          "type": "address"
        }
      ],
      "name": "delUnpausable",
      "outputs": [],
      "stateMutability": "nonpayable",
      "type": "function"
    },
    {
      "inputs": [
        {
          "internalType": "uint256",
          "name": "tAmount",
          "type": "uint256"
        }
      ],
      "name": "deliver",
      "outputs": [],
      "stateMutability": "nonpayable",
      "type": "function"
    },
    {
      "inputs": [
        {
          "internalType": "address",
          "name": "account",
          "type": "address"
        }
      ],
      "name": "excludeFromFee",
      "outputs": [],
      "stateMutability": "nonpayable",
      "type": "function"
    },
    {
      "inputs": [
        {
          "internalType": "address",
          "name": "account",
          "type": "address"
        }
      ],
      "name": "excludeFromReward",
      "outputs": [],
      "stateMutability": "nonpayable",
      "type": "function"
    },
    {
      "inputs": [
        {
          "internalType": "bytes32",
          "name": "role",
          "type": "bytes32"
        }
      ],
      "name": "getRoleAdmin",
      "outputs": [
        {
          "internalType": "bytes32",
          "name": "",
          "type": "bytes32"
        }
      ],
      "stateMutability": "view",
      "type": "function",
      "constant": true
    },
    {
      "inputs": [
        {
          "internalType": "bytes32",
          "name": "role",
          "type": "bytes32"
        },
        {
          "internalType": "uint256",
          "name": "index",
          "type": "uint256"
        }
      ],
      "name": "getRoleMember",
      "outputs": [
        {
          "internalType": "address",
          "name": "",
          "type": "address"
        }
      ],
      "stateMutability": "view",
      "type": "function",
      "constant": true
    },
    {
      "inputs": [
        {
          "internalType": "bytes32",
          "name": "role",
          "type": "bytes32"
        }
      ],
      "name": "getRoleMemberCount",
      "outputs": [
        {
          "internalType": "uint256",
          "name": "",
          "type": "uint256"
        }
      ],
      "stateMutability": "view",
      "type": "function",
      "constant": true
    },
    {
      "inputs": [
        {
          "internalType": "bytes32",
          "name": "role",
          "type": "bytes32"
        },
        {
          "internalType": "address",
          "name": "account",
          "type": "address"
        }
      ],
      "name": "grantRole",
      "outputs": [],
      "stateMutability": "nonpayable",
      "type": "function"
    },
    {
      "inputs": [
        {
          "internalType": "bytes32",
          "name": "role",
          "type": "bytes32"
        },
        {
          "internalType": "address",
          "name": "account",
          "type": "address"
        }
      ],
      "name": "hasRole",
      "outputs": [
        {
          "internalType": "bool",
          "name": "",
          "type": "bool"
        }
      ],
      "stateMutability": "view",
      "type": "function",
      "constant": true
    },
    {
      "inputs": [
        {
          "internalType": "address",
          "name": "account",
          "type": "address"
        }
      ],
      "name": "includeInFee",
      "outputs": [],
      "stateMutability": "nonpayable",
      "type": "function"
    },
    {
      "inputs": [
        {
          "internalType": "address",
          "name": "account",
          "type": "address"
        }
      ],
      "name": "includeInReward",
      "outputs": [],
      "stateMutability": "nonpayable",
      "type": "function"
    },
    {
      "inputs": [
        {
          "internalType": "address",
          "name": "spender",
          "type": "address"
        },
        {
          "internalType": "uint256",
          "name": "addedValue",
          "type": "uint256"
        }
      ],
      "name": "increaseAllowance",
      "outputs": [
        {
          "internalType": "bool",
          "name": "",
          "type": "bool"
        }
      ],
      "stateMutability": "nonpayable",
      "type": "function"
    },
    {
      "inputs": [
        {
          "internalType": "address",
          "name": "account",
          "type": "address"
        }
      ],
      "name": "isExcludedFromFee",
      "outputs": [
        {
          "internalType": "bool",
          "name": "",
          "type": "bool"
        }
      ],
      "stateMutability": "view",
      "type": "function",
      "constant": true
    },
    {
      "inputs": [
        {
          "internalType": "address",
          "name": "account",
          "type": "address"
        }
      ],
      "name": "isExcludedFromReward",
      "outputs": [
        {
          "internalType": "bool",
          "name": "",
          "type": "bool"
        }
      ],
      "stateMutability": "view",
      "type": "function",
      "constant": true
    },
    {
      "inputs": [],
      "name": "name",
      "outputs": [
        {
          "internalType": "string",
          "name": "",
          "type": "string"
        }
      ],
      "stateMutability": "view",
      "type": "function",
      "constant": true
    },
    {
      "inputs": [],
      "name": "owner",
      "outputs": [
        {
          "internalType": "address",
          "name": "",
          "type": "address"
        }
      ],
      "stateMutability": "view",
      "type": "function",
      "constant": true
    },
    {
      "inputs": [],
      "name": "pause",
      "outputs": [],
      "stateMutability": "nonpayable",
      "type": "function"
    },
    {
      "inputs": [],
      "name": "paused",
      "outputs": [
        {
          "internalType": "bool",
          "name": "",
          "type": "bool"
        }
      ],
      "stateMutability": "view",
      "type": "function",
      "constant": true
    },
    {
      "inputs": [
        {
          "internalType": "uint256",
          "name": "tAmount",
          "type": "uint256"
        },
        {
          "internalType": "bool",
          "name": "deductTransferFee",
          "type": "bool"
        }
      ],
      "name": "reflectionFromToken",
      "outputs": [
        {
          "internalType": "uint256",
          "name": "",
          "type": "uint256"
        }
      ],
      "stateMutability": "view",
      "type": "function",
      "constant": true
    },
    {
      "inputs": [],
      "name": "renounceOwnership",
      "outputs": [],
      "stateMutability": "nonpayable",
      "type": "function"
    },
    {
      "inputs": [
        {
          "internalType": "bytes32",
          "name": "role",
          "type": "bytes32"
        },
        {
          "internalType": "address",
          "name": "account",
          "type": "address"
        }
      ],
      "name": "renounceRole",
      "outputs": [],
      "stateMutability": "nonpayable",
      "type": "function"
    },
    {
      "inputs": [
        {
          "internalType": "bytes32",
          "name": "role",
          "type": "bytes32"
        },
        {
          "internalType": "address",
          "name": "account",
          "type": "address"
        }
      ],
      "name": "revokeRole",
      "outputs": [],
      "stateMutability": "nonpayable",
      "type": "function"
    },
    {
      "inputs": [
        {
          "internalType": "uint256",
          "name": "liquidityFee",
          "type": "uint256"
        }
      ],
      "name": "setLiquidityFeePercent",
      "outputs": [],
      "stateMutability": "nonpayable",
      "type": "function"
    },
    {
      "inputs": [
        {
          "internalType": "uint256",
          "name": "maxTxPercent",
          "type": "uint256"
        }
      ],
      "name": "setMaxTxPercent",
      "outputs": [],
      "stateMutability": "nonpayable",
      "type": "function"
    },
    {
      "inputs": [
        {
          "internalType": "bool",
          "name": "_enabled",
          "type": "bool"
        }
      ],
      "name": "setSwapAndLiquifyEnabled",
      "outputs": [],
      "stateMutability": "nonpayable",
      "type": "function"
    },
    {
      "inputs": [
        {
          "internalType": "uint256",
          "name": "taxFee",
          "type": "uint256"
        }
      ],
      "name": "setTaxFeePercent",
      "outputs": [],
      "stateMutability": "nonpayable",
      "type": "function"
    },
    {
      "inputs": [
        {
          "internalType": "bytes4",
          "name": "interfaceId",
          "type": "bytes4"
        }
      ],
      "name": "supportsInterface",
      "outputs": [
        {
          "internalType": "bool",
          "name": "",
          "type": "bool"
        }
      ],
      "stateMutability": "view",
      "type": "function",
      "constant": true
    },
    {
      "inputs": [],
      "name": "swapAndLiquifyEnabled",
      "outputs": [
        {
          "internalType": "bool",
          "name": "",
          "type": "bool"
        }
      ],
      "stateMutability": "view",
      "type": "function",
      "constant": true
    },
    {
      "inputs": [],
      "name": "symbol",
      "outputs": [
        {
          "internalType": "string",
          "name": "",
          "type": "string"
        }
      ],
      "stateMutability": "view",
      "type": "function",
      "constant": true
    },
    {
      "inputs": [
        {
          "internalType": "uint256",
          "name": "rAmount",
          "type": "uint256"
        }
      ],
      "name": "tokenFromReflection",
      "outputs": [
        {
          "internalType": "uint256",
          "name": "",
          "type": "uint256"
        }
      ],
      "stateMutability": "view",
      "type": "function",
      "constant": true
    },
    {
      "inputs": [],
      "name": "totalFees",
      "outputs": [
        {
          "internalType": "uint256",
          "name": "",
          "type": "uint256"
        }
      ],
      "stateMutability": "view",
      "type": "function",
      "constant": true
    },
    {
      "inputs": [],
      "name": "totalSupply",
      "outputs": [
        {
          "internalType": "uint256",
          "name": "",
          "type": "uint256"
        }
      ],
      "stateMutability": "view",
      "type": "function",
      "constant": true
    },
    {
      "inputs": [
        {
          "internalType": "address",
          "name": "recipient",
          "type": "address"
        },
        {
          "internalType": "uint256",
          "name": "amount",
          "type": "uint256"
        }
      ],
      "name": "transfer",
      "outputs": [
        {
          "internalType": "bool",
          "name": "",
          "type": "bool"
        }
      ],
      "stateMutability": "nonpayable",
      "type": "function"
    },
    {
      "inputs": [
        {
          "internalType": "address",
          "name": "sender",
          "type": "address"
        },
        {
          "internalType": "address",
          "name": "recipient",
          "type": "address"
        },
        {
          "internalType": "uint256",
          "name": "amount",
          "type": "uint256"
        }
      ],
      "name": "transferFrom",
      "outputs": [
        {
          "internalType": "bool",
          "name": "",
          "type": "bool"
        }
      ],
      "stateMutability": "nonpayable",
      "type": "function"
    },
    {
      "inputs": [
        {
          "internalType": "address",
          "name": "newOwner",
          "type": "address"
        }
      ],
      "name": "transferOwnership",
      "outputs": [],
      "stateMutability": "nonpayable",
      "type": "function"
    },
    {
      "inputs": [],
      "name": "uniswapV2Pair",
      "outputs": [
        {
          "internalType": "address",
          "name": "",
          "type": "address"
        }
      ],
      "stateMutability": "view",
      "type": "function",
      "constant": true
    },
    {
      "inputs": [],
      "name": "uniswapV2Router",
      "outputs": [
        {
          "internalType": "contract IUniswapV2Router02",
          "name": "",
          "type": "address"
        }
      ],
      "stateMutability": "view",
      "type": "function",
      "constant": true
    },
    {
      "inputs": [],
      "name": "unpause",
      "outputs": [],
      "stateMutability": "nonpayable",
      "type": "function"
    },
    {
      "stateMutability": "payable",
      "type": "receive",
      "payable": true
    }
  ],
  "bytecode": "0x60c060405269021e19e0c9bab2400000600b8190556200002290600019620008f9565b620000309060001962000864565b600c556010805460ff191660091790556011546012556013546014556015805461ff00191661010017905568056bc75e2d6310000060168190556017553480156200007a57600080fd5b5060405162003eb938038062003eb98339810160408190526200009d916200081b565b6040518060400160405280601281526020017f48756e6772792050616e646120546f6b656e00000000000000000000000000008152506040518060400160405280600b81526020017f48554e47525950414e444100000000000000000000000000000000000000000081525069021e19e0c9bab24000006007600a8560006200013462000591640100000000026401000000009004565b60008054600160a060020a031916600160a060020a0383169081178255604051929350917f8be0079c531659141344cd1fd0a4f28419497f9722a3daafe3b4186f6b6457e0908290a3506003805460ff19169055620001b06000620001a164010000000062000591810204565b64010000000062000595810204565b620001e87f65d7a28e3265b37a6474929f336521b332c1681b933f6cb9f3376673440d862a620001a164010000000062000591810204565b8551620001fd90600e90602089019062000775565b5084516200021390600f90602088019062000775565b50600b8490556200022784600019620008f9565b620002359060001962000864565b600c81905560ff8085166011819055601281905560138190556014556200026d919084166401000000006200171c620005dc82021704565b601655600c54620002909060ff84166401000000006200171c620005dc82021704565b601755600c5460046000620002ad64010000000062000591810204565b600160a060020a0316600160a060020a0316815260200190815260200160002081905550600081905080600160a060020a031663c45a01556040518163ffffffff167c010000000000000000000000000000000000000000000000000000000002815260040160206040518083038186803b1580156200032c57600080fd5b505afa15801562000341573d6000803e3d6000fd5b505050506040513d601f19601f820116820180604052508101906200036791906200081b565b600160a060020a031663c9c653963083600160a060020a031663ad5c46486040518163ffffffff167c010000000000000000000000000000000000000000000000000000000002815260040160206040518083038186803b158015620003cc57600080fd5b505afa158015620003e1573d6000803e3d6000fd5b505050506040513d601f19601f820116820180604052508101906200040791906200081b565b6040517c010000000000000000000000000000000000000000000000000000000063ffffffff8516028152600160a060020a03928316600482015291166024820152604401602060405180830381600087803b1580156200046757600080fd5b505af11580156200047c573d6000803e3d6000fd5b505050506040513d601f19601f82011682018060405250810190620004a291906200081b565b6c01000000000000000000000000600160a060020a03918216810260a05290821602608052600160076000620004e0640100000000620005f3810204565b600160a060020a0316815260208082019290925260409081016000908120805494151560ff1995861617905530815260079092529020805490911660011790556200053364010000000062000591810204565b600160a060020a03166000600160a060020a03167fddf252ad1be2c89b69c2b068fc378daa952ba7f163c4a11628f55a4df523b3ef600b546040516200057b91815260200190565b60405180910390a350505050505050506200093f565b3390565b620005af8282640100000000620017286200060282021704565b6000828152600260205260409020620005d79082640100000000620017326200061b82021704565b505050565b6000620005ea82846200084d565b90505b92915050565b600054600160a060020a031690565b6200061782826401000000006200063b810204565b5050565b6000620005ea83600160a060020a038416640100000000620006da810204565b62000650828264010000000062000732810204565b62000617576000828152600160208181526040808420600160a060020a0386168552909152909120805460ff191690911790556200069664010000000062000591810204565b600160a060020a031681600160a060020a0316837f2f8788117e7eff1d82e926ec794901d17c78024a50270940304540a733656f0d60405160405180910390a45050565b6000620006f183836401000000006200075d810204565b6200072957508154600181810184556000848152602080822090930184905584548482528286019093526040902091909155620005ed565b506000620005ed565b6000918252600160209081526040808420600160a060020a0393909316845291905290205460ff1690565b60009081526001919091016020526040902054151590565b8280546200078390620008a3565b90600052602060002090601f016020900481019282620007a75760008555620007f2565b82601f10620007c257805160ff1916838001178555620007f2565b82800160010185558215620007f2579182015b82811115620007f2578251825591602001919060010190620007d5565b506200080092915062000804565b5090565b5b8082111562000800576000815560010162000805565b6000602082840312156200082e57600080fd5b8151600160a060020a03811681146200084657600080fd5b9392505050565b6000826200085f576200085f62000910565b500490565b6000828210156200089e577f4e487b7100000000000000000000000000000000000000000000000000000000600052601160045260246000fd5b500390565b600281046001821680620008b857607f821691505b60208210811415620008f3577f4e487b7100000000000000000000000000000000000000000000000000000000600052602260045260246000fd5b50919050565b6000826200090b576200090b62000910565b500690565b7f4e487b7100000000000000000000000000000000000000000000000000000000600052601260045260246000fd5b6080516c01000000000000000000000000900460a0516c01000000000000000000000000900461350a620009af600039600081816105ab0152611bdf01526000818161038c0152818161272d015281816127f80152818161284d015281816128bf01526128e6015261350a6000f3fe6080604052600436106102b65760003560e060020a900480635342acb41161017957806391d14854116100e0578063ca15c87311610099578063dd62ed3e11610073578063dd62ed3e14610894578063e63ab1e9146108da578063ea2f0b371461090e578063f2fde38b1461092e57600080fd5b8063ca15c87314610834578063d543dbeb14610854578063d547741f1461087457600080fd5b806391d148541461078a57806395d89b41146107aa578063a217fddf146107bf578063a457c2d7146107d4578063a9059cbb146107f4578063c49b9a801461081457600080fd5b80637d1db4a5116101325780637d1db4a5146106c85780638456cb59146106de57806388f82020146106f35780638da5cb5b1461072c5780638ee88c531461074a5780639010d07c1461076a57600080fd5b80635342acb41461060c57806356e0df32146106455780635c975abb146106655780636bc87c3a1461067d57806370a0823114610693578063715018a6146106b357600080fd5b8063313ce5671161021d5780633f4ba83a116101d65780633f4ba83a14610544578063437823ec146105595780634549b0391461057957806349bd5a5e146105995780634a74bb02146105cd57806352390c02146105ec57600080fd5b8063313ce5671461048c57806336568abe146104ae5780633685d419146104ce57806339509351146104ee5780633b124fe71461050e5780633bd5d1731461052457600080fd5b806318160ddd1161026f57806318160ddd146103c657806323b872dd146103db578063248a9ca3146103fb5780632c7fc9c51461042c5780632d8381191461044c5780632f2ff15d1461046c57600080fd5b806301ffc9a7146102c2578063061c82d0146102f757806306fdde0314610319578063095ea7b31461033b57806313114a9d1461035b5780631694505e1461037a57600080fd5b366102bd57005b600080fd5b3480156102ce57600080fd5b506102e26102dd36600461311e565b61094e565b60405190151581526020015b60405180910390f35b34801561030357600080fd5b506103176103123660046130be565b610992565b005b34801561032557600080fd5b5061032e6109cd565b6040516102ee9190613223565b34801561034757600080fd5b506102e2610356366004613077565b610a5f565b34801561036757600080fd5b50600d545b6040519081526020016102ee565b34801561038657600080fd5b506103ae7f000000000000000000000000000000000000000000000000000000000000000081565b604051600160a060020a0390911681526020016102ee565b3480156103d257600080fd5b50600b5461036c565b3480156103e757600080fd5b506102e26103f6366004613036565b610a75565b34801561040757600080fd5b5061036c6104163660046130be565b6000908152600160208190526040909120015490565b34801561043857600080fd5b50610317610447366004612fc3565b610ade565b34801561045857600080fd5b5061036c6104673660046130be565b610b2f565b34801561047857600080fd5b506103176104873660046130d7565b610bc9565b34801561049857600080fd5b5060105460405160ff90911681526020016102ee565b3480156104ba57600080fd5b506103176104c93660046130d7565b610bf0565b3480156104da57600080fd5b506103176104e9366004612fc3565b610c12565b3480156104fa57600080fd5b506102e2610509366004613077565b610de9565b34801561051a57600080fd5b5061036c60115481565b34801561053057600080fd5b5061031761053f3660046130be565b610e1f565b34801561055057600080fd5b50610317610f1d565b34801561056557600080fd5b50610317610574366004612fc3565b610fc6565b34801561058557600080fd5b5061036c610594366004613148565b611017565b3480156105a557600080fd5b506103ae7f000000000000000000000000000000000000000000000000000000000000000081565b3480156105d957600080fd5b506015546102e290610100900460ff1681565b3480156105f857600080fd5b50610317610607366004612fc3565b6110a7565b34801561061857600080fd5b506102e2610627366004612fc3565b600160a060020a031660009081526007602052604090205460ff1690565b34801561065157600080fd5b50610317610660366004612fc3565b61120d565b34801561067157600080fd5b5060035460ff166102e2565b34801561068957600080fd5b5061036c60135481565b34801561069f57600080fd5b5061036c6106ae366004612fc3565b61125b565b3480156106bf57600080fd5b506103176112ba565b3480156106d457600080fd5b5061036c60165481565b3480156106ea57600080fd5b5061031761133e565b3480156106ff57600080fd5b506102e261070e366004612fc3565b600160a060020a031660009081526008602052604090205460ff1690565b34801561073857600080fd5b50600054600160a060020a03166103ae565b34801561075657600080fd5b506103176107653660046130be565b6113e5565b34801561077657600080fd5b506103ae6107853660046130fc565b611417565b34801561079657600080fd5b506102e26107a53660046130d7565b61142f565b3480156107b657600080fd5b5061032e61145a565b3480156107cb57600080fd5b5061036c600081565b3480156107e057600080fd5b506102e26107ef366004613077565b611469565b34801561080057600080fd5b506102e261080f366004613077565b6114b8565b34801561082057600080fd5b5061031761082f3660046130a3565b6114c5565b34801561084057600080fd5b5061036c61084f3660046130be565b611546565b34801561086057600080fd5b5061031761086f3660046130be565b61155d565b34801561088057600080fd5b5061031761088f3660046130d7565b6115b0565b3480156108a057600080fd5b5061036c6108af366004612ffd565b600160a060020a03918216600090815260066020908152604080832093909416825291909152205490565b3480156108e657600080fd5b5061036c7f65d7a28e3265b37a6474929f336521b332c1681b933f6cb9f3376673440d862a81565b34801561091a57600080fd5b50610317610929366004612fc3565b6115ba565b34801561093a57600080fd5b50610317610949366004612fc3565b611608565b6000600160e060020a031982167f5a05180f00000000000000000000000000000000000000000000000000000000148061098c575061098c82611747565b92915050565b600054600160a060020a031633146109c85760405160e560020a62461bcd0281526004016109bf90613256565b60405180910390fd5b601155565b6060600e80546109dc906133b2565b80601f0160208091040260200160405190810160405280929190818152602001828054610a08906133b2565b8015610a555780601f10610a2a57610100808354040283529160200191610a55565b820191906000526020600020905b815481529060010190602001808311610a3857829003601f168201915b5050505050905090565b6000610a6c3384846117ae565b50600192915050565b6000610a8284848461190c565b610ad48433610acf8560405180606001604052806028815260200161348860289139600160a060020a038a1660009081526006602090815260408083203384529091529020549190611c99565b6117ae565b5060019392505050565b600054600160a060020a03163314610b0b5760405160e560020a62461bcd0281526004016109bf90613256565b600160a060020a03166000908152600960205260409020805460ff19166001179055565b6000600c54821115610bac5760405160e560020a62461bcd02815260206004820152602a60248201527f416d6f756e74206d757374206265206c657373207468616e20746f74616c207260448201527f65666c656374696f6e730000000000000000000000000000000000000000000060648201526084016109bf565b6000610bb6611cc8565b9050610bc2838261171c565b9392505050565b610bd38282611ceb565b6000828152600260205260409020610beb9082611732565b505050565b610bfa8282611d12565b6000828152600260205260409020610beb9082611d9d565b600054600160a060020a03163314610c3f5760405160e560020a62461bcd0281526004016109bf90613256565b600160a060020a03811660009081526008602052604090205460ff16610caa5760405160e560020a62461bcd02815260206004820152601b60248201527f4163636f756e7420697320616c7265616479206578636c75646564000000000060448201526064016109bf565b60005b600a54811015610de55781600160a060020a0316600a8281548110610cd457610cd461343d565b600091825260209091200154600160a060020a03161415610dd357600a8054610cff90600190613358565b81548110610d0f57610d0f61343d565b600091825260209091200154600a8054600160a060020a039092169183908110610d3b57610d3b61343d565b6000918252602080832091909101805473ffffffffffffffffffffffffffffffffffffffff1916600160a060020a039485161790559184168152600582526040808220829055600890925220805460ff19169055600a805480610da057610da0613424565b6000828152602090208101600019908101805473ffffffffffffffffffffffffffffffffffffffff191690550190555050565b80610ddd816133f0565b915050610cad565b5050565b336000818152600660209081526040808320600160a060020a03871684529091528120549091610a6c918590610acf9086611db2565b3360008181526008602052604090205460ff1615610ea85760405160e560020a62461bcd02815260206004820152602c60248201527f4578636c75646564206164647265737365732063616e6e6f742063616c6c207460448201527f6869732066756e6374696f6e000000000000000000000000000000000000000060648201526084016109bf565b6000610eb383611dbe565b50505050600160a060020a038416600090815260046020526040902054919250610edf91905082611e0d565b600160a060020a038316600090815260046020526040902055600c54610f059082611e0d565b600c55600d54610f159084611db2565b600d55505050565b610f477f65d7a28e3265b37a6474929f336521b332c1681b933f6cb9f3376673440d862a3361142f565b610fbc5760405160e560020a62461bcd02815260206004820152602d60248201527f48756e67727950616e64613a206d75737420686176652070617573657220726f60448201527f6c6520746f20756e70617573650000000000000000000000000000000000000060648201526084016109bf565b610fc4611e19565b565b600054600160a060020a03163314610ff35760405160e560020a62461bcd0281526004016109bf90613256565b600160a060020a03166000908152600760205260409020805460ff19166001179055565b6000600b5483111561106e5760405160e560020a62461bcd02815260206004820152601f60248201527f416d6f756e74206d757374206265206c657373207468616e20737570706c790060448201526064016109bf565b8161108d57600061107e84611dbe565b5093955061098c945050505050565b600061109884611dbe565b5092955061098c945050505050565b600054600160a060020a031633146110d45760405160e560020a62461bcd0281526004016109bf90613256565b600160a060020a03811660009081526008602052604090205460ff16156111405760405160e560020a62461bcd02815260206004820152601b60248201527f4163636f756e7420697320616c7265616479206578636c75646564000000000060448201526064016109bf565b600160a060020a0381166000908152600460205260409020541561119a57600160a060020a03811660009081526004602052604090205461118090610b2f565b600160a060020a0382166000908152600560205260409020555b600160a060020a03166000818152600860205260408120805460ff19166001908117909155600a805491820181559091527fc65a7bb8d6351c1cf70c95a316cc6a92839c986682d98bc35f958f4883f9d2a801805473ffffffffffffffffffffffffffffffffffffffff19169091179055565b600054600160a060020a0316331461123a5760405160e560020a62461bcd0281526004016109bf90613256565b600160a060020a03166000908152600960205260409020805460ff19169055565b600160a060020a03811660009081526008602052604081205460ff16156112985750600160a060020a031660009081526005602052604090205490565b600160a060020a03821660009081526004602052604090205461098c90610b2f565b600054600160a060020a031633146112e75760405160e560020a62461bcd0281526004016109bf90613256565b60008054604051600160a060020a03909116907f8be0079c531659141344cd1fd0a4f28419497f9722a3daafe3b4186f6b6457e0908390a36000805473ffffffffffffffffffffffffffffffffffffffff19169055565b6113687f65d7a28e3265b37a6474929f336521b332c1681b933f6cb9f3376673440d862a3361142f565b6113dd5760405160e560020a62461bcd02815260206004820152602b60248201527f48756e67727950616e64613a206d75737420686176652070617573657220726f60448201527f6c6520746f20706175736500000000000000000000000000000000000000000060648201526084016109bf565b610fc4611eb8565b600054600160a060020a031633146114125760405160e560020a62461bcd0281526004016109bf90613256565b601355565b6000828152600260205260408120610bc29083611f43565b6000918252600160209081526040808420600160a060020a0393909316845291905290205460ff1690565b6060600f80546109dc906133b2565b6000610a6c3384610acf856040518060600160405280602581526020016134b060259139336000908152600660209081526040808320600160a060020a038d1684529091529020549190611c99565b6000610a6c33848461190c565b600054600160a060020a031633146114f25760405160e560020a62461bcd0281526004016109bf90613256565b601580548215156101000261ff00199091161790556040517f53726dfcaf90650aa7eb35524f4d3220f07413c8d6cb404cc8c18bf5591bc1599061153b90831515815260200190565b60405180910390a150565b600081815260026020526040812061098c90611f4f565b600054600160a060020a0316331461158a5760405160e560020a62461bcd0281526004016109bf90613256565b6115aa60646115a483600b54611f5990919063ffffffff16565b9061171c565b60165550565b610bfa8282611f65565b600054600160a060020a031633146115e75760405160e560020a62461bcd0281526004016109bf90613256565b600160a060020a03166000908152600760205260409020805460ff19169055565b600054600160a060020a031633146116355760405160e560020a62461bcd0281526004016109bf90613256565b600160a060020a0381166116b45760405160e560020a62461bcd02815260206004820152602660248201527f4f776e61626c653a206e6577206f776e657220697320746865207a65726f206160448201527f646472657373000000000000000000000000000000000000000000000000000060648201526084016109bf565b60008054604051600160a060020a03808516939216917f8be0079c531659141344cd1fd0a4f28419497f9722a3daafe3b4186f6b6457e091a36000805473ffffffffffffffffffffffffffffffffffffffff1916600160a060020a0392909216919091179055565b6000610bc28284613314565b610de58282611f8c565b6000610bc283600160a060020a038416611ff7565b6000600160e060020a031982167f7965db0b00000000000000000000000000000000000000000000000000000000148061098c57507f01ffc9a700000000000000000000000000000000000000000000000000000000600160e060020a031983161461098c565b600160a060020a03831661182c5760405160e560020a62461bcd028152602060048201526024808201527f45524332303a20617070726f76652066726f6d20746865207a65726f2061646460448201527f726573730000000000000000000000000000000000000000000000000000000060648201526084016109bf565b600160a060020a0382166118ab5760405160e560020a62461bcd02815260206004820152602260248201527f45524332303a20617070726f766520746f20746865207a65726f20616464726560448201527f737300000000000000000000000000000000000000000000000000000000000060648201526084016109bf565b600160a060020a0383811660008181526006602090815260408083209487168084529482529182902085905590518481527f8c5be1e5ebec7d5bd14f71427d1e84f3dd0314c0f7b2291e5b200ac8c7c3b925910160405180910390a3505050565b60035460ff16158061193257503360009081526009602052604090205460ff1615156001145b6119815760405160e560020a62461bcd02815260206004820152600660248201527f706175736564000000000000000000000000000000000000000000000000000060448201526064016109bf565b600160a060020a038316611a005760405160e560020a62461bcd02815260206004820152602560248201527f45524332303a207472616e736665722066726f6d20746865207a65726f20616460448201527f647265737300000000000000000000000000000000000000000000000000000060648201526084016109bf565b600160a060020a038216611a7f5760405160e560020a62461bcd02815260206004820152602360248201527f45524332303a207472616e7366657220746f20746865207a65726f206164647260448201527f657373000000000000000000000000000000000000000000000000000000000060648201526084016109bf565b60008111611af85760405160e560020a62461bcd02815260206004820152602960248201527f5472616e7366657220616d6f756e74206d75737420626520677265617465722060448201527f7468616e207a65726f000000000000000000000000000000000000000000000060648201526084016109bf565b600054600160a060020a03848116911614801590611b245750600054600160a060020a03838116911614155b15611ba457601654811115611ba45760405160e560020a62461bcd02815260206004820152602860248201527f5472616e7366657220616d6f756e74206578636565647320746865206d61785460448201527f78416d6f756e742e00000000000000000000000000000000000000000000000060648201526084016109bf565b6000611baf3061125b565b90506016548110611bbf57506016545b60175481108015908190611bd6575060155460ff16155b8015611c1457507f0000000000000000000000000000000000000000000000000000000000000000600160a060020a031685600160a060020a031614155b8015611c275750601554610100900460ff165b15611c3a576017549150611c3a82612046565b600160a060020a03851660009081526007602052604090205460019060ff1680611c7c5750600160a060020a03851660009081526007602052604090205460ff165b15611c85575060005b611c91868686846120e6565b505050505050565b60008184841115611cc05760405160e560020a62461bcd0281526004016109bf9190613223565b505050900390565b6000806000611cd5612263565b9092509050611ce4828261171c565b9250505090565b60008281526001602081905260409091200154611d0881336123e5565b610beb8383611f8c565b600160a060020a0381163314611d935760405160e560020a62461bcd02815260206004820152602f60248201527f416363657373436f6e74726f6c3a2063616e206f6e6c792072656e6f756e636560448201527f20726f6c657320666f722073656c66000000000000000000000000000000000060648201526084016109bf565b610de5828261244c565b6000610bc283600160a060020a0384166124b3565b6000610bc282846132fc565b6000806000806000806000806000611dd58a6125a0565b9250925092506000806000611df38d8686611dee611cc8565b6125e2565b919f909e50909c50959a5093985091965092945050505050565b6000610bc28284613358565b60035460ff16611e6e5760405160e560020a62461bcd02815260206004820152601460248201527f5061757361626c653a206e6f742070617573656400000000000000000000000060448201526064016109bf565b6003805460ff191690557f5db9ee0a495bf2e6ff9c91a7834c1ba4fdd244a5e8aa4e537bd38aeae4b073aa335b604051600160a060020a03909116815260200160405180910390a1565b60035460ff1615611f0e5760405160e560020a62461bcd02815260206004820152601060248201527f5061757361626c653a207061757365640000000000000000000000000000000060448201526064016109bf565b6003805460ff191660011790557f62e78cea01bee320cd4e420270b5ea74000d11b0c9f74754ebdbfc544b05a258611e9b3390565b6000610bc28383612632565b600061098c825490565b6000610bc28284613339565b60008281526001602081905260409091200154611f8281336123e5565b610beb838361244c565b611f96828261142f565b610de5576000828152600160208181526040808420600160a060020a0386168086529252808420805460ff19169093179092559051339285917f2f8788117e7eff1d82e926ec794901d17c78024a50270940304540a733656f0d9190a45050565b600081815260018301602052604081205461203e5750815460018181018455600084815260208082209093018490558454848252828601909352604090209190915561098c565b50600061098c565b6015805460ff19166001179055600061206082600261171c565b9050600061206e8383611e0d565b9050303161207b836126d6565b6000612088303183611e0d565b905061209483826128b9565b60408051858152602081018390529081018490527f17bbfb9a6069321b6ded73bd96327c9e6b7212a5cd51ff219cd61370acafb5619060600160405180910390a150506015805460ff19169055505050565b806120f3576120f36129cc565b600160a060020a03841660009081526008602052604090205460ff1680156121345750600160a060020a03831660009081526008602052604090205460ff16155b15612149576121448484846129fa565b612247565b600160a060020a03841660009081526008602052604090205460ff1615801561218a5750600160a060020a03831660009081526008602052604090205460ff165b1561219a57612144848484612b20565b600160a060020a03841660009081526008602052604090205460ff161580156121dc5750600160a060020a03831660009081526008602052604090205460ff16155b156121ec57612144848484612bc9565b600160a060020a03841660009081526008602052604090205460ff16801561222c5750600160a060020a03831660009081526008602052604090205460ff165b1561223c57612144848484612c0d565b612247848484612bc9565b8061225d5761225d601254601155601454601355565b50505050565b600c54600b546000918291825b600a548110156123b5578260046000600a84815481106122925761229261343d565b6000918252602080832090910154600160a060020a0316835282019290925260400190205411806122fd57508160056000600a84815481106122d6576122d661343d565b6000918252602080832090910154600160a060020a03168352820192909252604001902054115b1561231357600c54600b54945094505050509091565b61235960046000600a848154811061232d5761232d61343d565b6000918252602080832090910154600160a060020a031683528201929092526040019020548490611e0d565b92506123a160056000600a84815481106123755761237561343d565b6000918252602080832090910154600160a060020a031683528201929092526040019020548390611e0d565b9150806123ad816133f0565b915050612270565b50600b54600c546123c59161171c565b8210156123dc57600c54600b549350935050509091565b90939092509050565b6123ef828261142f565b610de55761240781600160a060020a03166014612c80565b612412836020612c80565b6040516020016124239291906131a2565b60408051601f198184030181529082905260e560020a62461bcd0282526109bf91600401613223565b612456828261142f565b15610de5576000828152600160209081526040808320600160a060020a0385168085529252808320805460ff1916905551339285917ff6391f5c32d9c69d2a47ea670b442974b53935d1edc7fd64eb21e047a839171b9190a45050565b600081815260018301602052604081205480156125965760006124d7600183613358565b85549091506000906124eb90600190613358565b905060008660000182815481106125045761250461343d565b90600052602060002001549050808760000184815481106125275761252761343d565b60009182526020808320909101929092558281526001890190915260409020849055865487908061255a5761255a613424565b6001900381819060005260206000200160009055905586600101600087815260200190815260200160002060009055600194505050505061098c565b600091505061098c565b6000806000806125af85612eca565b905060006125bc86612ee6565b905060006125d4826125ce8986611e0d565b90611e0d565b979296509094509092505050565b60008080806125f18886611f59565b905060006125ff8887611f59565b9050600061260d8888611f59565b9050600061261f826125ce8686611e0d565b939b939a50919850919650505050505050565b815460009082106126ae5760405160e560020a62461bcd02815260206004820152602260248201527f456e756d657261626c655365743a20696e646578206f7574206f6620626f756e60448201527f647300000000000000000000000000000000000000000000000000000000000060648201526084016109bf565b8260000182815481106126c3576126c361343d565b9060005260206000200154905092915050565b604080516002808252606082018352600092602083019080368337019050509050308160008151811061270b5761270b61343d565b6020026020010190600160a060020a03169081600160a060020a0316815250507f0000000000000000000000000000000000000000000000000000000000000000600160a060020a031663ad5c46486040518163ffffffff1660e060020a02815260040160206040518083038186803b15801561278757600080fd5b505afa15801561279b573d6000803e3d6000fd5b505050506040513d601f19601f820116820180604052508101906127bf9190612fe0565b816001815181106127d2576127d261343d565b6020026020010190600160a060020a03169081600160a060020a03168152505061281d307f0000000000000000000000000000000000000000000000000000000000000000846117ae565b6040517f791ac947000000000000000000000000000000000000000000000000000000008152600160a060020a037f0000000000000000000000000000000000000000000000000000000000000000169063791ac9479061288b90859060009086903090429060040161328b565b600060405180830381600087803b1580156128a557600080fd5b505af1158015611c91573d6000803e3d6000fd5b6128e4307f0000000000000000000000000000000000000000000000000000000000000000846117ae565b7f0000000000000000000000000000000000000000000000000000000000000000600160a060020a031663f305d71982308560008061292b600054600160a060020a031690565b60405163ffffffff881660e060020a028152600160a060020a03958616600482015260248101949094526044840192909252606483015290911660848201524260a482015260c4016060604051808303818588803b15801561298c57600080fd5b505af11580156129a0573d6000803e3d6000fd5b50505050506040513d601f19601f820116820180604052508101906129c59190613174565b5050505050565b6011541580156129dc5750601354155b156129e357565b601180546012556013805460145560009182905555565b600080600080600080612a0c87611dbe565b600160a060020a038f16600090815260056020526040902054959b50939950919750955093509150612a3e9088611e0d565b600160a060020a038a16600090815260056020908152604080832093909355600490522054612a6d9087611e0d565b600160a060020a03808b1660009081526004602052604080822093909355908a1681522054612a9c9086611db2565b600160a060020a038916600090815260046020526040902055612abe81612f02565b612ac88483612f8a565b87600160a060020a031689600160a060020a03167fddf252ad1be2c89b69c2b068fc378daa952ba7f163c4a11628f55a4df523b3ef85604051612b0d91815260200190565b60405180910390a3505050505050505050565b600080600080600080612b3287611dbe565b600160a060020a038f16600090815260046020526040902054959b50939950919750955093509150612b649087611e0d565b600160a060020a03808b16600090815260046020908152604080832094909455918b16815260059091522054612b9a9084611db2565b600160a060020a038916600090815260056020908152604080832093909355600490522054612a9c9086611db2565b600080600080600080612bdb87611dbe565b600160a060020a038f16600090815260046020526040902054959b50939950919750955093509150612a6d9087611e0d565b600080600080600080612c1f87611dbe565b600160a060020a038f16600090815260056020526040902054959b50939950919750955093509150612c519088611e0d565b600160a060020a038a16600090815260056020908152604080832093909355600490522054612b649087611e0d565b60606000612c8f836002613339565b612c9a9060026132fc565b67ffffffffffffffff811115612cb257612cb2613456565b6040519080825280601f01601f191660200182016040528015612cdc576020820181803683370190505b5090507f300000000000000000000000000000000000000000000000000000000000000081600081518110612d1357612d1361343d565b60200101907effffffffffffffffffffffffffffffffffffffffffffffffffffffffffffff1916908160001a9053507f780000000000000000000000000000000000000000000000000000000000000081600181518110612d7657612d7661343d565b60200101907effffffffffffffffffffffffffffffffffffffffffffffffffffffffffffff1916908160001a9053506000612db2846002613339565b612dbd9060016132fc565b90505b6001811115612e78577f303132333435363738396162636465660000000000000000000000000000000085600f1660108110612dfe57612dfe61343d565b1a7f010000000000000000000000000000000000000000000000000000000000000002828281518110612e3357612e3361343d565b60200101907effffffffffffffffffffffffffffffffffffffffffffffffffffffffffffff1916908160001a905350601090940493612e718161339b565b9050612dc0565b508315610bc25760405160e560020a62461bcd02815260206004820181905260248201527f537472696e67733a20686578206c656e67746820696e73756666696369656e7460448201526064016109bf565b600061098c60646115a460115485611f5990919063ffffffff16565b600061098c60646115a460135485611f5990919063ffffffff16565b6000612f0c611cc8565b90506000612f1a8383611f59565b30600090815260046020526040902054909150612f379082611db2565b3060009081526004602090815260408083209390935560089052205460ff1615610beb5730600090815260056020526040902054612f759084611db2565b30600090815260056020526040902055505050565b600c54612f979083611e0d565b600c55600d54612fa79082611db2565b600d555050565b80358015158114612fbe57600080fd5b919050565b600060208284031215612fd557600080fd5b8135610bc28161346f565b600060208284031215612ff257600080fd5b8151610bc28161346f565b6000806040838503121561301057600080fd5b823561301b8161346f565b9150602083013561302b8161346f565b809150509250929050565b60008060006060848603121561304b57600080fd5b83356130568161346f565b925060208401356130668161346f565b929592945050506040919091013590565b6000806040838503121561308a57600080fd5b82356130958161346f565b946020939093013593505050565b6000602082840312156130b557600080fd5b610bc282612fae565b6000602082840312156130d057600080fd5b5035919050565b600080604083850312156130ea57600080fd5b82359150602083013561302b8161346f565b6000806040838503121561310f57600080fd5b50508035926020909101359150565b60006020828403121561313057600080fd5b8135600160e060020a031981168114610bc257600080fd5b6000806040838503121561315b57600080fd5b8235915061316b60208401612fae565b90509250929050565b60008060006060848603121561318957600080fd5b8351925060208401519150604084015190509250925092565b7f416363657373436f6e74726f6c3a206163636f756e74200000000000000000008152600083516131da81601785016020880161336f565b7f206973206d697373696e6720726f6c6520000000000000000000000000000000601791840191820152835161321781602884016020880161336f565b01602801949350505050565b602081526000825180602084015261324281604085016020870161336f565b601f01601f19169190910160400192915050565b6020808252818101527f4f776e61626c653a2063616c6c6572206973206e6f7420746865206f776e6572604082015260600190565b600060a082018783526020878185015260a0604085015281875180845260c086019150828901935060005b818110156132db578451600160a060020a0316835293830193918301916001016132b6565b5050600160a060020a03969096166060850152505050608001529392505050565b6000821982111561330f5761330f61340b565b500190565b6000826133345760e060020a634e487b7102600052601260045260246000fd5b500490565b60008160001904831182151516156133535761335361340b565b500290565b60008282101561336a5761336a61340b565b500390565b60005b8381101561338a578181015183820152602001613372565b8381111561225d5750506000910152565b6000816133aa576133aa61340b565b506000190190565b6002810460018216806133c657607f821691505b602082108114156133ea5760e060020a634e487b7102600052602260045260246000fd5b50919050565b60006000198214156134045761340461340b565b5060010190565b60e060020a634e487b7102600052601160045260246000fd5b60e060020a634e487b7102600052603160045260246000fd5b60e060020a634e487b7102600052603260045260246000fd5b60e060020a634e487b7102600052604160045260246000fd5b600160a060020a038116811461348457600080fd5b5056fe45524332303a207472616e7366657220616d6f756e74206578636565647320616c6c6f77616e636545524332303a2064656372656173656420616c6c6f77616e63652062656c6f77207a65726fa2646970667358221220477b5fb83127a03ba20fbda6b5f295f07e4428a69a59df88732fe29bdfbce99964736f6c63430008050033",
  "immutableReferences": {
    "358": [
      {
        "length": 32,
        "start": 908
      },
      {
        "length": 32,
        "start": 10029
      },
      {
        "length": 32,
        "start": 10232
      },
      {
        "length": 32,
        "start": 10317
      },
      {
        "length": 32,
        "start": 10431
      },
      {
        "length": 32,
        "start": 10470
      }
    ],
    "360": [
      {
        "length": 32,
        "start": 1451
      },
      {
        "length": 32,
        "start": 7135
      }
    ]
  },
  "source": "// SPDX-License-Identifier: MIT\npragma solidity >=0.8.4 <0.9.0;\n\nimport \"./GenericToken.sol\";\n\ncontract PandaToken is GenericToken {\n    constructor(address _router) \n    GenericToken(\n        \"Hungry Panda Token\",\n        \"HUNGRYPANDA\",\n        10000000000 * 10**3 * 10**9,\n        7,\n        10,\n        _router\n    ){}\n}",
  "sourcePath": "C:/Users/skyne/Dev/work/skynet/HungryPandaHome/hungrypanda-token/contracts/PandaToken.sol",
  "compiler": {
    "name": "solc",
    "version": "0.8.5+commit.a4f2e591.Emscripten.clang"
  },
  "schemaVersion": "3.4.1",
  "updatedAt": "2021-06-12T15:17:21.600Z",
  "networkType": "ethereum",
  "devdoc": {
    "kind": "dev",
    "methods": {
      "approve(address,uint256)": {
        "details": "Sets `amount` as the allowance of `spender` over the caller's tokens. Returns a boolean value indicating whether the operation succeeded. IMPORTANT: Beware that changing an allowance with this method brings the risk that someone may use both the old and the new allowance by unfortunate transaction ordering. One possible solution to mitigate this race condition is to first reduce the spender's allowance to 0 and set the desired value afterwards: https://github.com/ethereum/EIPs/issues/20#issuecomment-263524729 Emits an {Approval} event."
      },
      "balanceOf(address)": {
        "details": "Returns the amount of tokens owned by `account`."
      },
      "getRoleAdmin(bytes32)": {
        "details": "Returns the admin role that controls `role`. See {grantRole} and {revokeRole}. To change a role's admin, use {_setRoleAdmin}."
      },
      "getRoleMember(bytes32,uint256)": {
        "details": "Returns one of the accounts that have `role`. `index` must be a value between 0 and {getRoleMemberCount}, non-inclusive. Role bearers are not sorted in any particular way, and their ordering may change at any point. WARNING: When using {getRoleMember} and {getRoleMemberCount}, make sure you perform all queries on the same block. See the following https://forum.openzeppelin.com/t/iterating-over-elements-on-enumerableset-in-openzeppelin-contracts/2296[forum post] for more information."
      },
      "getRoleMemberCount(bytes32)": {
        "details": "Returns the number of accounts that have `role`. Can be used together with {getRoleMember} to enumerate all bearers of a role."
      },
      "grantRole(bytes32,address)": {
        "details": "Overload {grantRole} to track enumerable memberships"
      },
      "hasRole(bytes32,address)": {
        "details": "Returns `true` if `account` has been granted `role`."
      },
      "owner()": {
        "details": "Returns the address of the current owner."
      },
      "paused()": {
        "details": "Returns true if the contract is paused, and false otherwise."
      },
      "renounceOwnership()": {
        "details": "Leaves the contract without owner. It will not be possible to call `onlyOwner` functions anymore. Can only be called by the current owner. NOTE: Renouncing ownership will leave the contract without an owner, thereby removing any functionality that is only available to the owner."
      },
      "renounceRole(bytes32,address)": {
        "details": "Overload {renounceRole} to track enumerable memberships"
      },
      "revokeRole(bytes32,address)": {
        "details": "Overload {revokeRole} to track enumerable memberships"
      },
      "supportsInterface(bytes4)": {
        "details": "See {IERC165-supportsInterface}."
      },
      "totalSupply()": {
        "details": "Returns the amount of tokens in existence."
      },
      "transfer(address,uint256)": {
        "details": "Moves `amount` tokens from the caller's account to `recipient`. Returns a boolean value indicating whether the operation succeeded. Emits a {Transfer} event."
      },
      "transferFrom(address,address,uint256)": {
        "details": "Moves `amount` tokens from `sender` to `recipient` using the allowance mechanism. `amount` is then deducted from the caller's allowance. Returns a boolean value indicating whether the operation succeeded. Emits a {Transfer} event."
      },
      "transferOwnership(address)": {
        "details": "Transfers ownership of the contract to a new account (`newOwner`). Can only be called by the current owner."
      }
    },
    "version": 1
  },
  "userdoc": {
    "kind": "user",
    "methods": {},
    "version": 1
  }
}