{
  "contractName": "PandaToken",
  "abi": [
    {
      "inputs": [
        {
          "internalType": "address",
          "name": "_router",
          "type": "address"
        }
      ],
      "stateMutability": "nonpayable",
      "type": "constructor"
    },
    {
      "anonymous": false,
      "inputs": [
        {
          "indexed": true,
          "internalType": "address",
          "name": "owner",
          "type": "address"
        },
        {
          "indexed": true,
          "internalType": "address",
          "name": "spender",
          "type": "address"
        },
        {
          "indexed": false,
          "internalType": "uint256",
          "name": "value",
          "type": "uint256"
        }
      ],
      "name": "Approval",
      "type": "event"
    },
    {
      "anonymous": false,
      "inputs": [
        {
          "indexed": false,
          "internalType": "uint256",
          "name": "minTokensBeforeSwap",
          "type": "uint256"
        }
      ],
      "name": "MinTokensBeforeSwapUpdated",
      "type": "event"
    },
    {
      "anonymous": false,
      "inputs": [
        {
          "indexed": true,
          "internalType": "address",
          "name": "previousOwner",
          "type": "address"
        },
        {
          "indexed": true,
          "internalType": "address",
          "name": "newOwner",
          "type": "address"
        }
      ],
      "name": "OwnershipTransferred",
      "type": "event"
    },
    {
      "anonymous": false,
      "inputs": [
        {
          "indexed": false,
          "internalType": "address",
          "name": "account",
          "type": "address"
        }
      ],
      "name": "Paused",
      "type": "event"
    },
    {
      "anonymous": false,
      "inputs": [
        {
          "indexed": true,
          "internalType": "bytes32",
          "name": "role",
          "type": "bytes32"
        },
        {
          "indexed": true,
          "internalType": "bytes32",
          "name": "previousAdminRole",
          "type": "bytes32"
        },
        {
          "indexed": true,
          "internalType": "bytes32",
          "name": "newAdminRole",
          "type": "bytes32"
        }
      ],
      "name": "RoleAdminChanged",
      "type": "event"
    },
    {
      "anonymous": false,
      "inputs": [
        {
          "indexed": true,
          "internalType": "bytes32",
          "name": "role",
          "type": "bytes32"
        },
        {
          "indexed": true,
          "internalType": "address",
          "name": "account",
          "type": "address"
        },
        {
          "indexed": true,
          "internalType": "address",
          "name": "sender",
          "type": "address"
        }
      ],
      "name": "RoleGranted",
      "type": "event"
    },
    {
      "anonymous": false,
      "inputs": [
        {
          "indexed": true,
          "internalType": "bytes32",
          "name": "role",
          "type": "bytes32"
        },
        {
          "indexed": true,
          "internalType": "address",
          "name": "account",
          "type": "address"
        },
        {
          "indexed": true,
          "internalType": "address",
          "name": "sender",
          "type": "address"
        }
      ],
      "name": "RoleRevoked",
      "type": "event"
    },
    {
      "anonymous": false,
      "inputs": [
        {
          "indexed": false,
          "internalType": "uint256",
          "name": "tokensSwapped",
          "type": "uint256"
        },
        {
          "indexed": false,
          "internalType": "uint256",
          "name": "ethReceived",
          "type": "uint256"
        },
        {
          "indexed": false,
          "internalType": "uint256",
          "name": "tokensIntoLiqudity",
          "type": "uint256"
        }
      ],
      "name": "SwapAndLiquify",
      "type": "event"
    },
    {
      "anonymous": false,
      "inputs": [
        {
          "indexed": false,
          "internalType": "bool",
          "name": "enabled",
          "type": "bool"
        }
      ],
      "name": "SwapAndLiquifyEnabledUpdated",
      "type": "event"
    },
    {
      "anonymous": false,
      "inputs": [
        {
          "indexed": true,
          "internalType": "address",
          "name": "from",
          "type": "address"
        },
        {
          "indexed": true,
          "internalType": "address",
          "name": "to",
          "type": "address"
        },
        {
          "indexed": false,
          "internalType": "uint256",
          "name": "value",
          "type": "uint256"
        }
      ],
      "name": "Transfer",
      "type": "event"
    },
    {
      "anonymous": false,
      "inputs": [
        {
          "indexed": false,
          "internalType": "address",
          "name": "account",
          "type": "address"
        }
      ],
      "name": "Unpaused",
      "type": "event"
    },
    {
      "inputs": [],
      "name": "DEFAULT_ADMIN_ROLE",
      "outputs": [
        {
          "internalType": "bytes32",
          "name": "",
          "type": "bytes32"
        }
      ],
      "stateMutability": "view",
      "type": "function"
    },
    {
      "inputs": [],
      "name": "PAUSER_ROLE",
      "outputs": [
        {
          "internalType": "bytes32",
          "name": "",
          "type": "bytes32"
        }
      ],
      "stateMutability": "view",
      "type": "function"
    },
    {
      "inputs": [],
      "name": "_liquidityFee",
      "outputs": [
        {
          "internalType": "uint256",
          "name": "",
          "type": "uint256"
        }
      ],
      "stateMutability": "view",
      "type": "function"
    },
    {
      "inputs": [],
      "name": "_maxTxAmount",
      "outputs": [
        {
          "internalType": "uint256",
          "name": "",
          "type": "uint256"
        }
      ],
      "stateMutability": "view",
      "type": "function"
    },
    {
      "inputs": [],
      "name": "_taxFee",
      "outputs": [
        {
          "internalType": "uint256",
          "name": "",
          "type": "uint256"
        }
      ],
      "stateMutability": "view",
      "type": "function"
    },
    {
      "inputs": [
        {
          "internalType": "address",
          "name": "_target",
          "type": "address"
        },
        {
          "internalType": "uint256",
          "name": "_maxAmount",
          "type": "uint256"
        }
      ],
      "name": "addUnpausable",
      "outputs": [],
      "stateMutability": "nonpayable",
      "type": "function"
    },
    {
      "inputs": [
        {
          "internalType": "address",
          "name": "_owner",
          "type": "address"
        },
        {
          "internalType": "address",
          "name": "spender",
          "type": "address"
        }
      ],
      "name": "allowance",
      "outputs": [
        {
          "internalType": "uint256",
          "name": "",
          "type": "uint256"
        }
      ],
      "stateMutability": "view",
      "type": "function"
    },
    {
      "inputs": [
        {
          "internalType": "address",
          "name": "spender",
          "type": "address"
        },
        {
          "internalType": "uint256",
          "name": "amount",
          "type": "uint256"
        }
      ],
      "name": "approve",
      "outputs": [
        {
          "internalType": "bool",
          "name": "",
          "type": "bool"
        }
      ],
      "stateMutability": "nonpayable",
      "type": "function"
    },
    {
      "inputs": [
        {
          "internalType": "address",
          "name": "account",
          "type": "address"
        }
      ],
      "name": "balanceOf",
      "outputs": [
        {
          "internalType": "uint256",
          "name": "",
          "type": "uint256"
        }
      ],
      "stateMutability": "view",
      "type": "function"
    },
    {
      "inputs": [],
      "name": "decimals",
      "outputs": [
        {
          "internalType": "uint8",
          "name": "",
          "type": "uint8"
        }
      ],
      "stateMutability": "view",
      "type": "function"
    },
    {
      "inputs": [
        {
          "internalType": "address",
          "name": "spender",
          "type": "address"
        },
        {
          "internalType": "uint256",
          "name": "subtractedValue",
          "type": "uint256"
        }
      ],
      "name": "decreaseAllowance",
      "outputs": [
        {
          "internalType": "bool",
          "name": "",
          "type": "bool"
        }
      ],
      "stateMutability": "nonpayable",
      "type": "function"
    },
    {
      "inputs": [
        {
          "internalType": "address",
          "name": "_target",
          "type": "address"
        }
      ],
      "name": "delUnpausable",
      "outputs": [],
      "stateMutability": "nonpayable",
      "type": "function"
    },
    {
      "inputs": [
        {
          "internalType": "uint256",
          "name": "tAmount",
          "type": "uint256"
        }
      ],
      "name": "deliver",
      "outputs": [],
      "stateMutability": "nonpayable",
      "type": "function"
    },
    {
      "inputs": [
        {
          "internalType": "address",
          "name": "account",
          "type": "address"
        }
      ],
      "name": "excludeFromFee",
      "outputs": [],
      "stateMutability": "nonpayable",
      "type": "function"
    },
    {
      "inputs": [
        {
          "internalType": "address",
          "name": "account",
          "type": "address"
        }
      ],
      "name": "excludeFromReward",
      "outputs": [],
      "stateMutability": "nonpayable",
      "type": "function"
    },
    {
      "inputs": [
        {
          "internalType": "bytes32",
          "name": "role",
          "type": "bytes32"
        }
      ],
      "name": "getRoleAdmin",
      "outputs": [
        {
          "internalType": "bytes32",
          "name": "",
          "type": "bytes32"
        }
      ],
      "stateMutability": "view",
      "type": "function"
    },
    {
      "inputs": [
        {
          "internalType": "bytes32",
          "name": "role",
          "type": "bytes32"
        },
        {
          "internalType": "uint256",
          "name": "index",
          "type": "uint256"
        }
      ],
      "name": "getRoleMember",
      "outputs": [
        {
          "internalType": "address",
          "name": "",
          "type": "address"
        }
      ],
      "stateMutability": "view",
      "type": "function"
    },
    {
      "inputs": [
        {
          "internalType": "bytes32",
          "name": "role",
          "type": "bytes32"
        }
      ],
      "name": "getRoleMemberCount",
      "outputs": [
        {
          "internalType": "uint256",
          "name": "",
          "type": "uint256"
        }
      ],
      "stateMutability": "view",
      "type": "function"
    },
    {
      "inputs": [
        {
          "internalType": "bytes32",
          "name": "role",
          "type": "bytes32"
        },
        {
          "internalType": "address",
          "name": "account",
          "type": "address"
        }
      ],
      "name": "grantRole",
      "outputs": [],
      "stateMutability": "nonpayable",
      "type": "function"
    },
    {
      "inputs": [
        {
          "internalType": "bytes32",
          "name": "role",
          "type": "bytes32"
        },
        {
          "internalType": "address",
          "name": "account",
          "type": "address"
        }
      ],
      "name": "hasRole",
      "outputs": [
        {
          "internalType": "bool",
          "name": "",
          "type": "bool"
        }
      ],
      "stateMutability": "view",
      "type": "function"
    },
    {
      "inputs": [
        {
          "internalType": "address",
          "name": "account",
          "type": "address"
        }
      ],
      "name": "includeInFee",
      "outputs": [],
      "stateMutability": "nonpayable",
      "type": "function"
    },
    {
      "inputs": [
        {
          "internalType": "address",
          "name": "account",
          "type": "address"
        }
      ],
      "name": "includeInReward",
      "outputs": [],
      "stateMutability": "nonpayable",
      "type": "function"
    },
    {
      "inputs": [
        {
          "internalType": "address",
          "name": "spender",
          "type": "address"
        },
        {
          "internalType": "uint256",
          "name": "addedValue",
          "type": "uint256"
        }
      ],
      "name": "increaseAllowance",
      "outputs": [
        {
          "internalType": "bool",
          "name": "",
          "type": "bool"
        }
      ],
      "stateMutability": "nonpayable",
      "type": "function"
    },
    {
      "inputs": [
        {
          "internalType": "address",
          "name": "account",
          "type": "address"
        }
      ],
      "name": "isExcludedFromFee",
      "outputs": [
        {
          "internalType": "bool",
          "name": "",
          "type": "bool"
        }
      ],
      "stateMutability": "view",
      "type": "function"
    },
    {
      "inputs": [
        {
          "internalType": "address",
          "name": "account",
          "type": "address"
        }
      ],
      "name": "isExcludedFromReward",
      "outputs": [
        {
          "internalType": "bool",
          "name": "",
          "type": "bool"
        }
      ],
      "stateMutability": "view",
      "type": "function"
    },
    {
      "inputs": [],
      "name": "name",
      "outputs": [
        {
          "internalType": "string",
          "name": "",
          "type": "string"
        }
      ],
      "stateMutability": "view",
      "type": "function"
    },
    {
      "inputs": [],
      "name": "owner",
      "outputs": [
        {
          "internalType": "address",
          "name": "",
          "type": "address"
        }
      ],
      "stateMutability": "view",
      "type": "function"
    },
    {
      "inputs": [],
      "name": "pause",
      "outputs": [],
      "stateMutability": "nonpayable",
      "type": "function"
    },
    {
      "inputs": [],
      "name": "paused",
      "outputs": [
        {
          "internalType": "bool",
          "name": "",
          "type": "bool"
        }
      ],
      "stateMutability": "view",
      "type": "function"
    },
    {
      "inputs": [
        {
          "internalType": "uint256",
          "name": "tAmount",
          "type": "uint256"
        },
        {
          "internalType": "bool",
          "name": "deductTransferFee",
          "type": "bool"
        }
      ],
      "name": "reflectionFromToken",
      "outputs": [
        {
          "internalType": "uint256",
          "name": "",
          "type": "uint256"
        }
      ],
      "stateMutability": "view",
      "type": "function"
    },
    {
      "inputs": [],
      "name": "renounceOwnership",
      "outputs": [],
      "stateMutability": "nonpayable",
      "type": "function"
    },
    {
      "inputs": [
        {
          "internalType": "bytes32",
          "name": "role",
          "type": "bytes32"
        },
        {
          "internalType": "address",
          "name": "account",
          "type": "address"
        }
      ],
      "name": "renounceRole",
      "outputs": [],
      "stateMutability": "nonpayable",
      "type": "function"
    },
    {
      "inputs": [
        {
          "internalType": "bytes32",
          "name": "role",
          "type": "bytes32"
        },
        {
          "internalType": "address",
          "name": "account",
          "type": "address"
        }
      ],
      "name": "revokeRole",
      "outputs": [],
      "stateMutability": "nonpayable",
      "type": "function"
    },
    {
      "inputs": [
        {
          "internalType": "uint256",
          "name": "liquidityFee",
          "type": "uint256"
        }
      ],
      "name": "setLiquidityFeePercent",
      "outputs": [],
      "stateMutability": "nonpayable",
      "type": "function"
    },
    {
      "inputs": [
        {
          "internalType": "uint256",
          "name": "maxTxPercent",
          "type": "uint256"
        }
      ],
      "name": "setMaxTxPercent",
      "outputs": [],
      "stateMutability": "nonpayable",
      "type": "function"
    },
    {
      "inputs": [
        {
          "internalType": "bool",
          "name": "_enabled",
          "type": "bool"
        }
      ],
      "name": "setSwapAndLiquifyEnabled",
      "outputs": [],
      "stateMutability": "nonpayable",
      "type": "function"
    },
    {
      "inputs": [
        {
          "internalType": "uint256",
          "name": "taxFee",
          "type": "uint256"
        }
      ],
      "name": "setTaxFeePercent",
      "outputs": [],
      "stateMutability": "nonpayable",
      "type": "function"
    },
    {
      "inputs": [
        {
          "internalType": "bytes4",
          "name": "interfaceId",
          "type": "bytes4"
        }
      ],
      "name": "supportsInterface",
      "outputs": [
        {
          "internalType": "bool",
          "name": "",
          "type": "bool"
        }
      ],
      "stateMutability": "view",
      "type": "function"
    },
    {
      "inputs": [],
      "name": "swapAndLiquifyEnabled",
      "outputs": [
        {
          "internalType": "bool",
          "name": "",
          "type": "bool"
        }
      ],
      "stateMutability": "view",
      "type": "function"
    },
    {
      "inputs": [],
      "name": "symbol",
      "outputs": [
        {
          "internalType": "string",
          "name": "",
          "type": "string"
        }
      ],
      "stateMutability": "view",
      "type": "function"
    },
    {
      "inputs": [
        {
          "internalType": "uint256",
          "name": "rAmount",
          "type": "uint256"
        }
      ],
      "name": "tokenFromReflection",
      "outputs": [
        {
          "internalType": "uint256",
          "name": "",
          "type": "uint256"
        }
      ],
      "stateMutability": "view",
      "type": "function"
    },
    {
      "inputs": [],
      "name": "totalFees",
      "outputs": [
        {
          "internalType": "uint256",
          "name": "",
          "type": "uint256"
        }
      ],
      "stateMutability": "view",
      "type": "function"
    },
    {
      "inputs": [],
      "name": "totalSupply",
      "outputs": [
        {
          "internalType": "uint256",
          "name": "",
          "type": "uint256"
        }
      ],
      "stateMutability": "view",
      "type": "function"
    },
    {
      "inputs": [
        {
          "internalType": "address",
          "name": "recipient",
          "type": "address"
        },
        {
          "internalType": "uint256",
          "name": "amount",
          "type": "uint256"
        }
      ],
      "name": "transfer",
      "outputs": [
        {
          "internalType": "bool",
          "name": "",
          "type": "bool"
        }
      ],
      "stateMutability": "nonpayable",
      "type": "function"
    },
    {
      "inputs": [
        {
          "internalType": "address",
          "name": "sender",
          "type": "address"
        },
        {
          "internalType": "address",
          "name": "recipient",
          "type": "address"
        },
        {
          "internalType": "uint256",
          "name": "amount",
          "type": "uint256"
        }
      ],
      "name": "transferFrom",
      "outputs": [
        {
          "internalType": "bool",
          "name": "",
          "type": "bool"
        }
      ],
      "stateMutability": "nonpayable",
      "type": "function"
    },
    {
      "inputs": [
        {
          "internalType": "address",
          "name": "newOwner",
          "type": "address"
        }
      ],
      "name": "transferOwnership",
      "outputs": [],
      "stateMutability": "nonpayable",
      "type": "function"
    },
    {
      "inputs": [],
      "name": "uniswapV2Pair",
      "outputs": [
        {
          "internalType": "address",
          "name": "",
          "type": "address"
        }
      ],
      "stateMutability": "view",
      "type": "function"
    },
    {
      "inputs": [],
      "name": "uniswapV2Router",
      "outputs": [
        {
          "internalType": "contract IUniswapV2Router02",
          "name": "",
          "type": "address"
        }
      ],
      "stateMutability": "view",
      "type": "function"
    },
    {
      "inputs": [],
      "name": "unpause",
      "outputs": [],
      "stateMutability": "nonpayable",
      "type": "function"
    },
    {
      "stateMutability": "payable",
      "type": "receive"
    }
  ],
  "bytecode": "0x60c060405269021e19e0c9bab2400000600b8190556200002290600019620008f9565b620000309060001962000864565b600c556010805460ff191660091790556011546012556013546014556015805461ff00191661010017905568056bc75e2d6310000060168190556017553480156200007a57600080fd5b5060405162003f1b38038062003f1b8339810160408190526200009d916200081b565b6040518060400160405280601281526020017f48756e6772792050616e646120546f6b656e00000000000000000000000000008152506040518060400160405280600b81526020017f48554e47525950414e444100000000000000000000000000000000000000000081525069021e19e0c9bab24000006005600a8560006200013462000591640100000000026401000000009004565b60008054600160a060020a031916600160a060020a0383169081178255604051929350917f8be0079c531659141344cd1fd0a4f28419497f9722a3daafe3b4186f6b6457e0908290a3506003805460ff19169055620001b06000620001a164010000000062000591810204565b64010000000062000595810204565b620001e87f65d7a28e3265b37a6474929f336521b332c1681b933f6cb9f3376673440d862a620001a164010000000062000591810204565b8551620001fd90600e90602089019062000775565b5084516200021390600f90602088019062000775565b50600b8490556200022784600019620008f9565b620002359060001962000864565b600c81905560ff8085166011819055601281905560138190556014556200026d9190841664010000000062001737620005dc82021704565b601655600c54620002909060ff841664010000000062001737620005dc82021704565b601755600c5460046000620002ad64010000000062000591810204565b600160a060020a0316600160a060020a0316815260200190815260200160002081905550600081905080600160a060020a031663c45a01556040518163ffffffff167c010000000000000000000000000000000000000000000000000000000002815260040160206040518083038186803b1580156200032c57600080fd5b505afa15801562000341573d6000803e3d6000fd5b505050506040513d601f19601f820116820180604052508101906200036791906200081b565b600160a060020a031663c9c653963083600160a060020a031663ad5c46486040518163ffffffff167c010000000000000000000000000000000000000000000000000000000002815260040160206040518083038186803b158015620003cc57600080fd5b505afa158015620003e1573d6000803e3d6000fd5b505050506040513d601f19601f820116820180604052508101906200040791906200081b565b6040517c010000000000000000000000000000000000000000000000000000000063ffffffff8516028152600160a060020a03928316600482015291166024820152604401602060405180830381600087803b1580156200046757600080fd5b505af11580156200047c573d6000803e3d6000fd5b505050506040513d601f19601f82011682018060405250810190620004a291906200081b565b6c01000000000000000000000000600160a060020a03918216810260a05290821602608052600160076000620004e0640100000000620005f3810204565b600160a060020a0316815260208082019290925260409081016000908120805494151560ff1995861617905530815260079092529020805490911660011790556200053364010000000062000591810204565b600160a060020a03166000600160a060020a03167fddf252ad1be2c89b69c2b068fc378daa952ba7f163c4a11628f55a4df523b3ef600b546040516200057b91815260200190565b60405180910390a350505050505050506200093f565b3390565b620005af8282640100000000620017436200060282021704565b6000828152600260205260409020620005d790826401000000006200174d6200061b82021704565b505050565b6000620005ea82846200084d565b90505b92915050565b600054600160a060020a031690565b6200061782826401000000006200063b810204565b5050565b6000620005ea83600160a060020a038416640100000000620006da810204565b62000650828264010000000062000732810204565b62000617576000828152600160208181526040808420600160a060020a0386168552909152909120805460ff191690911790556200069664010000000062000591810204565b600160a060020a031681600160a060020a0316837f2f8788117e7eff1d82e926ec794901d17c78024a50270940304540a733656f0d60405160405180910390a45050565b6000620006f183836401000000006200075d810204565b6200072957508154600181810184556000848152602080822090930184905584548482528286019093526040902091909155620005ed565b506000620005ed565b6000918252600160209081526040808420600160a060020a0393909316845291905290205460ff1690565b60009081526001919091016020526040902054151590565b8280546200078390620008a3565b90600052602060002090601f016020900481019282620007a75760008555620007f2565b82601f10620007c257805160ff1916838001178555620007f2565b82800160010185558215620007f2579182015b82811115620007f2578251825591602001919060010190620007d5565b506200080092915062000804565b5090565b5b8082111562000800576000815560010162000805565b6000602082840312156200082e57600080fd5b8151600160a060020a03811681146200084657600080fd5b9392505050565b6000826200085f576200085f62000910565b500490565b6000828210156200089e577f4e487b7100000000000000000000000000000000000000000000000000000000600052601160045260246000fd5b500390565b600281046001821680620008b857607f821691505b60208210811415620008f3577f4e487b7100000000000000000000000000000000000000000000000000000000600052602260045260246000fd5b50919050565b6000826200090b576200090b62000910565b500690565b7f4e487b7100000000000000000000000000000000000000000000000000000000600052601260045260246000fd5b6080516c01000000000000000000000000900460a0516c01000000000000000000000000900461356c620009af600039600081816105ab0152611c3701526000818161038c0152818161278701528181612852015281816128a7015281816129210152612948015261356c6000f3fe6080604052600436106102b65760003560e060020a900480635342acb41161017957806391d14854116100e0578063ca15c87311610099578063dd62ed3e11610073578063dd62ed3e14610894578063e63ab1e9146108da578063ea2f0b371461090e578063f2fde38b1461092e57600080fd5b8063ca15c87314610834578063d543dbeb14610854578063d547741f1461087457600080fd5b806391d148541461078a57806395d89b41146107aa578063a217fddf146107bf578063a457c2d7146107d4578063a9059cbb146107f4578063c49b9a801461081457600080fd5b80637d1db4a5116101325780637d1db4a5146106c85780638456cb59146106de57806388f82020146106f35780638da5cb5b1461072c5780638ee88c531461074a5780639010d07c1461076a57600080fd5b80635342acb41461060c57806356e0df32146106455780635c975abb146106655780636bc87c3a1461067d57806370a0823114610693578063715018a6146106b357600080fd5b8063313ce5671161021d5780633f4ba83a116101d65780633f4ba83a14610544578063437823ec146105595780634549b0391461057957806349bd5a5e146105995780634a74bb02146105cd57806352390c02146105ec57600080fd5b8063313ce5671461048c57806336568abe146104ae5780633685d419146104ce57806339509351146104ee5780633b124fe71461050e5780633bd5d1731461052457600080fd5b806318160ddd1161026f57806318160ddd146103c65780631a2c1715146103db57806323b872dd146103fb578063248a9ca31461041b5780632d8381191461044c5780632f2ff15d1461046c57600080fd5b806301ffc9a7146102c2578063061c82d0146102f757806306fdde0314610319578063095ea7b31461033b57806313114a9d1461035b5780631694505e1461037a57600080fd5b366102bd57005b600080fd5b3480156102ce57600080fd5b506102e26102dd366004613180565b61094e565b60405190151581526020015b60405180910390f35b34801561030357600080fd5b50610317610312366004613120565b610992565b005b34801561032557600080fd5b5061032e6109cd565b6040516102ee9190613285565b34801561034757600080fd5b506102e26103563660046130d9565b610a5f565b34801561036757600080fd5b50600d545b6040519081526020016102ee565b34801561038657600080fd5b506103ae7f000000000000000000000000000000000000000000000000000000000000000081565b604051600160a060020a0390911681526020016102ee565b3480156103d257600080fd5b50600b5461036c565b3480156103e757600080fd5b506103176103f63660046130d9565b610a75565b34801561040757600080fd5b506102e2610416366004613098565b610ad4565b34801561042757600080fd5b5061036c610436366004613120565b6000908152600160208190526040909120015490565b34801561045857600080fd5b5061036c610467366004613120565b610b3d565b34801561047857600080fd5b50610317610487366004613139565b610bd7565b34801561049857600080fd5b5060105460405160ff90911681526020016102ee565b3480156104ba57600080fd5b506103176104c9366004613139565b610bfe565b3480156104da57600080fd5b506103176104e9366004613025565b610c20565b3480156104fa57600080fd5b506102e26105093660046130d9565b610df7565b34801561051a57600080fd5b5061036c60115481565b34801561053057600080fd5b5061031761053f366004613120565b610e2d565b34801561055057600080fd5b50610317610f2b565b34801561056557600080fd5b50610317610574366004613025565b610fd4565b34801561058557600080fd5b5061036c6105943660046131aa565b611025565b3480156105a557600080fd5b506103ae7f000000000000000000000000000000000000000000000000000000000000000081565b3480156105d957600080fd5b506015546102e290610100900460ff1681565b3480156105f857600080fd5b50610317610607366004613025565b6110b5565b34801561061857600080fd5b506102e2610627366004613025565b600160a060020a031660009081526007602052604090205460ff1690565b34801561065157600080fd5b50610317610660366004613025565b61121b565b34801561067157600080fd5b5060035460ff166102e2565b34801561068957600080fd5b5061036c60135481565b34801561069f57600080fd5b5061036c6106ae366004613025565b611276565b3480156106bf57600080fd5b506103176112d5565b3480156106d457600080fd5b5061036c60165481565b3480156106ea57600080fd5b50610317611359565b3480156106ff57600080fd5b506102e261070e366004613025565b600160a060020a031660009081526008602052604090205460ff1690565b34801561073857600080fd5b50600054600160a060020a03166103ae565b34801561075657600080fd5b50610317610765366004613120565b611400565b34801561077657600080fd5b506103ae61078536600461315e565b611432565b34801561079657600080fd5b506102e26107a5366004613139565b61144a565b3480156107b657600080fd5b5061032e611475565b3480156107cb57600080fd5b5061036c600081565b3480156107e057600080fd5b506102e26107ef3660046130d9565b611484565b34801561080057600080fd5b506102e261080f3660046130d9565b6114d3565b34801561082057600080fd5b5061031761082f366004613105565b6114e0565b34801561084057600080fd5b5061036c61084f366004613120565b611561565b34801561086057600080fd5b5061031761086f366004613120565b611578565b34801561088057600080fd5b5061031761088f366004613139565b6115cb565b3480156108a057600080fd5b5061036c6108af36600461305f565b600160a060020a03918216600090815260066020908152604080832093909416825291909152205490565b3480156108e657600080fd5b5061036c7f65d7a28e3265b37a6474929f336521b332c1681b933f6cb9f3376673440d862a81565b34801561091a57600080fd5b50610317610929366004613025565b6115d5565b34801561093a57600080fd5b50610317610949366004613025565b611623565b6000600160e060020a031982167f5a05180f00000000000000000000000000000000000000000000000000000000148061098c575061098c82611762565b92915050565b600054600160a060020a031633146109c85760405160e560020a62461bcd0281526004016109bf906132b8565b60405180910390fd5b601155565b6060600e80546109dc90613414565b80601f0160208091040260200160405190810160405280929190818152602001828054610a0890613414565b8015610a555780601f10610a2a57610100808354040283529160200191610a55565b820191906000526020600020905b815481529060010190602001808311610a3857829003601f168201915b5050505050905090565b6000610a6c3384846117c9565b50600192915050565b600054600160a060020a03163314610aa25760405160e560020a62461bcd0281526004016109bf906132b8565b600160a060020a039091166000908152600960209081526040808320939093556007905220805460ff19166001179055565b6000610ae1848484611927565b610b338433610b2e856040518060600160405280602881526020016134ea60289139600160a060020a038a1660009081526006602090815260408083203384529091529020549190611cf3565b6117c9565b5060019392505050565b6000600c54821115610bba5760405160e560020a62461bcd02815260206004820152602a60248201527f416d6f756e74206d757374206265206c657373207468616e20746f74616c207260448201527f65666c656374696f6e730000000000000000000000000000000000000000000060648201526084016109bf565b6000610bc4611d22565b9050610bd08382611737565b9392505050565b610be18282611d45565b6000828152600260205260409020610bf9908261174d565b505050565b610c088282611d6c565b6000828152600260205260409020610bf99082611df7565b600054600160a060020a03163314610c4d5760405160e560020a62461bcd0281526004016109bf906132b8565b600160a060020a03811660009081526008602052604090205460ff16610cb85760405160e560020a62461bcd02815260206004820152601b60248201527f4163636f756e7420697320616c7265616479206578636c75646564000000000060448201526064016109bf565b60005b600a54811015610df35781600160a060020a0316600a8281548110610ce257610ce261349f565b600091825260209091200154600160a060020a03161415610de157600a8054610d0d906001906133ba565b81548110610d1d57610d1d61349f565b600091825260209091200154600a8054600160a060020a039092169183908110610d4957610d4961349f565b6000918252602080832091909101805473ffffffffffffffffffffffffffffffffffffffff1916600160a060020a039485161790559184168152600582526040808220829055600890925220805460ff19169055600a805480610dae57610dae613486565b6000828152602090208101600019908101805473ffffffffffffffffffffffffffffffffffffffff191690550190555050565b80610deb81613452565b915050610cbb565b5050565b336000818152600660209081526040808320600160a060020a03871684529091528120549091610a6c918590610b2e9086611e0c565b3360008181526008602052604090205460ff1615610eb65760405160e560020a62461bcd02815260206004820152602c60248201527f4578636c75646564206164647265737365732063616e6e6f742063616c6c207460448201527f6869732066756e6374696f6e000000000000000000000000000000000000000060648201526084016109bf565b6000610ec183611e18565b50505050600160a060020a038416600090815260046020526040902054919250610eed91905082611e67565b600160a060020a038316600090815260046020526040902055600c54610f139082611e67565b600c55600d54610f239084611e0c565b600d55505050565b610f557f65d7a28e3265b37a6474929f336521b332c1681b933f6cb9f3376673440d862a3361144a565b610fca5760405160e560020a62461bcd02815260206004820152602d60248201527f48756e67727950616e64613a206d75737420686176652070617573657220726f60448201527f6c6520746f20756e70617573650000000000000000000000000000000000000060648201526084016109bf565b610fd2611e73565b565b600054600160a060020a031633146110015760405160e560020a62461bcd0281526004016109bf906132b8565b600160a060020a03166000908152600760205260409020805460ff19166001179055565b6000600b5483111561107c5760405160e560020a62461bcd02815260206004820152601f60248201527f416d6f756e74206d757374206265206c657373207468616e20737570706c790060448201526064016109bf565b8161109b57600061108c84611e18565b5093955061098c945050505050565b60006110a684611e18565b5092955061098c945050505050565b600054600160a060020a031633146110e25760405160e560020a62461bcd0281526004016109bf906132b8565b600160a060020a03811660009081526008602052604090205460ff161561114e5760405160e560020a62461bcd02815260206004820152601b60248201527f4163636f756e7420697320616c7265616479206578636c75646564000000000060448201526064016109bf565b600160a060020a038116600090815260046020526040902054156111a857600160a060020a03811660009081526004602052604090205461118e90610b3d565b600160a060020a0382166000908152600560205260409020555b600160a060020a03166000818152600860205260408120805460ff19166001908117909155600a805491820181559091527fc65a7bb8d6351c1cf70c95a316cc6a92839c986682d98bc35f958f4883f9d2a801805473ffffffffffffffffffffffffffffffffffffffff19169091179055565b600054600160a060020a031633146112485760405160e560020a62461bcd0281526004016109bf906132b8565b600160a060020a0316600090815260096020908152604080832083905560079091529020805460ff19169055565b600160a060020a03811660009081526008602052604081205460ff16156112b35750600160a060020a031660009081526005602052604090205490565b600160a060020a03821660009081526004602052604090205461098c90610b3d565b600054600160a060020a031633146113025760405160e560020a62461bcd0281526004016109bf906132b8565b60008054604051600160a060020a03909116907f8be0079c531659141344cd1fd0a4f28419497f9722a3daafe3b4186f6b6457e0908390a36000805473ffffffffffffffffffffffffffffffffffffffff19169055565b6113837f65d7a28e3265b37a6474929f336521b332c1681b933f6cb9f3376673440d862a3361144a565b6113f85760405160e560020a62461bcd02815260206004820152602b60248201527f48756e67727950616e64613a206d75737420686176652070617573657220726f60448201527f6c6520746f20706175736500000000000000000000000000000000000000000060648201526084016109bf565b610fd2611f12565b600054600160a060020a0316331461142d5760405160e560020a62461bcd0281526004016109bf906132b8565b601355565b6000828152600260205260408120610bd09083611f9d565b6000918252600160209081526040808420600160a060020a0393909316845291905290205460ff1690565b6060600f80546109dc90613414565b6000610a6c3384610b2e8560405180606001604052806025815260200161351260259139336000908152600660209081526040808320600160a060020a038d1684529091529020549190611cf3565b6000610a6c338484611927565b600054600160a060020a0316331461150d5760405160e560020a62461bcd0281526004016109bf906132b8565b601580548215156101000261ff00199091161790556040517f53726dfcaf90650aa7eb35524f4d3220f07413c8d6cb404cc8c18bf5591bc1599061155690831515815260200190565b60405180910390a150565b600081815260026020526040812061098c90611fa9565b600054600160a060020a031633146115a55760405160e560020a62461bcd0281526004016109bf906132b8565b6115c560646115bf83600b54611fb390919063ffffffff16565b90611737565b60165550565b610c088282611fbf565b600054600160a060020a031633146116025760405160e560020a62461bcd0281526004016109bf906132b8565b600160a060020a03166000908152600760205260409020805460ff19169055565b600054600160a060020a031633146116505760405160e560020a62461bcd0281526004016109bf906132b8565b600160a060020a0381166116cf5760405160e560020a62461bcd02815260206004820152602660248201527f4f776e61626c653a206e6577206f776e657220697320746865207a65726f206160448201527f646472657373000000000000000000000000000000000000000000000000000060648201526084016109bf565b60008054604051600160a060020a03808516939216917f8be0079c531659141344cd1fd0a4f28419497f9722a3daafe3b4186f6b6457e091a36000805473ffffffffffffffffffffffffffffffffffffffff1916600160a060020a0392909216919091179055565b6000610bd08284613376565b610df38282611fe6565b6000610bd083600160a060020a038416612051565b6000600160e060020a031982167f7965db0b00000000000000000000000000000000000000000000000000000000148061098c57507f01ffc9a700000000000000000000000000000000000000000000000000000000600160e060020a031983161461098c565b600160a060020a0383166118475760405160e560020a62461bcd028152602060048201526024808201527f45524332303a20617070726f76652066726f6d20746865207a65726f2061646460448201527f726573730000000000000000000000000000000000000000000000000000000060648201526084016109bf565b600160a060020a0382166118c65760405160e560020a62461bcd02815260206004820152602260248201527f45524332303a20617070726f766520746f20746865207a65726f20616464726560448201527f737300000000000000000000000000000000000000000000000000000000000060648201526084016109bf565b600160a060020a0383811660008181526006602090815260408083209487168084529482529182902085905590518481527f8c5be1e5ebec7d5bd14f71427d1e84f3dd0314c0f7b2291e5b200ac8c7c3b925910160405180910390a3505050565b818161193560035460ff1690565b801561194c5750600054600160a060020a03163314155b156119d957600160a060020a038216600090815260096020526040902054818110156119bd5760405160e560020a62461bcd02815260206004820152600c60248201527f746f6b656e20706175736564000000000000000000000000000000000000000060448201526064016109bf565b6119c782826133ba565b33600090815260096020526040902055505b600160a060020a038516611a585760405160e560020a62461bcd02815260206004820152602560248201527f45524332303a207472616e736665722066726f6d20746865207a65726f20616460448201527f647265737300000000000000000000000000000000000000000000000000000060648201526084016109bf565b600160a060020a038416611ad75760405160e560020a62461bcd02815260206004820152602360248201527f45524332303a207472616e7366657220746f20746865207a65726f206164647260448201527f657373000000000000000000000000000000000000000000000000000000000060648201526084016109bf565b60008311611b505760405160e560020a62461bcd02815260206004820152602960248201527f5472616e7366657220616d6f756e74206d75737420626520677265617465722060448201527f7468616e207a65726f000000000000000000000000000000000000000000000060648201526084016109bf565b600054600160a060020a03868116911614801590611b7c5750600054600160a060020a03858116911614155b15611bfc57601654831115611bfc5760405160e560020a62461bcd02815260206004820152602860248201527f5472616e7366657220616d6f756e74206578636565647320746865206d61785460448201527f78416d6f756e742e00000000000000000000000000000000000000000000000060648201526084016109bf565b6000611c0730611276565b90506016548110611c1757506016545b60175481108015908190611c2e575060155460ff16155b8015611c6c57507f0000000000000000000000000000000000000000000000000000000000000000600160a060020a031687600160a060020a031614155b8015611c7f5750601554610100900460ff165b15611c92576017549150611c92826120a0565b600160a060020a03871660009081526007602052604090205460019060ff1680611cd45750600160a060020a03871660009081526007602052604090205460ff165b15611cdd575060005b611ce988888884612140565b5050505050505050565b60008184841115611d1a5760405160e560020a62461bcd0281526004016109bf9190613285565b505050900390565b6000806000611d2f6122bd565b9092509050611d3e8282611737565b9250505090565b60008281526001602081905260409091200154611d62813361243f565b610bf98383611fe6565b600160a060020a0381163314611ded5760405160e560020a62461bcd02815260206004820152602f60248201527f416363657373436f6e74726f6c3a2063616e206f6e6c792072656e6f756e636560448201527f20726f6c657320666f722073656c66000000000000000000000000000000000060648201526084016109bf565b610df382826124a6565b6000610bd083600160a060020a03841661250d565b6000610bd0828461335e565b6000806000806000806000806000611e2f8a6125fa565b9250925092506000806000611e4d8d8686611e48611d22565b61263c565b919f909e50909c50959a5093985091965092945050505050565b6000610bd082846133ba565b60035460ff16611ec85760405160e560020a62461bcd02815260206004820152601460248201527f5061757361626c653a206e6f742070617573656400000000000000000000000060448201526064016109bf565b6003805460ff191690557f5db9ee0a495bf2e6ff9c91a7834c1ba4fdd244a5e8aa4e537bd38aeae4b073aa335b604051600160a060020a03909116815260200160405180910390a1565b60035460ff1615611f685760405160e560020a62461bcd02815260206004820152601060248201527f5061757361626c653a207061757365640000000000000000000000000000000060448201526064016109bf565b6003805460ff191660011790557f62e78cea01bee320cd4e420270b5ea74000d11b0c9f74754ebdbfc544b05a258611ef53390565b6000610bd0838361268c565b600061098c825490565b6000610bd0828461339b565b60008281526001602081905260409091200154611fdc813361243f565b610bf983836124a6565b611ff0828261144a565b610df3576000828152600160208181526040808420600160a060020a0386168086529252808420805460ff19169093179092559051339285917f2f8788117e7eff1d82e926ec794901d17c78024a50270940304540a733656f0d9190a45050565b60008181526001830160205260408120546120985750815460018181018455600084815260208082209093018490558454848252828601909352604090209190915561098c565b50600061098c565b6015805460ff1916600117905560006120ba826002611737565b905060006120c88383611e67565b905030316120d583612730565b60006120e2303183611e67565b90506120ee838261291b565b60408051858152602081018390529081018490527f17bbfb9a6069321b6ded73bd96327c9e6b7212a5cd51ff219cd61370acafb5619060600160405180910390a150506015805460ff19169055505050565b8061214d5761214d612a2e565b600160a060020a03841660009081526008602052604090205460ff16801561218e5750600160a060020a03831660009081526008602052604090205460ff16155b156121a35761219e848484612a5c565b6122a1565b600160a060020a03841660009081526008602052604090205460ff161580156121e45750600160a060020a03831660009081526008602052604090205460ff165b156121f45761219e848484612b82565b600160a060020a03841660009081526008602052604090205460ff161580156122365750600160a060020a03831660009081526008602052604090205460ff16155b156122465761219e848484612c2b565b600160a060020a03841660009081526008602052604090205460ff1680156122865750600160a060020a03831660009081526008602052604090205460ff165b156122965761219e848484612c6f565b6122a1848484612c2b565b806122b7576122b7601254601155601454601355565b50505050565b600c54600b546000918291825b600a5481101561240f578260046000600a84815481106122ec576122ec61349f565b6000918252602080832090910154600160a060020a03168352820192909252604001902054118061235757508160056000600a84815481106123305761233061349f565b6000918252602080832090910154600160a060020a03168352820192909252604001902054115b1561236d57600c54600b54945094505050509091565b6123b360046000600a84815481106123875761238761349f565b6000918252602080832090910154600160a060020a031683528201929092526040019020548490611e67565b92506123fb60056000600a84815481106123cf576123cf61349f565b6000918252602080832090910154600160a060020a031683528201929092526040019020548390611e67565b91508061240781613452565b9150506122ca565b50600b54600c5461241f91611737565b82101561243657600c54600b549350935050509091565b90939092509050565b612449828261144a565b610df35761246181600160a060020a03166014612ce2565b61246c836020612ce2565b60405160200161247d929190613204565b60408051601f198184030181529082905260e560020a62461bcd0282526109bf91600401613285565b6124b0828261144a565b15610df3576000828152600160209081526040808320600160a060020a0385168085529252808320805460ff1916905551339285917ff6391f5c32d9c69d2a47ea670b442974b53935d1edc7fd64eb21e047a839171b9190a45050565b600081815260018301602052604081205480156125f05760006125316001836133ba565b8554909150600090612545906001906133ba565b9050600086600001828154811061255e5761255e61349f565b90600052602060002001549050808760000184815481106125815761258161349f565b6000918252602080832090910192909255828152600189019091526040902084905586548790806125b4576125b4613486565b6001900381819060005260206000200160009055905586600101600087815260200190815260200160002060009055600194505050505061098c565b600091505061098c565b60008060008061260985612f2c565b9050600061261686612f48565b9050600061262e826126288986611e67565b90611e67565b979296509094509092505050565b600080808061264b8886611fb3565b905060006126598887611fb3565b905060006126678888611fb3565b90506000612679826126288686611e67565b939b939a50919850919650505050505050565b815460009082106127085760405160e560020a62461bcd02815260206004820152602260248201527f456e756d657261626c655365743a20696e646578206f7574206f6620626f756e60448201527f647300000000000000000000000000000000000000000000000000000000000060648201526084016109bf565b82600001828154811061271d5761271d61349f565b9060005260206000200154905092915050565b60408051600280825260608201835260009260208301908036833701905050905030816000815181106127655761276561349f565b6020026020010190600160a060020a03169081600160a060020a0316815250507f0000000000000000000000000000000000000000000000000000000000000000600160a060020a031663ad5c46486040518163ffffffff1660e060020a02815260040160206040518083038186803b1580156127e157600080fd5b505afa1580156127f5573d6000803e3d6000fd5b505050506040513d601f19601f820116820180604052508101906128199190613042565b8160018151811061282c5761282c61349f565b6020026020010190600160a060020a03169081600160a060020a031681525050612877307f0000000000000000000000000000000000000000000000000000000000000000846117c9565b6040517f791ac947000000000000000000000000000000000000000000000000000000008152600160a060020a037f0000000000000000000000000000000000000000000000000000000000000000169063791ac947906128e59085906000908690309042906004016132ed565b600060405180830381600087803b1580156128ff57600080fd5b505af1158015612913573d6000803e3d6000fd5b505050505050565b612946307f0000000000000000000000000000000000000000000000000000000000000000846117c9565b7f0000000000000000000000000000000000000000000000000000000000000000600160a060020a031663f305d71982308560008061298d600054600160a060020a031690565b60405163ffffffff881660e060020a028152600160a060020a03958616600482015260248101949094526044840192909252606483015290911660848201524260a482015260c4016060604051808303818588803b1580156129ee57600080fd5b505af1158015612a02573d6000803e3d6000fd5b50505050506040513d601f19601f82011682018060405250810190612a2791906131d6565b5050505050565b601154158015612a3e5750601354155b15612a4557565b601180546012556013805460145560009182905555565b600080600080600080612a6e87611e18565b600160a060020a038f16600090815260056020526040902054959b50939950919750955093509150612aa09088611e67565b600160a060020a038a16600090815260056020908152604080832093909355600490522054612acf9087611e67565b600160a060020a03808b1660009081526004602052604080822093909355908a1681522054612afe9086611e0c565b600160a060020a038916600090815260046020526040902055612b2081612f64565b612b2a8483612fec565b87600160a060020a031689600160a060020a03167fddf252ad1be2c89b69c2b068fc378daa952ba7f163c4a11628f55a4df523b3ef85604051612b6f91815260200190565b60405180910390a3505050505050505050565b600080600080600080612b9487611e18565b600160a060020a038f16600090815260046020526040902054959b50939950919750955093509150612bc69087611e67565b600160a060020a03808b16600090815260046020908152604080832094909455918b16815260059091522054612bfc9084611e0c565b600160a060020a038916600090815260056020908152604080832093909355600490522054612afe9086611e0c565b600080600080600080612c3d87611e18565b600160a060020a038f16600090815260046020526040902054959b50939950919750955093509150612acf9087611e67565b600080600080600080612c8187611e18565b600160a060020a038f16600090815260056020526040902054959b50939950919750955093509150612cb39088611e67565b600160a060020a038a16600090815260056020908152604080832093909355600490522054612bc69087611e67565b60606000612cf183600261339b565b612cfc90600261335e565b67ffffffffffffffff811115612d1457612d146134b8565b6040519080825280601f01601f191660200182016040528015612d3e576020820181803683370190505b5090507f300000000000000000000000000000000000000000000000000000000000000081600081518110612d7557612d7561349f565b60200101907effffffffffffffffffffffffffffffffffffffffffffffffffffffffffffff1916908160001a9053507f780000000000000000000000000000000000000000000000000000000000000081600181518110612dd857612dd861349f565b60200101907effffffffffffffffffffffffffffffffffffffffffffffffffffffffffffff1916908160001a9053506000612e1484600261339b565b612e1f90600161335e565b90505b6001811115612eda577f303132333435363738396162636465660000000000000000000000000000000085600f1660108110612e6057612e6061349f565b1a7f010000000000000000000000000000000000000000000000000000000000000002828281518110612e9557612e9561349f565b60200101907effffffffffffffffffffffffffffffffffffffffffffffffffffffffffffff1916908160001a905350601090940493612ed3816133fd565b9050612e22565b508315610bd05760405160e560020a62461bcd02815260206004820181905260248201527f537472696e67733a20686578206c656e67746820696e73756666696369656e7460448201526064016109bf565b600061098c60646115bf60115485611fb390919063ffffffff16565b600061098c60646115bf60135485611fb390919063ffffffff16565b6000612f6e611d22565b90506000612f7c8383611fb3565b30600090815260046020526040902054909150612f999082611e0c565b3060009081526004602090815260408083209390935560089052205460ff1615610bf95730600090815260056020526040902054612fd79084611e0c565b30600090815260056020526040902055505050565b600c54612ff99083611e67565b600c55600d546130099082611e0c565b600d555050565b8035801515811461302057600080fd5b919050565b60006020828403121561303757600080fd5b8135610bd0816134d1565b60006020828403121561305457600080fd5b8151610bd0816134d1565b6000806040838503121561307257600080fd5b823561307d816134d1565b9150602083013561308d816134d1565b809150509250929050565b6000806000606084860312156130ad57600080fd5b83356130b8816134d1565b925060208401356130c8816134d1565b929592945050506040919091013590565b600080604083850312156130ec57600080fd5b82356130f7816134d1565b946020939093013593505050565b60006020828403121561311757600080fd5b610bd082613010565b60006020828403121561313257600080fd5b5035919050565b6000806040838503121561314c57600080fd5b82359150602083013561308d816134d1565b6000806040838503121561317157600080fd5b50508035926020909101359150565b60006020828403121561319257600080fd5b8135600160e060020a031981168114610bd057600080fd5b600080604083850312156131bd57600080fd5b823591506131cd60208401613010565b90509250929050565b6000806000606084860312156131eb57600080fd5b8351925060208401519150604084015190509250925092565b7f416363657373436f6e74726f6c3a206163636f756e742000000000000000000081526000835161323c8160178501602088016133d1565b7f206973206d697373696e6720726f6c652000000000000000000000000000000060179184019182015283516132798160288401602088016133d1565b01602801949350505050565b60208152600082518060208401526132a48160408501602087016133d1565b601f01601f19169190910160400192915050565b6020808252818101527f4f776e61626c653a2063616c6c6572206973206e6f7420746865206f776e6572604082015260600190565b600060a082018783526020878185015260a0604085015281875180845260c086019150828901935060005b8181101561333d578451600160a060020a031683529383019391830191600101613318565b5050600160a060020a03969096166060850152505050608001529392505050565b600082198211156133715761337161346d565b500190565b6000826133965760e060020a634e487b7102600052601260045260246000fd5b500490565b60008160001904831182151516156133b5576133b561346d565b500290565b6000828210156133cc576133cc61346d565b500390565b60005b838110156133ec5781810151838201526020016133d4565b838111156122b75750506000910152565b60008161340c5761340c61346d565b506000190190565b60028104600182168061342857607f821691505b6020821081141561344c5760e060020a634e487b7102600052602260045260246000fd5b50919050565b60006000198214156134665761346661346d565b5060010190565b60e060020a634e487b7102600052601160045260246000fd5b60e060020a634e487b7102600052603160045260246000fd5b60e060020a634e487b7102600052603260045260246000fd5b60e060020a634e487b7102600052604160045260246000fd5b600160a060020a03811681146134e657600080fd5b5056fe45524332303a207472616e7366657220616d6f756e74206578636565647320616c6c6f77616e636545524332303a2064656372656173656420616c6c6f77616e63652062656c6f77207a65726fa264697066735822122017516614011fd0ffeca3ef38b9d3804982404648c3564fd333f2bb541539781264736f6c63430008050033",
  "immutableReferences": {
    "371": [
      {
        "length": 32,
        "start": 908
      },
      {
        "length": 32,
        "start": 10119
      },
      {
        "length": 32,
        "start": 10322
      },
      {
        "length": 32,
        "start": 10407
      },
      {
        "length": 32,
        "start": 10529
      },
      {
        "length": 32,
        "start": 10568
      }
    ],
    "373": [
      {
        "length": 32,
        "start": 1451
      },
      {
        "length": 32,
        "start": 7223
      }
    ]
  },
  "source": "// SPDX-License-Identifier: MIT\npragma solidity >=0.8.4 <0.9.0;\n\nimport \"./GenericToken.sol\";\n\ncontract PandaToken is GenericToken {\n    constructor(address _router) \n    GenericToken(\n        \"Hungry Panda Token\",\n        \"HUNGRYPANDA\",\n        10000000000 * 10**3 * 10**9,\n        5,\n        10,\n        _router\n    ){}\n}",
  "sourcePath": "/Users/skynet/Dev/work/HungryPanda/coin/contracts/PandaToken.sol",
  "compiler": {
    "name": "solc",
    "version": "0.8.5+commit.a4f2e591.Emscripten.clang"
  },
  "schemaVersion": "3.4.1",
  "updatedAt": "2021-06-16T18:23:58.354Z",
  "devdoc": {
    "kind": "dev",
    "methods": {
      "approve(address,uint256)": {
        "details": "Sets `amount` as the allowance of `spender` over the caller's tokens. Returns a boolean value indicating whether the operation succeeded. IMPORTANT: Beware that changing an allowance with this method brings the risk that someone may use both the old and the new allowance by unfortunate transaction ordering. One possible solution to mitigate this race condition is to first reduce the spender's allowance to 0 and set the desired value afterwards: https://github.com/ethereum/EIPs/issues/20#issuecomment-263524729 Emits an {Approval} event."
      },
      "balanceOf(address)": {
        "details": "Returns the amount of tokens owned by `account`."
      },
      "getRoleAdmin(bytes32)": {
        "details": "Returns the admin role that controls `role`. See {grantRole} and {revokeRole}. To change a role's admin, use {_setRoleAdmin}."
      },
      "getRoleMember(bytes32,uint256)": {
        "details": "Returns one of the accounts that have `role`. `index` must be a value between 0 and {getRoleMemberCount}, non-inclusive. Role bearers are not sorted in any particular way, and their ordering may change at any point. WARNING: When using {getRoleMember} and {getRoleMemberCount}, make sure you perform all queries on the same block. See the following https://forum.openzeppelin.com/t/iterating-over-elements-on-enumerableset-in-openzeppelin-contracts/2296[forum post] for more information."
      },
      "getRoleMemberCount(bytes32)": {
        "details": "Returns the number of accounts that have `role`. Can be used together with {getRoleMember} to enumerate all bearers of a role."
      },
      "grantRole(bytes32,address)": {
        "details": "Overload {grantRole} to track enumerable memberships"
      },
      "hasRole(bytes32,address)": {
        "details": "Returns `true` if `account` has been granted `role`."
      },
      "owner()": {
        "details": "Returns the address of the current owner."
      },
      "paused()": {
        "details": "Returns true if the contract is paused, and false otherwise."
      },
      "renounceOwnership()": {
        "details": "Leaves the contract without owner. It will not be possible to call `onlyOwner` functions anymore. Can only be called by the current owner. NOTE: Renouncing ownership will leave the contract without an owner, thereby removing any functionality that is only available to the owner."
      },
      "renounceRole(bytes32,address)": {
        "details": "Overload {renounceRole} to track enumerable memberships"
      },
      "revokeRole(bytes32,address)": {
        "details": "Overload {revokeRole} to track enumerable memberships"
      },
      "supportsInterface(bytes4)": {
        "details": "See {IERC165-supportsInterface}."
      },
      "totalSupply()": {
        "details": "Returns the amount of tokens in existence."
      },
      "transfer(address,uint256)": {
        "details": "Moves `amount` tokens from the caller's account to `recipient`. Returns a boolean value indicating whether the operation succeeded. Emits a {Transfer} event."
      },
      "transferFrom(address,address,uint256)": {
        "details": "Moves `amount` tokens from `sender` to `recipient` using the allowance mechanism. `amount` is then deducted from the caller's allowance. Returns a boolean value indicating whether the operation succeeded. Emits a {Transfer} event."
      },
      "transferOwnership(address)": {
        "details": "Transfers ownership of the contract to a new account (`newOwner`). Can only be called by the current owner."
      }
    },
    "version": 1
  },
  "userdoc": {
    "kind": "user",
    "methods": {},
    "version": 1
  }
}