{
  "contractName": "TimedAirdrop",
  "abi": [
    {
      "inputs": [
        {
          "internalType": "address",
          "name": "_admin",
          "type": "address"
        },
        {
          "internalType": "address",
          "name": "_token",
          "type": "address"
        },
        {
          "internalType": "uint256",
          "name": "_maxAirdropAmount",
          "type": "uint256"
        },
        {
          "internalType": "uint256",
          "name": "_openingTime",
          "type": "uint256"
        },
        {
          "internalType": "uint256",
          "name": "_closingTime",
          "type": "uint256"
        }
      ],
      "stateMutability": "nonpayable",
      "type": "constructor"
    },
    {
      "anonymous": false,
      "inputs": [
        {
          "indexed": false,
          "internalType": "address",
          "name": "recipient",
          "type": "address"
        },
        {
          "indexed": false,
          "internalType": "uint256",
          "name": "amount",
          "type": "uint256"
        },
        {
          "indexed": false,
          "internalType": "uint256",
          "name": "date",
          "type": "uint256"
        }
      ],
      "name": "AirdropProcessed",
      "type": "event"
    },
    {
      "inputs": [],
      "name": "CLOSING_TIME",
      "outputs": [
        {
          "internalType": "uint256",
          "name": "",
          "type": "uint256"
        }
      ],
      "stateMutability": "view",
      "type": "function"
    },
    {
      "inputs": [],
      "name": "OPENING_TIME",
      "outputs": [
        {
          "internalType": "uint256",
          "name": "",
          "type": "uint256"
        }
      ],
      "stateMutability": "view",
      "type": "function"
    },
    {
      "inputs": [],
      "name": "admin",
      "outputs": [
        {
          "internalType": "address",
          "name": "",
          "type": "address"
        }
      ],
      "stateMutability": "view",
      "type": "function"
    },
    {
      "inputs": [],
      "name": "currentAirdropAmount",
      "outputs": [
        {
          "internalType": "uint256",
          "name": "",
          "type": "uint256"
        }
      ],
      "stateMutability": "view",
      "type": "function"
    },
    {
      "inputs": [],
      "name": "hasClosed",
      "outputs": [
        {
          "internalType": "bool",
          "name": "",
          "type": "bool"
        }
      ],
      "stateMutability": "view",
      "type": "function"
    },
    {
      "inputs": [],
      "name": "hasOpened",
      "outputs": [
        {
          "internalType": "bool",
          "name": "",
          "type": "bool"
        }
      ],
      "stateMutability": "view",
      "type": "function"
    },
    {
      "inputs": [],
      "name": "maxAirdropAmount",
      "outputs": [
        {
          "internalType": "uint256",
          "name": "",
          "type": "uint256"
        }
      ],
      "stateMutability": "view",
      "type": "function"
    },
    {
      "inputs": [
        {
          "internalType": "address",
          "name": "",
          "type": "address"
        }
      ],
      "name": "processedAirdrops",
      "outputs": [
        {
          "internalType": "bool",
          "name": "",
          "type": "bool"
        }
      ],
      "stateMutability": "view",
      "type": "function"
    },
    {
      "inputs": [],
      "name": "token",
      "outputs": [
        {
          "internalType": "contract IERC20",
          "name": "",
          "type": "address"
        }
      ],
      "stateMutability": "view",
      "type": "function"
    },
    {
      "inputs": [
        {
          "internalType": "address",
          "name": "newAdmin",
          "type": "address"
        }
      ],
      "name": "updateAdmin",
      "outputs": [],
      "stateMutability": "nonpayable",
      "type": "function"
    },
    {
      "inputs": [
        {
          "internalType": "uint256",
          "name": "amount",
          "type": "uint256"
        },
        {
          "internalType": "bytes",
          "name": "signature",
          "type": "bytes"
        }
      ],
      "name": "claimTokens",
      "outputs": [],
      "stateMutability": "nonpayable",
      "type": "function"
    }
  ],
  "bytecode": "0x61010060405234801561001157600080fd5b50604051610a80380380610a80833981016040819052610030916100b4565b60008054600160a060020a031916600160a060020a038781169190911790915584166c010000000000000000000000000260805260a083905281814282101561007857600080fd5b80821061008457600080fd5b60c09190915260e052506101029350505050565b8051600160a060020a03811681146100af57600080fd5b919050565b600080600080600060a086880312156100cc57600080fd5b6100d586610098565b94506100e360208701610098565b6040870151606088015160809098015196999198509695945092505050565b6080516c01000000000000000000000000900460a05160c05160e05161090c6101746000396000818160e20152818161019d0152610283015260008181610176015281816101ca015261025801526000818161011e015261050501526000818161023401526105fe015261090c6000f3fe608060405234801561001057600080fd5b50600436106100c6576000357c010000000000000000000000000000000000000000000000000000000090048063538655621161008e57806353865562146101985780637424bab1146101bf578063be8eef8e146101c8578063e2f273bd146101f1578063f851a44014610204578063fc0c546a1461022f57600080fd5b806314d8bbf1146100cb5780631515bc2b146100e057806323efeb121461011957806332ffa7831461014e5780635200d64314610171575b600080fd5b6100de6100d93660046107ee565b610256565b005b7f000000000000000000000000000000000000000000000000000000000000000042115b60405190151581526020015b60405180910390f35b6101407f000000000000000000000000000000000000000000000000000000000000000081565b604051908152602001610110565b61010461015c36600461079c565b60016020526000908152604090205460ff1681565b6101407f000000000000000000000000000000000000000000000000000000000000000081565b6101407f000000000000000000000000000000000000000000000000000000000000000081565b61014060025481565b7f0000000000000000000000000000000000000000000000000000000000000000421015610104565b6100de6101ff36600461079c565b6102c0565b60005461021790600160a060020a031681565b604051600160a060020a039091168152602001610110565b6102177f000000000000000000000000000000000000000000000000000000000000000081565b7f000000000000000000000000000000000000000000000000000000000000000042101580156102a657507f00000000000000000000000000000000000000000000000000000000000000004211155b6102af57600080fd5b6102bb33848484610351565b505050565b600054600160a060020a031633146103225760405160e560020a62461bcd02815260206004820152600a60248201527f6f6e6c792061646d696e0000000000000000000000000000000000000000000060448201526064015b60405180910390fd5b6000805473ffffffffffffffffffffffffffffffffffffffff1916600160a060020a0392909216919091179055565b6040516c01000000000000000000000000600160a060020a038616026020820152603481018490526000906103ec90605401604051602081830303815290604052805190602001206040517f19457468657265756d205369676e6564204d6573736167653a0a3332000000006020820152603c8101829052600090605c01604051602081830303815290604052805190602001209050919050565b600054604080516020601f8701819004810282018101909252858152929350600160a060020a039091169161043e9184919087908790819084018382808284376000920191909152506106ca92505050565b600160a060020a0316146104975760405160e560020a62461bcd02815260206004820152600f60248201527f77726f6e67207369676e617475726500000000000000000000000000000000006044820152606401610319565b600160a060020a03851660009081526001602052604090205460ff16156105035760405160e560020a62461bcd02815260206004820152601960248201527f61697264726f7020616c72656164792070726f636573736564000000000000006044820152606401610319565b7f000000000000000000000000000000000000000000000000000000000000000084600254610532919061086a565b11156105835760405160e560020a62461bcd02815260206004820152601d60248201527f61697264726f707065642031303025206f662074686520746f6b656e730000006044820152606401610319565b600160a060020a03851660009081526001602081905260408220805460ff19169091179055600280548692906105ba90849061086a565b90915550506040517fa9059cbb000000000000000000000000000000000000000000000000000000008152600160a060020a038681166004830152602482018690527f0000000000000000000000000000000000000000000000000000000000000000169063a9059cbb90604401602060405180830381600087803b15801561064257600080fd5b505af1158015610656573d6000803e3d6000fd5b505050506040513d601f19601f8201168201806040525081019061067a91906107cc565b5060408051600160a060020a038716815260208101869052428183015290517fc0312d3bf25e86c787fa77f4d038213e428dc722e16d38ca9719e987d20f7c7c9181900360600190a15050505050565b6000806000806106d985610749565b6040805160008152602081018083528b905260ff8516918101919091526060810183905260808101829052929550909350915060019060a0016020604051602081039080840390855afa158015610734573d6000803e3d6000fd5b5050604051601f190151979650505050505050565b6000806000835160411461075c57600080fd5b60208401516040850151606086015160001a80158061077e57508060ff166001145b156107915761078e601b82610882565b90505b969195509350915050565b6000602082840312156107ae57600080fd5b8135600160a060020a03811681146107c557600080fd5b9392505050565b6000602082840312156107de57600080fd5b815180151581146107c557600080fd5b60008060006040848603121561080357600080fd5b83359250602084013567ffffffffffffffff8082111561082257600080fd5b818601915086601f83011261083657600080fd5b81358181111561084557600080fd5b87602082850101111561085757600080fd5b6020830194508093505050509250925092565b6000821982111561087d5761087d6108a7565b500190565b600060ff821660ff84168060ff0382111561089f5761089f6108a7565b019392505050565b7f4e487b7100000000000000000000000000000000000000000000000000000000600052601160045260246000fdfea264697066735822122047be341ed9432e7fea15f299fa0420c88502846870eb81eb73a725c79b57d57c64736f6c63430008050033",
  "immutableReferences": {
    "11": [
      {
        "length": 32,
        "start": 564
      },
      {
        "length": 32,
        "start": 1534
      }
    ],
    "15": [
      {
        "length": 32,
        "start": 286
      },
      {
        "length": 32,
        "start": 1285
      }
    ],
    "2420": [
      {
        "length": 32,
        "start": 374
      },
      {
        "length": 32,
        "start": 458
      },
      {
        "length": 32,
        "start": 600
      }
    ],
    "2422": [
      {
        "length": 32,
        "start": 226
      },
      {
        "length": 32,
        "start": 413
      },
      {
        "length": 32,
        "start": 643
      }
    ]
  },
  "source": "// SPDX-License-Identifier: MIT\npragma solidity >=0.8.4 <0.9.0;\n\nimport \"./Timed.sol\";\nimport \"./Airdrop.sol\";\n\ncontract TimedAirdrop is Airdrop, Timed {\n    constructor(\n        address _admin,\n        address _token,\n        uint256 _maxAirdropAmount,\n        uint256 _openingTime,\n        uint256 _closingTime\n    )\n        Airdrop(_admin, _token, _maxAirdropAmount)\n        Timed(_openingTime, _closingTime)\n    {}\n\n    function claimTokens(uint256 amount, bytes calldata signature)\n        external\n        override\n        onlyWhileOpen\n    {\n        _claimTokens(msg.sender, amount, signature);\n    }\n}\n",
  "sourcePath": "/Users/skynet/Dev/work/HungryPanda/coin/contracts/TimedAirdrop.sol",
  "compiler": {
    "name": "solc",
    "version": "0.8.5+commit.a4f2e591.Emscripten.clang"
  },
  "schemaVersion": "3.4.1",
  "updatedAt": "2021-06-16T18:23:58.363Z",
  "devdoc": {
    "kind": "dev",
    "methods": {},
    "version": 1
  },
  "userdoc": {
    "kind": "user",
    "methods": {},
    "version": 1
  }
}