{
  "contractName": "TimedAirdrop",
  "abi": [
    {
      "inputs": [
        {
          "internalType": "address",
          "name": "_admin",
          "type": "address"
        },
        {
          "internalType": "address",
          "name": "_token",
          "type": "address"
        },
        {
          "internalType": "uint256",
          "name": "_maxAirdropAmount",
          "type": "uint256"
        }
      ],
      "stateMutability": "nonpayable",
      "type": "constructor"
    },
    {
      "anonymous": false,
      "inputs": [
        {
          "indexed": false,
          "internalType": "address",
          "name": "recipient",
          "type": "address"
        },
        {
          "indexed": false,
          "internalType": "uint256",
          "name": "amount",
          "type": "uint256"
        },
        {
          "indexed": false,
          "internalType": "uint256",
          "name": "date",
          "type": "uint256"
        }
      ],
      "name": "AirdropProcessed",
      "type": "event"
    },
    {
      "inputs": [],
      "name": "CLAIM_TIME",
      "outputs": [
        {
          "internalType": "uint256",
          "name": "",
          "type": "uint256"
        }
      ],
      "stateMutability": "view",
      "type": "function"
    },
    {
      "inputs": [],
      "name": "INIT_TIME",
      "outputs": [
        {
          "internalType": "uint256",
          "name": "",
          "type": "uint256"
        }
      ],
      "stateMutability": "view",
      "type": "function"
    },
    {
      "inputs": [],
      "name": "REG_TIME",
      "outputs": [
        {
          "internalType": "uint256",
          "name": "",
          "type": "uint256"
        }
      ],
      "stateMutability": "view",
      "type": "function"
    },
    {
      "inputs": [],
      "name": "admin",
      "outputs": [
        {
          "internalType": "address",
          "name": "",
          "type": "address"
        }
      ],
      "stateMutability": "view",
      "type": "function"
    },
    {
      "inputs": [
        {
          "internalType": "uint256",
          "name": "amount",
          "type": "uint256"
        },
        {
          "internalType": "bytes",
          "name": "signature",
          "type": "bytes"
        }
      ],
      "name": "claimTokens",
      "outputs": [],
      "stateMutability": "nonpayable",
      "type": "function"
    },
    {
      "inputs": [],
      "name": "currentAirdropAmount",
      "outputs": [
        {
          "internalType": "uint256",
          "name": "",
          "type": "uint256"
        }
      ],
      "stateMutability": "view",
      "type": "function"
    },
    {
      "inputs": [],
      "name": "maxAirdropAmount",
      "outputs": [
        {
          "internalType": "uint256",
          "name": "",
          "type": "uint256"
        }
      ],
      "stateMutability": "view",
      "type": "function"
    },
    {
      "inputs": [
        {
          "internalType": "address",
          "name": "",
          "type": "address"
        }
      ],
      "name": "processedAirdrops",
      "outputs": [
        {
          "internalType": "bool",
          "name": "",
          "type": "bool"
        }
      ],
      "stateMutability": "view",
      "type": "function"
    },
    {
      "inputs": [],
      "name": "status",
      "outputs": [
        {
          "internalType": "enum Timed.Status",
          "name": "",
          "type": "uint8"
        }
      ],
      "stateMutability": "view",
      "type": "function"
    },
    {
      "inputs": [],
      "name": "token",
      "outputs": [
        {
          "internalType": "contract IERC20",
          "name": "",
          "type": "address"
        }
      ],
      "stateMutability": "view",
      "type": "function"
    },
    {
      "inputs": [
        {
          "internalType": "address",
          "name": "newAdmin",
          "type": "address"
        }
      ],
      "name": "updateAdmin",
      "outputs": [],
      "stateMutability": "nonpayable",
      "type": "function"
    }
  ],
  "bytecode": "0x61012060405234801561001157600080fd5b50604051610b07380380610b0783398101604081905261003091610097565b60008054600160a060020a031916600160a060020a0394851617905591166c010000000000000000000000000260805260a0524260c0526203f48060e0526202a300610100526100d3565b8051600160a060020a038116811461009257600080fd5b919050565b6000806000606084860312156100ac57600080fd5b6100b58461007b565b92506100c36020850161007b565b9150604084015190509250925092565b6080516c01000000000000000000000000900460a05160c05160e051610100516109af6101586000396000818161016b0152610700015260008181610192015281816106a4015281816106d30152610721015260008181610200015261067b01526000818161010301526104ae01526000818161022701526105a701526109af6000f3fe608060405234801561001057600080fd5b50600436106100c6576000357c01000000000000000000000000000000000000000000000000000000009004806347f7b7221161008e57806347f7b7221461018d5780637424bab1146101b4578063e2f273bd146101bd578063f851a440146101d0578063fb841c6d146101fb578063fc0c546a1461022257600080fd5b806314d8bbf1146100cb578063200d2ed2146100e057806323efeb12146100fe57806332ffa783146101335780633bcaba8b14610166575b600080fd5b6100de6100d936600461085e565b610249565b005b6100e861025a565b6040516100f591906108da565b60405180910390f35b6101257f000000000000000000000000000000000000000000000000000000000000000081565b6040519081526020016100f5565b61015661014136600461080c565b60016020526000908152604090205460ff1681565b60405190151581526020016100f5565b6101257f000000000000000000000000000000000000000000000000000000000000000081565b6101257f000000000000000000000000000000000000000000000000000000000000000081565b61012560025481565b6100de6101cb36600461080c565b610269565b6000546101e390600160a060020a031681565b604051600160a060020a0390911681526020016100f5565b6101257f000000000000000000000000000000000000000000000000000000000000000081565b6101e37f000000000000000000000000000000000000000000000000000000000000000081565b610255338484846102fa565b505050565b6000610264610673565b905090565b600054600160a060020a031633146102cb5760405160e560020a62461bcd02815260206004820152600a60248201527f6f6e6c792061646d696e0000000000000000000000000000000000000000000060448201526064015b60405180910390fd5b6000805473ffffffffffffffffffffffffffffffffffffffff1916600160a060020a0392909216919091179055565b6040516c01000000000000000000000000600160a060020a0386160260208201526034810184905260009061039590605401604051602081830303815290604052805190602001206040517f19457468657265756d205369676e6564204d6573736167653a0a3332000000006020820152603c8101829052600090605c01604051602081830303815290604052805190602001209050919050565b600054604080516020601f8701819004810282018101909252858152929350600160a060020a03909116916103e791849190879087908190840183828082843760009201919091525061075e92505050565b600160a060020a0316146104405760405160e560020a62461bcd02815260206004820152600f60248201527f77726f6e67207369676e6174757265000000000000000000000000000000000060448201526064016102c2565b600160a060020a03851660009081526001602052604090205460ff16156104ac5760405160e560020a62461bcd02815260206004820152601960248201527f61697264726f7020616c72656164792070726f6365737365640000000000000060448201526064016102c2565b7f0000000000000000000000000000000000000000000000000000000000000000846002546104db919061091b565b111561052c5760405160e560020a62461bcd02815260206004820152601d60248201527f61697264726f707065642031303025206f662074686520746f6b656e7300000060448201526064016102c2565b600160a060020a03851660009081526001602081905260408220805460ff191690911790556002805486929061056390849061091b565b90915550506040517fa9059cbb000000000000000000000000000000000000000000000000000000008152600160a060020a038681166004830152602482018690527f0000000000000000000000000000000000000000000000000000000000000000169063a9059cbb90604401602060405180830381600087803b1580156105eb57600080fd5b505af11580156105ff573d6000803e3d6000fd5b505050506040513d601f19601f82011682018060405250810190610623919061083c565b5060408051600160a060020a038716815260208101869052428183015290517fc0312d3bf25e86c787fa77f4d038213e428dc722e16d38ca9719e987d20f7c7c9181900360600190a15050505050565b6000806106a07f000000000000000000000000000000000000000000000000000000000000000042610933565b90507f000000000000000000000000000000000000000000000000000000000000000081116106d157600091505090565b7f00000000000000000000000000000000000000000000000000000000000000008111801561074957506107457f00000000000000000000000000000000000000000000000000000000000000007f000000000000000000000000000000000000000000000000000000000000000061091b565b8111155b1561075657600191505090565b600291505090565b60008060008061076d856107dd565b6040805160008152602081018083528b905260ff8516918101919091526060810183905260808101829052929550909350915060019060a0016020604051602081039080840390855afa1580156107c8573d6000803e3d6000fd5b5050604051601f190151979650505050505050565b600080600083516041146107f057600080fd5b5050506020810151604082015160609092015160001a92909190565b60006020828403121561081e57600080fd5b8135600160a060020a038116811461083557600080fd5b9392505050565b60006020828403121561084e57600080fd5b8151801515811461083557600080fd5b60008060006040848603121561087357600080fd5b83359250602084013567ffffffffffffffff8082111561089257600080fd5b818601915086601f8301126108a657600080fd5b8135818111156108b557600080fd5b8760208285010111156108c757600080fd5b6020830194508093505050509250925092565b6020810160038310610915577f4e487b7100000000000000000000000000000000000000000000000000000000600052602160045260246000fd5b91905290565b6000821982111561092e5761092e61094a565b500190565b6000828210156109455761094561094a565b500390565b7f4e487b7100000000000000000000000000000000000000000000000000000000600052601160045260246000fdfea2646970667358221220d07e51c89c5be20f53d46aae2ce3158829e99d37ee6b92f987af72aac60b0a3864736f6c63430008050033",
  "immutableReferences": {
    "11": [
      {
        "length": 32,
        "start": 551
      },
      {
        "length": 32,
        "start": 1447
      }
    ],
    "15": [
      {
        "length": 32,
        "start": 259
      },
      {
        "length": 32,
        "start": 1198
      }
    ],
    "2365": [
      {
        "length": 32,
        "start": 512
      },
      {
        "length": 32,
        "start": 1659
      }
    ],
    "2367": [
      {
        "length": 32,
        "start": 402
      },
      {
        "length": 32,
        "start": 1700
      },
      {
        "length": 32,
        "start": 1747
      },
      {
        "length": 32,
        "start": 1825
      }
    ],
    "2369": [
      {
        "length": 32,
        "start": 363
      },
      {
        "length": 32,
        "start": 1792
      }
    ]
  },
  "source": "// SPDX-License-Identifier: MIT\npragma solidity >=0.8.4 <0.9.0;\n\nimport \"./Timed.sol\";\nimport \"./Airdrop.sol\";\n\ncontract TimedAirdrop is Airdrop, Timed  {\n    constructor(address _admin,address _token,uint256 _maxAirdropAmount)\n        Airdrop(_admin,_token,_maxAirdropAmount)  Timed(3 days, 2 days){}\n}\n",
  "sourcePath": "C:/Users/skyne/Dev/work/skynet/HungryPandaHome/hungrypanda-token/contracts/TimedAirdrop.sol",
  "compiler": {
    "name": "solc",
    "version": "0.8.5+commit.a4f2e591.Emscripten.clang"
  },
  "schemaVersion": "3.4.1",
  "updatedAt": "2021-06-12T15:17:21.609Z",
  "networkType": "ethereum",
  "devdoc": {
    "kind": "dev",
    "methods": {},
    "version": 1
  },
  "userdoc": {
    "kind": "user",
    "methods": {},
    "version": 1
  }
}