{
  "contractName": "Timed",
  "abi": [
    {
      "inputs": [
        {
          "internalType": "uint256",
          "name": "_openingTime",
          "type": "uint256"
        },
        {
          "internalType": "uint256",
          "name": "_closingTime",
          "type": "uint256"
        }
      ],
      "stateMutability": "nonpayable",
      "type": "constructor"
    },
    {
      "inputs": [],
      "name": "CLOSING_TIME",
      "outputs": [
        {
          "internalType": "uint256",
          "name": "",
          "type": "uint256"
        }
      ],
      "stateMutability": "view",
      "type": "function"
    },
    {
      "inputs": [],
      "name": "OPENING_TIME",
      "outputs": [
        {
          "internalType": "uint256",
          "name": "",
          "type": "uint256"
        }
      ],
      "stateMutability": "view",
      "type": "function"
    },
    {
      "inputs": [],
      "name": "hasOpened",
      "outputs": [
        {
          "internalType": "bool",
          "name": "",
          "type": "bool"
        }
      ],
      "stateMutability": "view",
      "type": "function"
    },
    {
      "inputs": [],
      "name": "hasClosed",
      "outputs": [
        {
          "internalType": "bool",
          "name": "",
          "type": "bool"
        }
      ],
      "stateMutability": "view",
      "type": "function"
    }
  ],
  "bytecode": "0x60c060405234801561001057600080fd5b5060405161020b38038061020b83398101604081905261002f91610056565b8142111561003c57600080fd5b80821061004857600080fd5b60809190915260a05261007a565b6000806040838503121561006957600080fd5b505080516020909101519092909150565b60805160a0516101616100aa60003960008181606f015260e001526000818160ab015261010401526101616000f3fe608060405234801561001057600080fd5b5060043610610068577c010000000000000000000000000000000000000000000000000000000060003504631515bc2b811461006d5780635200d643146100a657806353865562146100db578063be8eef8e14610102575b600080fd5b7f000000000000000000000000000000000000000000000000000000000000000042115b60405190151581526020015b60405180910390f35b6100cd7f000000000000000000000000000000000000000000000000000000000000000081565b60405190815260200161009d565b6100cd7f000000000000000000000000000000000000000000000000000000000000000081565b7f000000000000000000000000000000000000000000000000000000000000000042101561009156fea26469706673582212208a35bdd97acee1e6a11c217b77d1a0243d670ba62995497fbd0afd1dc24f836364736f6c63430008050033",
  "immutableReferences": {
    "2420": [
      {
        "length": 32,
        "start": 171
      },
      {
        "length": 32,
        "start": 260
      }
    ],
    "2422": [
      {
        "length": 32,
        "start": 111
      },
      {
        "length": 32,
        "start": 224
      }
    ]
  },
  "source": "// SPDX-License-Identifier: MIT\npragma solidity >=0.8.4 <0.9.0;\n\ncontract Timed {\n    uint256 public immutable OPENING_TIME;\n    uint256 public immutable CLOSING_TIME;\n    enum Status {REG, CLAIM, END}\n\n    constructor(uint256 _openingTime, uint256 _closingTime) {\n        require(block.timestamp <= _openingTime);\n        require(_openingTime < _closingTime);\n        OPENING_TIME = _openingTime;\n        CLOSING_TIME = _closingTime;\n    }\n\n    modifier onlyWhileOpen() {\n        require(\n            block.timestamp >= OPENING_TIME && block.timestamp <= CLOSING_TIME\n        );\n        _;\n    }\n\n    function hasOpened() public view virtual returns (bool) {\n        return block.timestamp >= OPENING_TIME;\n    }\n\n    function hasClosed() public view virtual returns (bool) {\n        return block.timestamp > CLOSING_TIME;\n    }\n}\n",
  "sourcePath": "/Users/skynet/Dev/work/HungryPanda/coin/contracts/Timed.sol",
  "compiler": {
    "name": "solc",
    "version": "0.8.5+commit.a4f2e591.Emscripten.clang"
  },
  "schemaVersion": "3.4.1",
  "updatedAt": "2021-06-16T18:23:58.360Z",
  "devdoc": {
    "kind": "dev",
    "methods": {},
    "version": 1
  },
  "userdoc": {
    "kind": "user",
    "methods": {},
    "version": 1
  }
}