{
  "contractName": "Timed",
  "abi": [
    {
      "inputs": [
        {
          "internalType": "uint256",
          "name": "_REG_TIME",
          "type": "uint256"
        },
        {
          "internalType": "uint256",
          "name": "_CLAIM_TIME",
          "type": "uint256"
        }
      ],
      "stateMutability": "nonpayable",
      "type": "constructor"
    },
    {
      "inputs": [],
      "name": "CLAIM_TIME",
      "outputs": [
        {
          "internalType": "uint256",
          "name": "",
          "type": "uint256"
        }
      ],
      "stateMutability": "view",
      "type": "function"
    },
    {
      "inputs": [],
      "name": "INIT_TIME",
      "outputs": [
        {
          "internalType": "uint256",
          "name": "",
          "type": "uint256"
        }
      ],
      "stateMutability": "view",
      "type": "function"
    },
    {
      "inputs": [],
      "name": "REG_TIME",
      "outputs": [
        {
          "internalType": "uint256",
          "name": "",
          "type": "uint256"
        }
      ],
      "stateMutability": "view",
      "type": "function"
    },
    {
      "inputs": [],
      "name": "status",
      "outputs": [
        {
          "internalType": "enum Timed.Status",
          "name": "",
          "type": "uint8"
        }
      ],
      "stateMutability": "view",
      "type": "function"
    }
  ],
  "bytecode": "0x60e060405234801561001057600080fd5b5060405161039138038061039183398101604081905261002f91610041565b4260805260a09190915260c052610065565b6000806040838503121561005457600080fd5b505080516020909101519092909150565b60805160a05160c0516102dd6100b460003960008181609001526101aa01526000818160c50152818161014e0152818161017d01526101cb01526000818160ec015261012501526102dd6000f3fe608060405234801561001057600080fd5b5060043610610068577c01000000000000000000000000000000000000000000000000000000006000350463200d2ed2811461006d5780633bcaba8b1461008b57806347f7b722146100c0578063fb841c6d146100e7575b600080fd5b61007561010e565b6040516100829190610208565b60405180910390f35b6100b27f000000000000000000000000000000000000000000000000000000000000000081565b604051908152602001610082565b6100b27f000000000000000000000000000000000000000000000000000000000000000081565b6100b27f000000000000000000000000000000000000000000000000000000000000000081565b600061011861011d565b905090565b60008061014a7f000000000000000000000000000000000000000000000000000000000000000042610261565b90507f0000000000000000000000000000000000000000000000000000000000000000811161017b57600091505090565b7f0000000000000000000000000000000000000000000000000000000000000000811180156101f357506101ef7f00000000000000000000000000000000000000000000000000000000000000007f0000000000000000000000000000000000000000000000000000000000000000610249565b8111155b1561020057600191505090565b600291505090565b6020810160038310610243577f4e487b7100000000000000000000000000000000000000000000000000000000600052602160045260246000fd5b91905290565b6000821982111561025c5761025c610278565b500190565b60008282101561027357610273610278565b500390565b7f4e487b7100000000000000000000000000000000000000000000000000000000600052601160045260246000fdfea2646970667358221220d9e24647ce092a920edd1d382d8fe64a5707638edebe7ddb7bb703f6142cae5d64736f6c63430008050033",
  "immutableReferences": {
    "2336": [
      {
        "length": 32,
        "start": 236
      },
      {
        "length": 32,
        "start": 293
      }
    ],
    "2338": [
      {
        "length": 32,
        "start": 197
      },
      {
        "length": 32,
        "start": 334
      },
      {
        "length": 32,
        "start": 381
      },
      {
        "length": 32,
        "start": 459
      }
    ],
    "2340": [
      {
        "length": 32,
        "start": 144
      },
      {
        "length": 32,
        "start": 426
      }
    ]
  },
  "source": "// SPDX-License-Identifier: MIT\npragma solidity >=0.8.4 <0.9.0;\n\ncontract Timed {\n    uint256 public immutable INIT_TIME;\n    uint256 public immutable REG_TIME;\n    uint256 public immutable CLAIM_TIME;\n    enum Status {REG, CLAIM, END }\n\n    constructor(uint256 _REG_TIME, uint256 _CLAIM_TIME){\n        INIT_TIME = block.timestamp;\n        REG_TIME = _REG_TIME;\n        CLAIM_TIME = _CLAIM_TIME;\n    }\n\n    modifier onlyWhen(Status s) {\n        require(_status() == s, \"status condition was not met\");\n        _;\n    }\n\n    function _status() internal view returns(Status) {\n        uint256 since = block.timestamp - INIT_TIME;\n        if(since <= REG_TIME){\n            return Status.REG;\n        }\n        if(since > REG_TIME && since <= REG_TIME + CLAIM_TIME){\n            return Status.CLAIM;\n        }\n        return Status.END;\n    }\n\n    function status() external view virtual returns(Status){\n        return _status();\n    }\n}",
  "sourcePath": "C:/Users/skyne/Dev/work/skynet/HungryPandaHome/hungrypanda-token/contracts/Timed.sol",
  "compiler": {
    "name": "solc",
    "version": "0.8.5+commit.a4f2e591.Emscripten.clang"
  },
  "schemaVersion": "3.4.1",
  "updatedAt": "2021-06-12T15:17:14.813Z",
  "devdoc": {
    "kind": "dev",
    "methods": {},
    "version": 1
  },
  "userdoc": {
    "kind": "user",
    "methods": {},
    "version": 1
  }
}