{
  "contractName": "Token",
  "abi": [
    {
      "inputs": [
        {
          "internalType": "address",
          "name": "_router",
          "type": "address"
        },
        {
          "internalType": "address",
          "name": "_airdrop",
          "type": "address"
        },
        {
          "internalType": "address",
          "name": "_whiteList",
          "type": "address"
        }
      ],
      "stateMutability": "nonpayable",
      "type": "constructor"
    },
    {
      "anonymous": false,
      "inputs": [
        {
          "indexed": true,
          "internalType": "address",
          "name": "owner",
          "type": "address"
        },
        {
          "indexed": true,
          "internalType": "address",
          "name": "spender",
          "type": "address"
        },
        {
          "indexed": false,
          "internalType": "uint256",
          "name": "value",
          "type": "uint256"
        }
      ],
      "name": "Approval",
      "type": "event"
    },
    {
      "anonymous": false,
      "inputs": [
        {
          "indexed": false,
          "internalType": "uint256",
          "name": "minTokensBeforeSwap",
          "type": "uint256"
        }
      ],
      "name": "MinTokensBeforeSwapUpdated",
      "type": "event"
    },
    {
      "anonymous": false,
      "inputs": [
        {
          "indexed": true,
          "internalType": "address",
          "name": "previousOwner",
          "type": "address"
        },
        {
          "indexed": true,
          "internalType": "address",
          "name": "newOwner",
          "type": "address"
        }
      ],
      "name": "OwnershipTransferred",
      "type": "event"
    },
    {
      "anonymous": false,
      "inputs": [
        {
          "indexed": false,
          "internalType": "address",
          "name": "account",
          "type": "address"
        }
      ],
      "name": "Paused",
      "type": "event"
    },
    {
      "anonymous": false,
      "inputs": [
        {
          "indexed": true,
          "internalType": "bytes32",
          "name": "role",
          "type": "bytes32"
        },
        {
          "indexed": true,
          "internalType": "bytes32",
          "name": "previousAdminRole",
          "type": "bytes32"
        },
        {
          "indexed": true,
          "internalType": "bytes32",
          "name": "newAdminRole",
          "type": "bytes32"
        }
      ],
      "name": "RoleAdminChanged",
      "type": "event"
    },
    {
      "anonymous": false,
      "inputs": [
        {
          "indexed": true,
          "internalType": "bytes32",
          "name": "role",
          "type": "bytes32"
        },
        {
          "indexed": true,
          "internalType": "address",
          "name": "account",
          "type": "address"
        },
        {
          "indexed": true,
          "internalType": "address",
          "name": "sender",
          "type": "address"
        }
      ],
      "name": "RoleGranted",
      "type": "event"
    },
    {
      "anonymous": false,
      "inputs": [
        {
          "indexed": true,
          "internalType": "bytes32",
          "name": "role",
          "type": "bytes32"
        },
        {
          "indexed": true,
          "internalType": "address",
          "name": "account",
          "type": "address"
        },
        {
          "indexed": true,
          "internalType": "address",
          "name": "sender",
          "type": "address"
        }
      ],
      "name": "RoleRevoked",
      "type": "event"
    },
    {
      "anonymous": false,
      "inputs": [
        {
          "indexed": false,
          "internalType": "uint256",
          "name": "tokensSwapped",
          "type": "uint256"
        },
        {
          "indexed": false,
          "internalType": "uint256",
          "name": "ethReceived",
          "type": "uint256"
        },
        {
          "indexed": false,
          "internalType": "uint256",
          "name": "tokensIntoLiqudity",
          "type": "uint256"
        }
      ],
      "name": "SwapAndLiquify",
      "type": "event"
    },
    {
      "anonymous": false,
      "inputs": [
        {
          "indexed": false,
          "internalType": "bool",
          "name": "enabled",
          "type": "bool"
        }
      ],
      "name": "SwapAndLiquifyEnabledUpdated",
      "type": "event"
    },
    {
      "anonymous": false,
      "inputs": [
        {
          "indexed": true,
          "internalType": "address",
          "name": "from",
          "type": "address"
        },
        {
          "indexed": true,
          "internalType": "address",
          "name": "to",
          "type": "address"
        },
        {
          "indexed": false,
          "internalType": "uint256",
          "name": "value",
          "type": "uint256"
        }
      ],
      "name": "Transfer",
      "type": "event"
    },
    {
      "anonymous": false,
      "inputs": [
        {
          "indexed": false,
          "internalType": "address",
          "name": "account",
          "type": "address"
        }
      ],
      "name": "Unpaused",
      "type": "event"
    },
    {
      "inputs": [],
      "name": "DEFAULT_ADMIN_ROLE",
      "outputs": [
        {
          "internalType": "bytes32",
          "name": "",
          "type": "bytes32"
        }
      ],
      "stateMutability": "view",
      "type": "function",
      "constant": true
    },
    {
      "inputs": [],
      "name": "PAUSER_ROLE",
      "outputs": [
        {
          "internalType": "bytes32",
          "name": "",
          "type": "bytes32"
        }
      ],
      "stateMutability": "view",
      "type": "function",
      "constant": true
    },
    {
      "inputs": [],
      "name": "_liquidityFee",
      "outputs": [
        {
          "internalType": "uint256",
          "name": "",
          "type": "uint256"
        }
      ],
      "stateMutability": "view",
      "type": "function",
      "constant": true
    },
    {
      "inputs": [],
      "name": "_maxTxAmount",
      "outputs": [
        {
          "internalType": "uint256",
          "name": "",
          "type": "uint256"
        }
      ],
      "stateMutability": "view",
      "type": "function",
      "constant": true
    },
    {
      "inputs": [],
      "name": "_taxFee",
      "outputs": [
        {
          "internalType": "uint256",
          "name": "",
          "type": "uint256"
        }
      ],
      "stateMutability": "view",
      "type": "function",
      "constant": true
    },
    {
      "inputs": [
        {
          "internalType": "bytes32",
          "name": "role",
          "type": "bytes32"
        }
      ],
      "name": "getRoleAdmin",
      "outputs": [
        {
          "internalType": "bytes32",
          "name": "",
          "type": "bytes32"
        }
      ],
      "stateMutability": "view",
      "type": "function",
      "constant": true
    },
    {
      "inputs": [
        {
          "internalType": "bytes32",
          "name": "role",
          "type": "bytes32"
        },
        {
          "internalType": "uint256",
          "name": "index",
          "type": "uint256"
        }
      ],
      "name": "getRoleMember",
      "outputs": [
        {
          "internalType": "address",
          "name": "",
          "type": "address"
        }
      ],
      "stateMutability": "view",
      "type": "function",
      "constant": true
    },
    {
      "inputs": [
        {
          "internalType": "bytes32",
          "name": "role",
          "type": "bytes32"
        }
      ],
      "name": "getRoleMemberCount",
      "outputs": [
        {
          "internalType": "uint256",
          "name": "",
          "type": "uint256"
        }
      ],
      "stateMutability": "view",
      "type": "function",
      "constant": true
    },
    {
      "inputs": [
        {
          "internalType": "bytes32",
          "name": "role",
          "type": "bytes32"
        },
        {
          "internalType": "address",
          "name": "account",
          "type": "address"
        }
      ],
      "name": "grantRole",
      "outputs": [],
      "stateMutability": "nonpayable",
      "type": "function"
    },
    {
      "inputs": [
        {
          "internalType": "bytes32",
          "name": "role",
          "type": "bytes32"
        },
        {
          "internalType": "address",
          "name": "account",
          "type": "address"
        }
      ],
      "name": "hasRole",
      "outputs": [
        {
          "internalType": "bool",
          "name": "",
          "type": "bool"
        }
      ],
      "stateMutability": "view",
      "type": "function",
      "constant": true
    },
    {
      "inputs": [],
      "name": "owner",
      "outputs": [
        {
          "internalType": "address",
          "name": "",
          "type": "address"
        }
      ],
      "stateMutability": "view",
      "type": "function",
      "constant": true
    },
    {
      "inputs": [],
      "name": "paused",
      "outputs": [
        {
          "internalType": "bool",
          "name": "",
          "type": "bool"
        }
      ],
      "stateMutability": "view",
      "type": "function",
      "constant": true
    },
    {
      "inputs": [],
      "name": "renounceOwnership",
      "outputs": [],
      "stateMutability": "nonpayable",
      "type": "function"
    },
    {
      "inputs": [
        {
          "internalType": "bytes32",
          "name": "role",
          "type": "bytes32"
        },
        {
          "internalType": "address",
          "name": "account",
          "type": "address"
        }
      ],
      "name": "renounceRole",
      "outputs": [],
      "stateMutability": "nonpayable",
      "type": "function"
    },
    {
      "inputs": [
        {
          "internalType": "bytes32",
          "name": "role",
          "type": "bytes32"
        },
        {
          "internalType": "address",
          "name": "account",
          "type": "address"
        }
      ],
      "name": "revokeRole",
      "outputs": [],
      "stateMutability": "nonpayable",
      "type": "function"
    },
    {
      "inputs": [
        {
          "internalType": "bytes4",
          "name": "interfaceId",
          "type": "bytes4"
        }
      ],
      "name": "supportsInterface",
      "outputs": [
        {
          "internalType": "bool",
          "name": "",
          "type": "bool"
        }
      ],
      "stateMutability": "view",
      "type": "function",
      "constant": true
    },
    {
      "inputs": [],
      "name": "swapAndLiquifyEnabled",
      "outputs": [
        {
          "internalType": "bool",
          "name": "",
          "type": "bool"
        }
      ],
      "stateMutability": "view",
      "type": "function",
      "constant": true
    },
    {
      "inputs": [
        {
          "internalType": "address",
          "name": "newOwner",
          "type": "address"
        }
      ],
      "name": "transferOwnership",
      "outputs": [],
      "stateMutability": "nonpayable",
      "type": "function"
    },
    {
      "inputs": [],
      "name": "uniswapV2Pair",
      "outputs": [
        {
          "internalType": "address",
          "name": "",
          "type": "address"
        }
      ],
      "stateMutability": "view",
      "type": "function",
      "constant": true
    },
    {
      "inputs": [],
      "name": "uniswapV2Router",
      "outputs": [
        {
          "internalType": "contract IUniswapV2Router02",
          "name": "",
          "type": "address"
        }
      ],
      "stateMutability": "view",
      "type": "function",
      "constant": true
    },
    {
      "stateMutability": "payable",
      "type": "receive",
      "payable": true
    },
    {
      "inputs": [],
      "name": "name",
      "outputs": [
        {
          "internalType": "string",
          "name": "",
          "type": "string"
        }
      ],
      "stateMutability": "view",
      "type": "function",
      "constant": true
    },
    {
      "inputs": [],
      "name": "symbol",
      "outputs": [
        {
          "internalType": "string",
          "name": "",
          "type": "string"
        }
      ],
      "stateMutability": "view",
      "type": "function",
      "constant": true
    },
    {
      "inputs": [],
      "name": "decimals",
      "outputs": [
        {
          "internalType": "uint8",
          "name": "",
          "type": "uint8"
        }
      ],
      "stateMutability": "view",
      "type": "function",
      "constant": true
    },
    {
      "inputs": [],
      "name": "totalSupply",
      "outputs": [
        {
          "internalType": "uint256",
          "name": "",
          "type": "uint256"
        }
      ],
      "stateMutability": "view",
      "type": "function",
      "constant": true
    },
    {
      "inputs": [
        {
          "internalType": "address",
          "name": "account",
          "type": "address"
        }
      ],
      "name": "balanceOf",
      "outputs": [
        {
          "internalType": "uint256",
          "name": "",
          "type": "uint256"
        }
      ],
      "stateMutability": "view",
      "type": "function",
      "constant": true
    },
    {
      "inputs": [
        {
          "internalType": "address",
          "name": "recipient",
          "type": "address"
        },
        {
          "internalType": "uint256",
          "name": "amount",
          "type": "uint256"
        }
      ],
      "name": "transfer",
      "outputs": [
        {
          "internalType": "bool",
          "name": "",
          "type": "bool"
        }
      ],
      "stateMutability": "nonpayable",
      "type": "function"
    },
    {
      "inputs": [
        {
          "internalType": "address",
          "name": "_owner",
          "type": "address"
        },
        {
          "internalType": "address",
          "name": "spender",
          "type": "address"
        }
      ],
      "name": "allowance",
      "outputs": [
        {
          "internalType": "uint256",
          "name": "",
          "type": "uint256"
        }
      ],
      "stateMutability": "view",
      "type": "function",
      "constant": true
    },
    {
      "inputs": [
        {
          "internalType": "address",
          "name": "spender",
          "type": "address"
        },
        {
          "internalType": "uint256",
          "name": "amount",
          "type": "uint256"
        }
      ],
      "name": "approve",
      "outputs": [
        {
          "internalType": "bool",
          "name": "",
          "type": "bool"
        }
      ],
      "stateMutability": "nonpayable",
      "type": "function"
    },
    {
      "inputs": [
        {
          "internalType": "address",
          "name": "_sender",
          "type": "address"
        },
        {
          "internalType": "address",
          "name": "_recipient",
          "type": "address"
        },
        {
          "internalType": "uint256",
          "name": "_amount",
          "type": "uint256"
        }
      ],
      "name": "transferFrom",
      "outputs": [
        {
          "internalType": "bool",
          "name": "",
          "type": "bool"
        }
      ],
      "stateMutability": "nonpayable",
      "type": "function"
    },
    {
      "inputs": [
        {
          "internalType": "address",
          "name": "spender",
          "type": "address"
        },
        {
          "internalType": "uint256",
          "name": "addedValue",
          "type": "uint256"
        }
      ],
      "name": "increaseAllowance",
      "outputs": [
        {
          "internalType": "bool",
          "name": "",
          "type": "bool"
        }
      ],
      "stateMutability": "nonpayable",
      "type": "function"
    },
    {
      "inputs": [
        {
          "internalType": "address",
          "name": "spender",
          "type": "address"
        },
        {
          "internalType": "uint256",
          "name": "subtractedValue",
          "type": "uint256"
        }
      ],
      "name": "decreaseAllowance",
      "outputs": [
        {
          "internalType": "bool",
          "name": "",
          "type": "bool"
        }
      ],
      "stateMutability": "nonpayable",
      "type": "function"
    },
    {
      "inputs": [],
      "name": "pause",
      "outputs": [],
      "stateMutability": "nonpayable",
      "type": "function"
    },
    {
      "inputs": [],
      "name": "unpause",
      "outputs": [],
      "stateMutability": "nonpayable",
      "type": "function"
    },
    {
      "inputs": [
        {
          "internalType": "address",
          "name": "account",
          "type": "address"
        }
      ],
      "name": "isExcludedFromReward",
      "outputs": [
        {
          "internalType": "bool",
          "name": "",
          "type": "bool"
        }
      ],
      "stateMutability": "view",
      "type": "function",
      "constant": true
    },
    {
      "inputs": [],
      "name": "totalFees",
      "outputs": [
        {
          "internalType": "uint256",
          "name": "",
          "type": "uint256"
        }
      ],
      "stateMutability": "view",
      "type": "function",
      "constant": true
    },
    {
      "inputs": [
        {
          "internalType": "uint256",
          "name": "tAmount",
          "type": "uint256"
        }
      ],
      "name": "deliver",
      "outputs": [],
      "stateMutability": "nonpayable",
      "type": "function"
    },
    {
      "inputs": [
        {
          "internalType": "uint256",
          "name": "tAmount",
          "type": "uint256"
        },
        {
          "internalType": "bool",
          "name": "deductTransferFee",
          "type": "bool"
        }
      ],
      "name": "reflectionFromToken",
      "outputs": [
        {
          "internalType": "uint256",
          "name": "",
          "type": "uint256"
        }
      ],
      "stateMutability": "view",
      "type": "function",
      "constant": true
    },
    {
      "inputs": [
        {
          "internalType": "uint256",
          "name": "rAmount",
          "type": "uint256"
        }
      ],
      "name": "tokenFromReflection",
      "outputs": [
        {
          "internalType": "uint256",
          "name": "",
          "type": "uint256"
        }
      ],
      "stateMutability": "view",
      "type": "function",
      "constant": true
    },
    {
      "inputs": [
        {
          "internalType": "address",
          "name": "account",
          "type": "address"
        }
      ],
      "name": "excludeFromReward",
      "outputs": [],
      "stateMutability": "nonpayable",
      "type": "function"
    },
    {
      "inputs": [
        {
          "internalType": "address",
          "name": "account",
          "type": "address"
        }
      ],
      "name": "includeInReward",
      "outputs": [],
      "stateMutability": "nonpayable",
      "type": "function"
    },
    {
      "inputs": [
        {
          "internalType": "address",
          "name": "account",
          "type": "address"
        }
      ],
      "name": "excludeFromFee",
      "outputs": [],
      "stateMutability": "nonpayable",
      "type": "function"
    },
    {
      "inputs": [
        {
          "internalType": "address",
          "name": "account",
          "type": "address"
        }
      ],
      "name": "includeInFee",
      "outputs": [],
      "stateMutability": "nonpayable",
      "type": "function"
    },
    {
      "inputs": [
        {
          "internalType": "uint256",
          "name": "taxFee",
          "type": "uint256"
        }
      ],
      "name": "setTaxFeePercent",
      "outputs": [],
      "stateMutability": "nonpayable",
      "type": "function"
    },
    {
      "inputs": [
        {
          "internalType": "uint256",
          "name": "liquidityFee",
          "type": "uint256"
        }
      ],
      "name": "setLiquidityFeePercent",
      "outputs": [],
      "stateMutability": "nonpayable",
      "type": "function"
    },
    {
      "inputs": [
        {
          "internalType": "uint256",
          "name": "maxTxPercent",
          "type": "uint256"
        }
      ],
      "name": "setMaxTxPercent",
      "outputs": [],
      "stateMutability": "nonpayable",
      "type": "function"
    },
    {
      "inputs": [
        {
          "internalType": "bool",
          "name": "_enabled",
          "type": "bool"
        }
      ],
      "name": "setSwapAndLiquifyEnabled",
      "outputs": [],
      "stateMutability": "nonpayable",
      "type": "function"
    },
    {
      "inputs": [
        {
          "internalType": "address",
          "name": "account",
          "type": "address"
        }
      ],
      "name": "isExcludedFromFee",
      "outputs": [
        {
          "internalType": "bool",
          "name": "",
          "type": "bool"
        }
      ],
      "stateMutability": "view",
      "type": "function",
      "constant": true
    }
  ],
  "bytecode": "0x60a060405269021e19e0c9bab2400000600b8190556200002290600019620008c6565b620000309060001962000833565b600c5560408051808201909152600b8082527f48756e67727950616e646100000000000000000000000000000000000000000060209092019182526200007991600e9162000727565b506040805180820190915260058082527f484750414e0000000000000000000000000000000000000000000000000000006020909201918252620000c091600f9162000727565b506010805460ff1916600917905560076011819055601281905560138190556014556015805460a860020a60ff021916750100000000000000000000000000000000000000000017905568056bc75e2d6310000060168190556017553480156200012957600080fd5b5060405162003e6b38038062003e6b8339810160408190526200014c91620007ea565b60006200016164010000000062000391810204565b60008054600160a060020a031916600160a060020a0383169081178255604051929350917f8be0079c531659141344cd1fd0a4f28419497f9722a3daafe3b4186f6b6457e0908290a3506003805460ff19169055620001dd6000620001ce64010000000062000391810204565b64010000000062000395810204565b6200020460008051602062003e4b833981519152620001ce64010000000062000391810204565b6200022860008051602062003e4b8339815191528264010000000062000395810204565b6200023b640100000000620003dc810204565b6003805461010060a860020a031916610100600160a060020a03858116919091029190911790915560048054600160a060020a031916918316919091179055600c54600560006200029464010000000062000391810204565b600160a060020a039081168252602082019290925260400160009081209290925584166c01000000000000000000000000026080528390600190600890620002e4640100000000620004b9810204565b600160a060020a0316815260208082019290925260409081016000908120805494151560ff1995861617905530815260089092529020805490911660011790556200033764010000000062000391810204565b600160a060020a03166000600160a060020a03167fddf252ad1be2c89b69c2b068fc378daa952ba7f163c4a11628f55a4df523b3ef600b546040516200037f91815260200190565b60405180910390a35050505062000900565b3390565b620003af82826401000000006200173a620004c882021704565b6000828152600260205260409020620003d7908264010000000062001744620004e182021704565b505050565b6200041260008051602062003e4b8339815191526200040364010000000062000391810204565b6401000000006200050a810204565b620004a4576040517f08c379a000000000000000000000000000000000000000000000000000000000815260206004820152602b60248201527f48756e67727950616e64613a206d75737420686176652070617573657220726f60448201527f6c6520746f20706175736500000000000000000000000000000000000000000060648201526084015b60405180910390fd5b620004b764010000000062000535810204565b565b600054600160a060020a031690565b620004dd82826401000000006200060f810204565b5050565b60006200050183600160a060020a038416640100000000620006ae810204565b90505b92915050565b6000918252600160209081526040808420600160a060020a0393909316845291905290205460ff1690565b6200054864010000000062000706810204565b15620005b1576040517f08c379a000000000000000000000000000000000000000000000000000000000815260206004820152601060248201527f5061757361626c653a207061757365640000000000000000000000000000000060448201526064016200049b565b6003805460ff191660011790557f62e78cea01bee320cd4e420270b5ea74000d11b0c9f74754ebdbfc544b05a258620005f264010000000062000391810204565b604051600160a060020a03909116815260200160405180910390a1565b6200062482826401000000006200050a810204565b620004dd576000828152600160208181526040808420600160a060020a0386168552909152909120805460ff191690911790556200066a64010000000062000391810204565b600160a060020a031681600160a060020a0316837f2f8788117e7eff1d82e926ec794901d17c78024a50270940304540a733656f0d60405160405180910390a45050565b6000620006c583836401000000006200070f810204565b620006fd5750815460018181018455600084815260208082209093018490558454848252828601909352604090209190915562000504565b50600062000504565b60035460ff1690565b60009081526001919091016020526040902054151590565b828054620007359062000870565b90600052602060002090601f016020900481019282620007595760008555620007a4565b82601f106200077457805160ff1916838001178555620007a4565b82800160010185558215620007a4579182015b82811115620007a457825182559160200191906001019062000787565b50620007b2929150620007b6565b5090565b5b80821115620007b25760008155600101620007b7565b8051600160a060020a0381168114620007e557600080fd5b919050565b600080600060608486031215620007ff578283fd5b6200080a84620007cd565b92506200081a60208501620007cd565b91506200082a60408501620007cd565b90509250925092565b6000828210156200086b577f4e487b710000000000000000000000000000000000000000000000000000000081526011600452602481fd5b500390565b6002810460018216806200088557607f821691505b60208210811415620008c0577f4e487b7100000000000000000000000000000000000000000000000000000000600052602260045260246000fd5b50919050565b600082620008fb577f4e487b710000000000000000000000000000000000000000000000000000000081526012600452602481fd5b500690565b6080516c0100000000000000000000000090046134fc6200094f600039600081816103660152818161275e0152818161283a0152818161288f01528181612901015261292801526134fc6000f3fe6080604052600436106102905760003560e060020a900480635342acb41161015e57806395d89b41116100c5578063d543dbeb1161007e578063d543dbeb146107ee578063d547741f1461080e578063dd62ed3e1461082e578063e63ab1e914610874578063ea2f0b37146108a8578063f2fde38b146108c857600080fd5b806395d89b4114610744578063a217fddf14610759578063a457c2d71461076e578063a9059cbb1461078e578063c49b9a80146107ae578063ca15c873146107ce57600080fd5b80638456cb59116101175780638456cb591461067857806388f820201461068d5780638da5cb5b146106c65780638ee88c53146106e45780639010d07c1461070457806391d148541461072457600080fd5b80635342acb4146105c65780635c975abb146105ff5780636bc87c3a1461061757806370a082311461062d578063715018a61461064d5780637d1db4a51461066257600080fd5b8063313ce567116102025780633f4ba83a116101bb5780633f4ba83a146104fe578063437823ec146105135780634549b0391461053357806349bd5a5e146105535780634a74bb021461057357806352390c02146105a657600080fd5b8063313ce5671461044657806336568abe146104685780633685d4191461048857806339509351146104a85780633b124fe7146104c85780633bd5d173146104de57600080fd5b80631694505e116102545780631694505e1461035457806318160ddd146103a057806323b872dd146103b5578063248a9ca3146103d55780632d838119146104065780632f2ff15d1461042657600080fd5b806301ffc9a71461029c578063061c82d0146102d157806306fdde03146102f3578063095ea7b31461031557806313114a9d1461033557600080fd5b3661029757005b600080fd5b3480156102a857600080fd5b506102bc6102b73660046131af565b6108e8565b60405190151581526020015b60405180910390f35b3480156102dd57600080fd5b506102f16102ec366004613152565b61092c565b005b3480156102ff57600080fd5b50610308610967565b6040516102c891906132b0565b34801561032157600080fd5b506102bc61033036600461310d565b6109f9565b34801561034157600080fd5b50600d545b6040519081526020016102c8565b34801561036057600080fd5b506103887f000000000000000000000000000000000000000000000000000000000000000081565b604051600160a060020a0390911681526020016102c8565b3480156103ac57600080fd5b50600b54610346565b3480156103c157600080fd5b506102bc6103d03660046130cd565b610a0f565b3480156103e157600080fd5b506103466103f0366004613152565b6000908152600160208190526040909120015490565b34801561041257600080fd5b50610346610421366004613152565b610ad3565b34801561043257600080fd5b506102f161044136600461316a565b610b6d565b34801561045257600080fd5b5060105460405160ff90911681526020016102c8565b34801561047457600080fd5b506102f161048336600461316a565b610b94565b34801561049457600080fd5b506102f16104a336600461305d565b610bb6565b3480156104b457600080fd5b506102bc6104c336600461310d565b610dd1565b3480156104d457600080fd5b5061034660115481565b3480156104ea57600080fd5b506102f16104f9366004613152565b610e08565b34801561050a57600080fd5b506102f1610f08565b34801561051f57600080fd5b506102f161052e36600461305d565b610fb1565b34801561053f57600080fd5b5061034661054e3660046131d7565b611002565b34801561055f57600080fd5b5060155461038890600160a060020a031681565b34801561057f57600080fd5b506015546102bc907501000000000000000000000000000000000000000000900460ff1681565b3480156105b257600080fd5b506102f16105c136600461305d565b611092565b3480156105d257600080fd5b506102bc6105e136600461305d565b600160a060020a031660009081526008602052604090205460ff1690565b34801561060b57600080fd5b5060035460ff166102bc565b34801561062357600080fd5b5061034660135481565b34801561063957600080fd5b5061034661064836600461305d565b6111f8565b34801561065957600080fd5b506102f1611257565b34801561066e57600080fd5b5061034660165481565b34801561068457600080fd5b506102f16112db565b34801561069957600080fd5b506102bc6106a836600461305d565b600160a060020a031660009081526009602052604090205460ff1690565b3480156106d257600080fd5b50600054600160a060020a0316610388565b3480156106f057600080fd5b506102f16106ff366004613152565b611382565b34801561071057600080fd5b5061038861071f36600461318e565b6113b4565b34801561073057600080fd5b506102bc61073f36600461316a565b6113cc565b34801561075057600080fd5b506103086113f7565b34801561076557600080fd5b50610346600081565b34801561077a57600080fd5b506102bc61078936600461310d565b611406565b34801561079a57600080fd5b506102bc6107a936600461310d565b61143d565b3480156107ba57600080fd5b506102f16107c9366004613138565b6114c1565b3480156107da57600080fd5b506103466107e9366004613152565b61156a565b3480156107fa57600080fd5b506102f1610809366004613152565b611581565b34801561081a57600080fd5b506102f161082936600461316a565b6115ce565b34801561083a57600080fd5b50610346610849366004613095565b600160a060020a03918216600090815260076020908152604080832093909416825291909152205490565b34801561088057600080fd5b506103467f65d7a28e3265b37a6474929f336521b332c1681b933f6cb9f3376673440d862a81565b3480156108b457600080fd5b506102f16108c336600461305d565b6115d8565b3480156108d457600080fd5b506102f16108e336600461305d565b611626565b6000600160e060020a031982167f5a05180f000000000000000000000000000000000000000000000000000000001480610926575061092682611759565b92915050565b600054600160a060020a031633146109625760405160e560020a62461bcd028152600401610959906132e3565b60405180910390fd5b601155565b6060600e80546109769061343c565b80601f01602080910402602001604051908101604052809291908181526020018280546109a29061343c565b80156109ef5780601f106109c4576101008083540402835291602001916109ef565b820191906000526020600020905b8154815290600101906020018083116109d257829003601f168201915b5050505050905090565b6000610a063384846117c0565b50600192915050565b600454600090600160a060020a031633600160a060020a031614610a835760035460ff1615610a835760405160e560020a62461bcd02815260206004820152601b60248201527f546f6b656e207472616e73666572207768696c652070617573656400000000006044820152606401610959565b610a8e84848461191f565b600160a060020a038416600090815260076020908152604080832033808552925290912054610ac9918691610ac49086906133e2565b6117c0565b5060019392505050565b6000600c54821115610b505760405160e560020a62461bcd02815260206004820152602a60248201527f416d6f756e74206d757374206265206c657373207468616e20746f74616c207260448201527f65666c656374696f6e73000000000000000000000000000000000000000000006064820152608401610959565b6000610b5a611c3f565b9050610b6681846133a0565b9392505050565b610b778282611c62565b6000828152600260205260409020610b8f9082611744565b505050565b610b9e8282611c89565b6000828152600260205260409020610b8f9082611d14565b600054600160a060020a03163314610be35760405160e560020a62461bcd028152600401610959906132e3565b600160a060020a03811660009081526009602052604090205460ff16610c4e5760405160e560020a62461bcd02815260206004820152601b60248201527f4163636f756e7420697320616c7265616479206578636c7564656400000000006044820152606401610959565b60005b600a54811015610dcd5781600160a060020a0316600a8281548110610c895760e060020a634e487b7102600052603260045260246000fd5b600091825260209091200154600160a060020a03161415610dbb57600a8054610cb4906001906133e2565b81548110610cd55760e060020a634e487b7102600052603260045260246000fd5b600091825260209091200154600a8054600160a060020a039092169183908110610d125760e060020a634e487b7102600052603260045260246000fd5b6000918252602080832091909101805473ffffffffffffffffffffffffffffffffffffffff1916600160a060020a039485161790559184168152600682526040808220829055600990925220805460ff19169055600a805480610d885760e060020a634e487b7102600052603160045260246000fd5b6000828152602090208101600019908101805473ffffffffffffffffffffffffffffffffffffffff191690550190555050565b80610dc58161347a565b915050610c51565b5050565b336000818152600760209081526040808320600160a060020a03871684529091528120549091610a06918590610ac4908690613388565b3360008181526009602052604090205460ff1615610e915760405160e560020a62461bcd02815260206004820152602c60248201527f4578636c75646564206164647265737365732063616e6e6f742063616c6c207460448201527f6869732066756e6374696f6e00000000000000000000000000000000000000006064820152608401610959565b6000610e9c83611d29565b50505050600160a060020a038416600090815260056020526040902054919250610ec8918391506133e2565b600160a060020a038316600090815260056020526040902055600c54610eef9082906133e2565b600c55600d54610f00908490613388565b600d55505050565b610f327f65d7a28e3265b37a6474929f336521b332c1681b933f6cb9f3376673440d862a336113cc565b610fa75760405160e560020a62461bcd02815260206004820152602d60248201527f48756e67727950616e64613a206d75737420686176652070617573657220726f60448201527f6c6520746f20756e7061757365000000000000000000000000000000000000006064820152608401610959565b610faf611d78565b565b600054600160a060020a03163314610fde5760405160e560020a62461bcd028152600401610959906132e3565b600160a060020a03166000908152600860205260409020805460ff19166001179055565b6000600b548311156110595760405160e560020a62461bcd02815260206004820152601f60248201527f416d6f756e74206d757374206265206c657373207468616e20737570706c79006044820152606401610959565b8161107857600061106984611d29565b50939550610926945050505050565b600061108384611d29565b50929550610926945050505050565b600054600160a060020a031633146110bf5760405160e560020a62461bcd028152600401610959906132e3565b600160a060020a03811660009081526009602052604090205460ff161561112b5760405160e560020a62461bcd02815260206004820152601b60248201527f4163636f756e7420697320616c7265616479206578636c7564656400000000006044820152606401610959565b600160a060020a0381166000908152600560205260409020541561118557600160a060020a03811660009081526005602052604090205461116b90610ad3565b600160a060020a0382166000908152600660205260409020555b600160a060020a03166000818152600960205260408120805460ff19166001908117909155600a805491820181559091527fc65a7bb8d6351c1cf70c95a316cc6a92839c986682d98bc35f958f4883f9d2a801805473ffffffffffffffffffffffffffffffffffffffff19169091179055565b600160a060020a03811660009081526009602052604081205460ff16156112355750600160a060020a031660009081526006602052604090205490565b600160a060020a03821660009081526005602052604090205461092690610ad3565b600054600160a060020a031633146112845760405160e560020a62461bcd028152600401610959906132e3565b60008054604051600160a060020a03909116907f8be0079c531659141344cd1fd0a4f28419497f9722a3daafe3b4186f6b6457e0908390a36000805473ffffffffffffffffffffffffffffffffffffffff19169055565b6113057f65d7a28e3265b37a6474929f336521b332c1681b933f6cb9f3376673440d862a336113cc565b61137a5760405160e560020a62461bcd02815260206004820152602b60248201527f48756e67727950616e64613a206d75737420686176652070617573657220726f60448201527f6c6520746f2070617573650000000000000000000000000000000000000000006064820152608401610959565b610faf611e17565b600054600160a060020a031633146113af5760405160e560020a62461bcd028152600401610959906132e3565b601355565b6000828152600260205260408120610b669083611ea2565b6000918252600160209081526040808420600160a060020a0393909316845291905290205460ff1690565b6060600f80546109769061343c565b336000818152600760209081526040808320600160a060020a03871684529091528120549091610a06918590610ac49086906133e2565b6003546000906101009004600160a060020a031633600160a060020a0316146114b65760035460ff16156114b65760405160e560020a62461bcd02815260206004820152601b60248201527f546f6b656e207472616e73666572207768696c652070617573656400000000006044820152606401610959565b610a0633848461191f565b600054600160a060020a031633146114ee5760405160e560020a62461bcd028152600401610959906132e3565b6015805482151575010000000000000000000000000000000000000000000275ff000000000000000000000000000000000000000000199091161790556040517f53726dfcaf90650aa7eb35524f4d3220f07413c8d6cb404cc8c18bf5591bc1599061155f90831515815260200190565b60405180910390a150565b600081815260026020526040812061092690611eae565b600054600160a060020a031633146115ae5760405160e560020a62461bcd028152600401610959906132e3565b606481600b546115be91906133c3565b6115c891906133a0565b60165550565b610b9e8282611eb8565b600054600160a060020a031633146116055760405160e560020a62461bcd028152600401610959906132e3565b600160a060020a03166000908152600860205260409020805460ff19169055565b600054600160a060020a031633146116535760405160e560020a62461bcd028152600401610959906132e3565b600160a060020a0381166116d25760405160e560020a62461bcd02815260206004820152602660248201527f4f776e61626c653a206e6577206f776e657220697320746865207a65726f206160448201527f64647265737300000000000000000000000000000000000000000000000000006064820152608401610959565b60008054604051600160a060020a03808516939216917f8be0079c531659141344cd1fd0a4f28419497f9722a3daafe3b4186f6b6457e091a36000805473ffffffffffffffffffffffffffffffffffffffff1916600160a060020a0392909216919091179055565b610dcd8282611edf565b6000610b6683600160a060020a038416611f4a565b6000600160e060020a031982167f7965db0b00000000000000000000000000000000000000000000000000000000148061092657507f01ffc9a700000000000000000000000000000000000000000000000000000000600160e060020a0319831614610926565b600160a060020a03831661183f5760405160e560020a62461bcd02815260206004820152602a60248201527f48756e67727950616e64613a20617070726f76652066726f6d20746865207a6560448201527f726f2061646472657373000000000000000000000000000000000000000000006064820152608401610959565b600160a060020a0382166118be5760405160e560020a62461bcd02815260206004820152602860248201527f48756e67727950616e64613a20617070726f766520746f20746865207a65726f60448201527f20616464726573730000000000000000000000000000000000000000000000006064820152608401610959565b600160a060020a0383811660008181526007602090815260408083209487168084529482529182902085905590518481527f8c5be1e5ebec7d5bd14f71427d1e84f3dd0314c0f7b2291e5b200ac8c7c3b925910160405180910390a3505050565b600160a060020a03831661199e5760405160e560020a62461bcd02815260206004820152602b60248201527f48756e67727950616e64613a207472616e736665722066726f6d20746865207a60448201527f65726f20616464726573730000000000000000000000000000000000000000006064820152608401610959565b600160a060020a038216611a1d5760405160e560020a62461bcd02815260206004820152602960248201527f48756e67727950616e64613a207472616e7366657220746f20746865207a657260448201527f6f206164647265737300000000000000000000000000000000000000000000006064820152608401610959565b60008111611a965760405160e560020a62461bcd02815260206004820152602960248201527f5472616e7366657220616d6f756e74206d75737420626520677265617465722060448201527f7468616e207a65726f00000000000000000000000000000000000000000000006064820152608401610959565b600054600160a060020a03848116911614801590611ac25750600054600160a060020a03838116911614155b15611b4257601654811115611b425760405160e560020a62461bcd02815260206004820152602860248201527f5472616e7366657220616d6f756e74206578636565647320746865206d61785460448201527f78416d6f756e742e0000000000000000000000000000000000000000000000006064820152608401610959565b6000611b4d306111f8565b90506016548110611b5d57506016545b60175481108015908190611b8c575060155474010000000000000000000000000000000000000000900460ff16155b8015611ba65750601554600160a060020a03868116911614155b8015611bcd57506015547501000000000000000000000000000000000000000000900460ff165b15611be0576017549150611be082611f99565b600160a060020a03851660009081526008602052604090205460019060ff1680611c225750600160a060020a03851660009081526008602052604090205460ff165b15611c2b575060005b611c3786868684612075565b505050505050565b6000806000611c4c6121f2565b9092509050611c5b81836133a0565b9250505090565b60008281526001602081905260409091200154611c7f81336123b9565b610b8f8383611edf565b600160a060020a0381163314611d0a5760405160e560020a62461bcd02815260206004820152602f60248201527f416363657373436f6e74726f6c3a2063616e206f6e6c792072656e6f756e636560448201527f20726f6c657320666f722073656c6600000000000000000000000000000000006064820152608401610959565b610dcd8282612420565b6000610b6683600160a060020a038416612487565b6000806000806000806000806000611d408a6125a7565b9250925092506000806000611d5e8d8686611d59611c3f565b6125ea565b919f909e50909c50959a5093985091965092945050505050565b60035460ff16611dcd5760405160e560020a62461bcd02815260206004820152601460248201527f5061757361626c653a206e6f74207061757365640000000000000000000000006044820152606401610959565b6003805460ff191690557f5db9ee0a495bf2e6ff9c91a7834c1ba4fdd244a5e8aa4e537bd38aeae4b073aa335b604051600160a060020a03909116815260200160405180910390a1565b60035460ff1615611e6d5760405160e560020a62461bcd02815260206004820152601060248201527f5061757361626c653a20706175736564000000000000000000000000000000006044820152606401610959565b6003805460ff191660011790557f62e78cea01bee320cd4e420270b5ea74000d11b0c9f74754ebdbfc544b05a258611dfa3390565b6000610b668383612641565b6000610926825490565b60008281526001602081905260409091200154611ed581336123b9565b610b8f8383612420565b611ee982826113cc565b610dcd576000828152600160208181526040808420600160a060020a0386168086529252808420805460ff19169093179092559051339285917f2f8788117e7eff1d82e926ec794901d17c78024a50270940304540a733656f0d9190a45050565b6000818152600183016020526040812054611f9157508154600181810184556000848152602080822090930184905584548482528286019093526040902091909155610926565b506000610926565b6015805474ff00000000000000000000000000000000000000001916740100000000000000000000000000000000000000001790556000611fdb6002836133a0565b90506000611fe982846133e2565b90503031611ff6836126f6565b60006120038230316133e2565b905061200f83826128fb565b60408051858152602081018390529081018490527f17bbfb9a6069321b6ded73bd96327c9e6b7212a5cd51ff219cd61370acafb5619060600160405180910390a150506015805474ff000000000000000000000000000000000000000019169055505050565b8061208257612082612a0e565b600160a060020a03841660009081526009602052604090205460ff1680156120c35750600160a060020a03831660009081526009602052604090205460ff16155b156120d8576120d3848484612a3c565b6121d6565b600160a060020a03841660009081526009602052604090205460ff161580156121195750600160a060020a03831660009081526009602052604090205460ff165b15612129576120d3848484612b65565b600160a060020a03841660009081526009602052604090205460ff1615801561216b5750600160a060020a03831660009081526009602052604090205460ff16155b1561217b576120d3848484612c11565b600160a060020a03841660009081526009602052604090205460ff1680156121bb5750600160a060020a03831660009081526009602052604090205460ff165b156121cb576120d3848484612c56565b6121d6848484612c11565b806121ec576121ec601254601155601454601355565b50505050565b600c54600b546000918291825b600a54811015612388578260056000600a84815481106122325760e060020a634e487b7102600052603260045260246000fd5b6000918252602080832090910154600160a060020a0316835282019290925260400190205411806122ae57508160066000600a84815481106122875760e060020a634e487b7102600052603260045260246000fd5b6000918252602080832090910154600160a060020a03168352820192909252604001902054115b156122c457600c54600b54945094505050509091565b60056000600a83815481106122ec5760e060020a634e487b7102600052603260045260246000fd5b6000918252602080832090910154600160a060020a0316835282019290925260400190205461231b90846133e2565b925060066000600a83815481106123455760e060020a634e487b7102600052603260045260246000fd5b6000918252602080832090910154600160a060020a0316835282019290925260400190205461237490836133e2565b9150806123808161347a565b9150506121ff565b50600b54600c5461239991906133a0565b8210156123b057600c54600b549350935050509091565b90939092509050565b6123c382826113cc565b610dcd576123db81600160a060020a03166014612ccb565b6123e6836020612ccb565b6040516020016123f792919061322f565b60408051601f198184030181529082905260e560020a62461bcd028252610959916004016132b0565b61242a82826113cc565b15610dcd576000828152600160209081526040808320600160a060020a0385168085529252808320805460ff1916905551339285917ff6391f5c32d9c69d2a47ea670b442974b53935d1edc7fd64eb21e047a839171b9190a45050565b6000818152600183016020526040812054801561259d5760006124ab6001836133e2565b85549091506000906124bf906001906133e2565b905060008660000182815481106124e95760e060020a634e487b7102600052603260045260246000fd5b906000526020600020015490508087600001848154811061251d5760e060020a634e487b7102600052603260045260246000fd5b6000918252602080832090910192909255828152600189019091526040902084905586548790806125615760e060020a634e487b7102600052603160045260246000fd5b60019003818190600052602060002001600090559055866001016000878152602001908152602001600020600090556001945050505050610926565b6000915050610926565b6000806000806125b685612f6a565b905060006125c386612f86565b90506000816125d284896133e2565b6125dc91906133e2565b979296509094509092505050565b60008080806125f985896133c3565b9050600061260786896133c3565b9050600061261587896133c3565b905060008161262484866133e2565b61262e91906133e2565b939b939a50919850919650505050505050565b815460009082106126bd5760405160e560020a62461bcd02815260206004820152602260248201527f456e756d657261626c655365743a20696e646578206f7574206f6620626f756e60448201527f64730000000000000000000000000000000000000000000000000000000000006064820152608401610959565b8260000182815481106126e35760e060020a634e487b7102600052603260045260246000fd5b9060005260206000200154905092915050565b604080516002808252606082018352600092602083019080368337019050509050308160008151811061273c5760e060020a634e487b7102600052603260045260246000fd5b6020026020010190600160a060020a03169081600160a060020a0316815250507f0000000000000000000000000000000000000000000000000000000000000000600160a060020a031663ad5c46486040518163ffffffff1660e060020a02815260040160206040518083038186803b1580156127b857600080fd5b505afa1580156127cc573d6000803e3d6000fd5b505050506040513d601f19601f820116820180604052508101906127f09190613079565b816001815181106128145760e060020a634e487b7102600052603260045260246000fd5b6020026020010190600160a060020a03169081600160a060020a03168152505061285f307f0000000000000000000000000000000000000000000000000000000000000000846117c0565b6040517f791ac947000000000000000000000000000000000000000000000000000000008152600160a060020a037f0000000000000000000000000000000000000000000000000000000000000000169063791ac947906128cd908590600090869030904290600401613318565b600060405180830381600087803b1580156128e757600080fd5b505af1158015611c37573d6000803e3d6000fd5b612926307f0000000000000000000000000000000000000000000000000000000000000000846117c0565b7f0000000000000000000000000000000000000000000000000000000000000000600160a060020a031663f305d71982308560008061296d600054600160a060020a031690565b60405163ffffffff881660e060020a028152600160a060020a03958616600482015260248101949094526044840192909252606483015290911660848201524260a482015260c4016060604051808303818588803b1580156129ce57600080fd5b505af11580156129e2573d6000803e3d6000fd5b50505050506040513d601f19601f82011682018060405250810190612a079190613202565b5050505050565b601154158015612a1e5750601354155b15612a2557565b601180546012556013805460145560009182905555565b600080600080600080612a4e87611d29565b600160a060020a038f16600090815260066020526040902054959b50939950919750955093509150612a819088906133e2565b600160a060020a038a16600090815260066020908152604080832093909355600590522054612ab19087906133e2565b600160a060020a03808b1660009081526005602052604080822093909355908a1681522054612ae1908690613388565b600160a060020a038916600090815260056020526040902055612b0381612f98565b612b0d8483613022565b87600160a060020a031689600160a060020a03167fddf252ad1be2c89b69c2b068fc378daa952ba7f163c4a11628f55a4df523b3ef85604051612b5291815260200190565b60405180910390a3505050505050505050565b600080600080600080612b7787611d29565b600160a060020a038f16600090815260056020526040902054959b50939950919750955093509150612baa9087906133e2565b600160a060020a03808b16600090815260056020908152604080832094909455918b16815260069091522054612be1908490613388565b600160a060020a038916600090815260066020908152604080832093909355600590522054612ae1908690613388565b600080600080600080612c2387611d29565b600160a060020a038f16600090815260056020526040902054959b50939950919750955093509150612ab19087906133e2565b600080600080600080612c6887611d29565b600160a060020a038f16600090815260066020526040902054959b50939950919750955093509150612c9b9088906133e2565b600160a060020a038a16600090815260066020908152604080832093909355600590522054612baa9087906133e2565b60606000612cda8360026133c3565b612ce5906002613388565b67ffffffffffffffff811115612d0e5760e060020a634e487b7102600052604160045260246000fd5b6040519080825280601f01601f191660200182016040528015612d38576020820181803683370190505b5090507f300000000000000000000000000000000000000000000000000000000000000081600081518110612d805760e060020a634e487b7102600052603260045260246000fd5b60200101907effffffffffffffffffffffffffffffffffffffffffffffffffffffffffffff1916908160001a9053507f780000000000000000000000000000000000000000000000000000000000000081600181518110612df45760e060020a634e487b7102600052603260045260246000fd5b60200101907effffffffffffffffffffffffffffffffffffffffffffffffffffffffffffff1916908160001a9053506000612e308460026133c3565b612e3b906001613388565b90505b6001811115612f18577f303132333435363738396162636465660000000000000000000000000000000085600f1660108110612e8d5760e060020a634e487b7102600052603260045260246000fd5b1a7f010000000000000000000000000000000000000000000000000000000000000002828281518110612ed35760e060020a634e487b7102600052603260045260246000fd5b60200101907effffffffffffffffffffffffffffffffffffffffffffffffffffffffffffff1916908160001a905350601090940493612f1181613425565b9050612e3e565b508315610b665760405160e560020a62461bcd02815260206004820181905260248201527f537472696e67733a20686578206c656e67746820696e73756666696369656e746044820152606401610959565b6000606460115483612f7c91906133c3565b61092691906133a0565b6000606460135483612f7c91906133c3565b6000612fa2611c3f565b90506000612fb082846133c3565b30600090815260056020526040902054909150612fce908290613388565b3060009081526005602090815260408083209390935560099052205460ff1615610b8f573060009081526006602052604090205461300d908490613388565b30600090815260066020526040902055505050565b81600c5461303091906133e2565b600c55600d54613041908290613388565b600d555050565b8035801515811461305857600080fd5b919050565b60006020828403121561306e578081fd5b8135610b66816134ae565b60006020828403121561308a578081fd5b8151610b66816134ae565b600080604083850312156130a7578081fd5b82356130b2816134ae565b915060208301356130c2816134ae565b809150509250929050565b6000806000606084860312156130e1578081fd5b83356130ec816134ae565b925060208401356130fc816134ae565b929592945050506040919091013590565b6000806040838503121561311f578182fd5b823561312a816134ae565b946020939093013593505050565b600060208284031215613149578081fd5b610b6682613048565b600060208284031215613163578081fd5b5035919050565b6000806040838503121561317c578182fd5b8235915060208301356130c2816134ae565b600080604083850312156131a0578182fd5b50508035926020909101359150565b6000602082840312156131c0578081fd5b8135600160e060020a031981168114610b66578182fd5b600080604083850312156131e9578182fd5b823591506131f960208401613048565b90509250929050565b600080600060608486031215613216578283fd5b8351925060208401519150604084015190509250925092565b7f416363657373436f6e74726f6c3a206163636f756e74200000000000000000008152600083516132678160178501602088016133f9565b7f206973206d697373696e6720726f6c652000000000000000000000000000000060179184019182015283516132a48160288401602088016133f9565b01602801949350505050565b60208152600082518060208401526132cf8160408501602087016133f9565b601f01601f19169190910160400192915050565b6020808252818101527f4f776e61626c653a2063616c6c6572206973206e6f7420746865206f776e6572604082015260600190565b600060a082018783526020878185015260a0604085015281875180845260c0860191508289019350845b81811015613367578451600160a060020a031683529383019391830191600101613342565b5050600160a060020a03969096166060850152505050608001529392505050565b6000821982111561339b5761339b613495565b500190565b6000826133be5760e060020a634e487b710281526012600452602481fd5b500490565b60008160001904831182151516156133dd576133dd613495565b500290565b6000828210156133f4576133f4613495565b500390565b60005b838110156134145781810151838201526020016133fc565b838111156121ec5750506000910152565b60008161343457613434613495565b506000190190565b60028104600182168061345057607f821691505b602082108114156134745760e060020a634e487b7102600052602260045260246000fd5b50919050565b600060001982141561348e5761348e613495565b5060010190565b60e060020a634e487b7102600052601160045260246000fd5b600160a060020a03811681146134c357600080fd5b5056fea2646970667358221220c34b0a05197f4c84a17cab39e70d8c3a1b0b0aa76da341c3b61e5696e64599e264736f6c6343000804003365d7a28e3265b37a6474929f336521b332c1681b933f6cb9f3376673440d862a",
  "immutableReferences": {
    "109": [
      {
        "length": 32,
        "start": 870
      },
      {
        "length": 32,
        "start": 10078
      },
      {
        "length": 32,
        "start": 10298
      },
      {
        "length": 32,
        "start": 10383
      },
      {
        "length": 32,
        "start": 10497
      },
      {
        "length": 32,
        "start": 10536
      }
    ]
  },
  "source": "// SPDX-License-Identifier: MIT\npragma solidity >=0.8.4 <0.9.0;\n\nimport \"@openzeppelin/contracts/utils/Address.sol\";\nimport \"@openzeppelin/contracts/utils/Context.sol\";\nimport \"@openzeppelin/contracts/token/ERC20/IERC20.sol\";\nimport \"@openzeppelin/contracts/access/Ownable.sol\";\nimport \"@openzeppelin/contracts/security/Pausable.sol\";\nimport \"@openzeppelin/contracts/access/AccessControlEnumerable.sol\";\nimport \"./interfaces/IUniswapV2Factory.sol\";\nimport \"./interfaces/IUniswapV2Router02.sol\";\n\n// TODO: whitelist contract must be allowed to transfer tokens\n// TODO: token must be paused, only whitelist contract and airdropn contract must\n// be able to transfer tokens\n\ncontract Token is Context, IERC20, Ownable, AccessControlEnumerable, Pausable {\n    bytes32 public constant PAUSER_ROLE = keccak256(\"PAUSER_ROLE\");\n\n    using Address for address;\n\n    address private _pAirdrop;\n    address private _pWhiteList;\n\n    mapping(address => uint256) private _rOwned;\n    mapping(address => uint256) private _tOwned;\n    mapping(address => mapping(address => uint256)) private _allowances;\n\n    mapping(address => bool) private _isExcludedFromFee;\n\n    mapping(address => bool) private _isExcluded;\n\n    address[] private _excluded;\n\n    uint256 private constant MAX = type(uint256).max;\n    uint256 private _tTotal = 10000000000 * 10**3 * 10**9;\n    uint256 private _rTotal = (MAX - (MAX % _tTotal));\n    uint256 private _tFeeTotal;\n\n    string private _name = \"HungryPanda\";\n    string private _symbol = \"HGPAN\";\n    uint8 private _decimals = 9;\n\n    uint256 public _taxFee = 7;\n    uint256 private _previousTaxFee = _taxFee;\n\n    uint256 public _liquidityFee = 7;\n    uint256 private _previousLiquidityFee = _liquidityFee;\n\n    IUniswapV2Router02 public immutable uniswapV2Router;\n    address public uniswapV2Pair;\n    // address public immutable uniswapV2Pair;\n\n    bool inSwapAndLiquify;\n    bool public swapAndLiquifyEnabled = true;\n\n    uint256 public _maxTxAmount = 1000000000 * 10**2 * 10**9;\n    uint256 private numTokensSellToAddToLiquidity = 1000000000 * 10**2 * 10**9;\n\n    event MinTokensBeforeSwapUpdated(uint256 minTokensBeforeSwap);\n    event SwapAndLiquifyEnabledUpdated(bool enabled);\n    event SwapAndLiquify(\n        uint256 tokensSwapped,\n        uint256 ethReceived,\n        uint256 tokensIntoLiqudity\n    );\n\n    modifier lockTheSwap {\n        inSwapAndLiquify = true;\n        _;\n        inSwapAndLiquify = false;\n    }\n\n    constructor(address _router, address _airdrop, address _whiteList) Ownable() {\n        // pause as soon as deployed\n        _setupRole(DEFAULT_ADMIN_ROLE, _msgSender());\n        _setupRole(PAUSER_ROLE, _msgSender());\n        _setupRole(PAUSER_ROLE, _whiteList);\n        pause();\n\n        _pAirdrop = _airdrop;\n        _pWhiteList = _whiteList;\n        _rOwned[_msgSender()] = _rTotal;\n\n        IUniswapV2Router02 _uniswapV2Router =\n            IUniswapV2Router02(_router);\n\n        // uniswapV2Pair = IUniswapV2Factory(_uniswapV2Router.factory())\n        //     .createPair(address(this), _uniswapV2Router.WETH());\n\n        uniswapV2Router = _uniswapV2Router;\n\n        _isExcludedFromFee[owner()] = true;\n        _isExcludedFromFee[address(this)] = true;\n\n        emit Transfer(address(0), _msgSender(), _tTotal);\n    }\n\n    function name() public view returns (string memory) {\n        return _name;\n    }\n\n    function symbol() public view returns (string memory) {\n        return _symbol;\n    }\n\n    function decimals() public view returns (uint8) {\n        return _decimals;\n    }\n\n    function totalSupply() public view override returns (uint256) {\n        return _tTotal;\n    }\n\n    function balanceOf(address account) public view override returns (uint256) {\n        if (_isExcluded[account]) return _tOwned[account];\n        return tokenFromReflection(_rOwned[account]);\n    }\n\n    function transfer(address recipient, uint256 amount)\n        public\n        override\n        returns (bool)\n    {\n        // when paused transfer can be done only by airdrop\n        if (_msgSender() != _pAirdrop) {\n            require(!paused(), \"Token transfer while paused\");\n        }\n        _transfer(_msgSender(), recipient, amount);\n        return true;\n    }\n\n    function allowance(address _owner, address spender)\n        public\n        view\n        override\n        returns (uint256)\n    {\n        return _allowances[_owner][spender];\n    }\n\n    function approve(address spender, uint256 amount)\n        public\n        override\n        returns (bool)\n    {\n        _approve(_msgSender(), spender, amount);\n        return true;\n    }\n\n    function transferFrom(\n        address _sender,\n        address _recipient,\n        uint256 _amount\n    ) public override returns (bool) {\n        // when paused transfer can be done only by airdrop\n        if (_msgSender() != _pWhiteList) {\n            require(!paused(), \"Token transfer while paused\");\n        }\n        _transfer(_sender, _recipient, _amount);\n        _approve(\n            _sender,\n            _msgSender(),\n            _allowances[_sender][_msgSender()] - _amount\n        );\n        return true;\n    }\n\n    function increaseAllowance(address spender, uint256 addedValue)\n        public\n        virtual\n        returns (bool)\n    {\n        _approve(\n            _msgSender(),\n            spender,\n            _allowances[_msgSender()][spender] + addedValue\n        );\n        return true;\n    }\n\n    function decreaseAllowance(address spender, uint256 subtractedValue)\n        public\n        virtual\n        returns (bool)\n    {\n        _approve(\n            _msgSender(),\n            spender,\n            _allowances[_msgSender()][spender] - subtractedValue\n        );\n        return true;\n    }\n\n    function pause() public virtual {\n        require(\n            hasRole(PAUSER_ROLE, _msgSender()),\n            \"HungryPanda: must have pauser role to pause\"\n        );\n        _pause();\n    }\n\n    function unpause() public virtual {\n        require(\n            hasRole(PAUSER_ROLE, _msgSender()),\n            \"HungryPanda: must have pauser role to unpause\"\n        );\n        _unpause();\n    }\n\n    function isExcludedFromReward(address account) public view returns (bool) {\n        return _isExcluded[account];\n    }\n\n    function totalFees() public view returns (uint256) {\n        return _tFeeTotal;\n    }\n\n    function deliver(uint256 tAmount) public {\n        address sender = _msgSender();\n        require(\n            !_isExcluded[sender],\n            \"Excluded addresses cannot call this function\"\n        );\n        (uint256 rAmount, , , , , ) = _getValues(tAmount);\n        _rOwned[sender] = _rOwned[sender] - rAmount;\n        _rTotal = _rTotal - rAmount;\n        _tFeeTotal = _tFeeTotal + tAmount;\n    }\n\n    function reflectionFromToken(uint256 tAmount, bool deductTransferFee)\n        public\n        view\n        returns (uint256)\n    {\n        require(tAmount <= _tTotal, \"Amount must be less than supply\");\n        if (!deductTransferFee) {\n            (uint256 rAmount, , , , , ) = _getValues(tAmount);\n            return rAmount;\n        } else {\n            (, uint256 rTransferAmount, , , , ) = _getValues(tAmount);\n            return rTransferAmount;\n        }\n    }\n\n    function tokenFromReflection(uint256 rAmount)\n        public\n        view\n        returns (uint256)\n    {\n        require(\n            rAmount <= _rTotal,\n            \"Amount must be less than total reflections\"\n        );\n        uint256 currentRate = _getRate();\n        return rAmount / currentRate;\n    }\n\n    function excludeFromReward(address account) public onlyOwner {\n        require(!_isExcluded[account], \"Account is already excluded\");\n        if (_rOwned[account] > 0) {\n            _tOwned[account] = tokenFromReflection(_rOwned[account]);\n        }\n        _isExcluded[account] = true;\n        _excluded.push(account);\n    }\n\n    function includeInReward(address account) external onlyOwner {\n        require(_isExcluded[account], \"Account is already excluded\");\n        for (uint256 i = 0; i < _excluded.length; i++) {\n            if (_excluded[i] == account) {\n                _excluded[i] = _excluded[_excluded.length - 1];\n                _tOwned[account] = 0;\n                _isExcluded[account] = false;\n                _excluded.pop();\n                break;\n            }\n        }\n    }\n\n    function _transferBothExcluded(\n        address sender,\n        address recipient,\n        uint256 tAmount\n    ) private {\n        (\n            uint256 rAmount,\n            uint256 rTransferAmount,\n            uint256 rFee,\n            uint256 tTransferAmount,\n            uint256 tFee,\n            uint256 tLiquidity\n        ) = _getValues(tAmount);\n        _tOwned[sender] = _tOwned[sender] - tAmount;\n        _rOwned[sender] = _rOwned[sender] - rAmount;\n        _tOwned[recipient] = _tOwned[recipient] + tTransferAmount;\n        _rOwned[recipient] = _rOwned[recipient] + rTransferAmount;\n        _takeLiquidity(tLiquidity);\n        _reflectFee(rFee, tFee);\n        emit Transfer(sender, recipient, tTransferAmount);\n    }\n\n    function excludeFromFee(address account) public onlyOwner {\n        _isExcludedFromFee[account] = true;\n    }\n\n    function includeInFee(address account) public onlyOwner {\n        _isExcludedFromFee[account] = false;\n    }\n\n    function setTaxFeePercent(uint256 taxFee) external onlyOwner {\n        _taxFee = taxFee;\n    }\n\n    function setLiquidityFeePercent(uint256 liquidityFee) external onlyOwner {\n        _liquidityFee = liquidityFee;\n    }\n\n    function setMaxTxPercent(uint256 maxTxPercent) external onlyOwner {\n        _maxTxAmount = (_tTotal * maxTxPercent) / (10**2);\n    }\n\n    function setSwapAndLiquifyEnabled(bool _enabled) public onlyOwner {\n        swapAndLiquifyEnabled = _enabled;\n        emit SwapAndLiquifyEnabledUpdated(_enabled);\n    }\n\n    receive() external payable {}\n\n    function _reflectFee(uint256 rFee, uint256 tFee) private {\n        _rTotal = _rTotal - rFee;\n        _tFeeTotal = _tFeeTotal + tFee;\n    }\n\n    function _getValues(uint256 tAmount)\n        private\n        view\n        returns (\n            uint256,\n            uint256,\n            uint256,\n            uint256,\n            uint256,\n            uint256\n        )\n    {\n        (uint256 tTransferAmount, uint256 tFee, uint256 tLiquidity) =\n            _getTValues(tAmount);\n        (uint256 rAmount, uint256 rTransferAmount, uint256 rFee) =\n            _getRValues(tAmount, tFee, tLiquidity, _getRate());\n        return (\n            rAmount,\n            rTransferAmount,\n            rFee,\n            tTransferAmount,\n            tFee,\n            tLiquidity\n        );\n    }\n\n    function _getTValues(uint256 tAmount)\n        private\n        view\n        returns (\n            uint256,\n            uint256,\n            uint256\n        )\n    {\n        uint256 tFee = calculateTaxFee(tAmount);\n        uint256 tLiquidity = calculateLiquidityFee(tAmount);\n        uint256 tTransferAmount = tAmount - tFee - tLiquidity;\n        return (tTransferAmount, tFee, tLiquidity);\n    }\n\n    function _getRValues(\n        uint256 tAmount,\n        uint256 tFee,\n        uint256 tLiquidity,\n        uint256 currentRate\n    )\n        private\n        pure\n        returns (\n            uint256,\n            uint256,\n            uint256\n        )\n    {\n        uint256 rAmount = tAmount * currentRate;\n        uint256 rFee = tFee * currentRate;\n        uint256 rLiquidity = tLiquidity * currentRate;\n        uint256 rTransferAmount = rAmount - rFee - rLiquidity;\n        return (rAmount, rTransferAmount, rFee);\n    }\n\n    function _getRate() private view returns (uint256) {\n        (uint256 rSupply, uint256 tSupply) = _getCurrentSupply();\n        return rSupply / tSupply;\n    }\n\n    function _getCurrentSupply() private view returns (uint256, uint256) {\n        uint256 rSupply = _rTotal;\n        uint256 tSupply = _tTotal;\n        for (uint256 i = 0; i < _excluded.length; i++) {\n            if (\n                _rOwned[_excluded[i]] > rSupply ||\n                _tOwned[_excluded[i]] > tSupply\n            ) return (_rTotal, _tTotal);\n            rSupply = rSupply - _rOwned[_excluded[i]];\n            tSupply = tSupply - _tOwned[_excluded[i]];\n        }\n        if (rSupply < _rTotal / _tTotal) return (_rTotal, _tTotal);\n        return (rSupply, tSupply);\n    }\n\n    function _takeLiquidity(uint256 tLiquidity) private {\n        uint256 currentRate = _getRate();\n        uint256 rLiquidity = tLiquidity * currentRate;\n        _rOwned[address(this)] = _rOwned[address(this)] + rLiquidity;\n        if (_isExcluded[address(this)])\n            _tOwned[address(this)] = _tOwned[address(this)] + tLiquidity;\n    }\n\n    function calculateTaxFee(uint256 _amount) private view returns (uint256) {\n        return (_amount * _taxFee) / (10**2);\n    }\n\n    function calculateLiquidityFee(uint256 _amount)\n        private\n        view\n        returns (uint256)\n    {\n        return (_amount * _liquidityFee) / (10**2);\n    }\n\n    function removeAllFee() private {\n        if (_taxFee == 0 && _liquidityFee == 0) return;\n\n        _previousTaxFee = _taxFee;\n        _previousLiquidityFee = _liquidityFee;\n\n        _taxFee = 0;\n        _liquidityFee = 0;\n    }\n\n    function restoreAllFee() private {\n        _taxFee = _previousTaxFee;\n        _liquidityFee = _previousLiquidityFee;\n    }\n\n    function isExcludedFromFee(address account) public view returns (bool) {\n        return _isExcludedFromFee[account];\n    }\n\n    function _approve(\n        address _owner,\n        address _spender,\n        uint256 _amount\n    ) private {\n        require(\n            _owner != address(0),\n            \"HungryPanda: approve from the zero address\"\n        );\n        require(\n            _spender != address(0),\n            \"HungryPanda: approve to the zero address\"\n        );\n\n        _allowances[_owner][_spender] = _amount;\n        emit Approval(_owner, _spender, _amount);\n    }\n\n    function _transfer(\n        address from,\n        address to,\n        uint256 amount\n    ) private {\n        require(\n            from != address(0),\n            \"HungryPanda: transfer from the zero address\"\n        );\n        require(to != address(0), \"HungryPanda: transfer to the zero address\");\n        require(amount > 0, \"Transfer amount must be greater than zero\");\n        if (from != owner() && to != owner())\n            require(\n                amount <= _maxTxAmount,\n                \"Transfer amount exceeds the maxTxAmount.\"\n            );\n\n        uint256 contractTokenBalance = balanceOf(address(this));\n\n        if (contractTokenBalance >= _maxTxAmount) {\n            contractTokenBalance = _maxTxAmount;\n        }\n\n        bool overMinTokenBalance =\n            contractTokenBalance >= numTokensSellToAddToLiquidity;\n        if (\n            overMinTokenBalance &&\n            !inSwapAndLiquify &&\n            from != uniswapV2Pair &&\n            swapAndLiquifyEnabled\n        ) {\n            contractTokenBalance = numTokensSellToAddToLiquidity;\n\n            swapAndLiquify(contractTokenBalance);\n        }\n\n        bool takeFee = true;\n\n        if (_isExcludedFromFee[from] || _isExcludedFromFee[to]) {\n            takeFee = false;\n        }\n\n        _tokenTransfer(from, to, amount, takeFee);\n    }\n\n    function swapAndLiquify(uint256 contractTokenBalance) private lockTheSwap {\n        uint256 half = contractTokenBalance / 2;\n        uint256 otherHalf = contractTokenBalance - half;\n\n        uint256 initialBalance = address(this).balance;\n\n        swapTokensForEth(half);\n\n        uint256 newBalance = address(this).balance - initialBalance;\n\n        addLiquidity(otherHalf, newBalance);\n\n        emit SwapAndLiquify(half, newBalance, otherHalf);\n    }\n\n    function swapTokensForEth(uint256 tokenAmount) private {\n        address[] memory path = new address[](2);\n        path[0] = address(this);\n        path[1] = uniswapV2Router.WETH();\n\n        _approve(address(this), address(uniswapV2Router), tokenAmount);\n\n        uniswapV2Router.swapExactTokensForETHSupportingFeeOnTransferTokens(\n            tokenAmount,\n            0,\n            path,\n            address(this),\n            block.timestamp\n        );\n    }\n\n    function addLiquidity(uint256 tokenAmount, uint256 ethAmount) private {\n        _approve(address(this), address(uniswapV2Router), tokenAmount);\n\n        uniswapV2Router.addLiquidityETH{value: ethAmount}(\n            address(this),\n            tokenAmount,\n            0,\n            0,\n            owner(),\n            block.timestamp\n        );\n    }\n\n    function _tokenTransfer(\n        address sender,\n        address recipient,\n        uint256 amount,\n        bool takeFee\n    ) private {\n        if (!takeFee) removeAllFee();\n\n        if (_isExcluded[sender] && !_isExcluded[recipient]) {\n            _transferFromExcluded(sender, recipient, amount);\n        } else if (!_isExcluded[sender] && _isExcluded[recipient]) {\n            _transferToExcluded(sender, recipient, amount);\n        } else if (!_isExcluded[sender] && !_isExcluded[recipient]) {\n            _transferStandard(sender, recipient, amount);\n        } else if (_isExcluded[sender] && _isExcluded[recipient]) {\n            _transferBothExcluded(sender, recipient, amount);\n        } else {\n            _transferStandard(sender, recipient, amount);\n        }\n\n        if (!takeFee) restoreAllFee();\n    }\n\n    function _transferStandard(\n        address sender,\n        address recipient,\n        uint256 tAmount\n    ) private {\n        (\n            uint256 rAmount,\n            uint256 rTransferAmount,\n            uint256 rFee,\n            uint256 tTransferAmount,\n            uint256 tFee,\n            uint256 tLiquidity\n        ) = _getValues(tAmount);\n        _rOwned[sender] = _rOwned[sender] - rAmount;\n        _rOwned[recipient] = _rOwned[recipient] + rTransferAmount;\n        _takeLiquidity(tLiquidity);\n        _reflectFee(rFee, tFee);\n        emit Transfer(sender, recipient, tTransferAmount);\n    }\n\n    function _transferToExcluded(\n        address sender,\n        address recipient,\n        uint256 tAmount\n    ) private {\n        (\n            uint256 rAmount,\n            uint256 rTransferAmount,\n            uint256 rFee,\n            uint256 tTransferAmount,\n            uint256 tFee,\n            uint256 tLiquidity\n        ) = _getValues(tAmount);\n        _rOwned[sender] = _rOwned[sender] - rAmount;\n        _tOwned[recipient] = _tOwned[recipient] + tTransferAmount;\n        _rOwned[recipient] = _rOwned[recipient] + rTransferAmount;\n        _takeLiquidity(tLiquidity);\n        _reflectFee(rFee, tFee);\n        emit Transfer(sender, recipient, tTransferAmount);\n    }\n\n    function _transferFromExcluded(\n        address sender,\n        address recipient,\n        uint256 tAmount\n    ) private {\n        (\n            uint256 rAmount,\n            uint256 rTransferAmount,\n            uint256 rFee,\n            uint256 tTransferAmount,\n            uint256 tFee,\n            uint256 tLiquidity\n        ) = _getValues(tAmount);\n        _tOwned[sender] = _tOwned[sender] - tAmount;\n        _rOwned[sender] = _rOwned[sender] - rAmount;\n        _rOwned[recipient] = _rOwned[recipient] + rTransferAmount;\n        _takeLiquidity(tLiquidity);\n        _reflectFee(rFee, tFee);\n        emit Transfer(sender, recipient, tTransferAmount);\n    }\n}\n",
  "sourcePath": "C:/Users/skyne/Dev/work/skynet/HungryPandaHome/hungrypanda-token/contracts/Token.sol",
  "compiler": {
    "name": "solc",
    "version": "0.8.4+commit.c7e474f2.Emscripten.clang"
  },
  "schemaVersion": "3.4.1",
  "updatedAt": "2021-06-11T12:52:49.504Z",
  "networkType": "ethereum",
  "devdoc": {
    "kind": "dev",
    "methods": {
      "approve(address,uint256)": {
        "details": "Sets `amount` as the allowance of `spender` over the caller's tokens. Returns a boolean value indicating whether the operation succeeded. IMPORTANT: Beware that changing an allowance with this method brings the risk that someone may use both the old and the new allowance by unfortunate transaction ordering. One possible solution to mitigate this race condition is to first reduce the spender's allowance to 0 and set the desired value afterwards: https://github.com/ethereum/EIPs/issues/20#issuecomment-263524729 Emits an {Approval} event."
      },
      "balanceOf(address)": {
        "details": "Returns the amount of tokens owned by `account`."
      },
      "getRoleAdmin(bytes32)": {
        "details": "Returns the admin role that controls `role`. See {grantRole} and {revokeRole}. To change a role's admin, use {_setRoleAdmin}."
      },
      "getRoleMember(bytes32,uint256)": {
        "details": "Returns one of the accounts that have `role`. `index` must be a value between 0 and {getRoleMemberCount}, non-inclusive. Role bearers are not sorted in any particular way, and their ordering may change at any point. WARNING: When using {getRoleMember} and {getRoleMemberCount}, make sure you perform all queries on the same block. See the following https://forum.openzeppelin.com/t/iterating-over-elements-on-enumerableset-in-openzeppelin-contracts/2296[forum post] for more information."
      },
      "getRoleMemberCount(bytes32)": {
        "details": "Returns the number of accounts that have `role`. Can be used together with {getRoleMember} to enumerate all bearers of a role."
      },
      "grantRole(bytes32,address)": {
        "details": "Overload {grantRole} to track enumerable memberships"
      },
      "hasRole(bytes32,address)": {
        "details": "Returns `true` if `account` has been granted `role`."
      },
      "owner()": {
        "details": "Returns the address of the current owner."
      },
      "paused()": {
        "details": "Returns true if the contract is paused, and false otherwise."
      },
      "renounceOwnership()": {
        "details": "Leaves the contract without owner. It will not be possible to call `onlyOwner` functions anymore. Can only be called by the current owner. NOTE: Renouncing ownership will leave the contract without an owner, thereby removing any functionality that is only available to the owner."
      },
      "renounceRole(bytes32,address)": {
        "details": "Overload {renounceRole} to track enumerable memberships"
      },
      "revokeRole(bytes32,address)": {
        "details": "Overload {revokeRole} to track enumerable memberships"
      },
      "supportsInterface(bytes4)": {
        "details": "See {IERC165-supportsInterface}."
      },
      "totalSupply()": {
        "details": "Returns the amount of tokens in existence."
      },
      "transfer(address,uint256)": {
        "details": "Moves `amount` tokens from the caller's account to `recipient`. Returns a boolean value indicating whether the operation succeeded. Emits a {Transfer} event."
      },
      "transferOwnership(address)": {
        "details": "Transfers ownership of the contract to a new account (`newOwner`). Can only be called by the current owner."
      }
    },
    "version": 1
  },
  "userdoc": {
    "kind": "user",
    "methods": {},
    "version": 1
  }
}