{
  "contractName": "WhiteList",
  "abi": [
    {
      "inputs": [
        {
          "internalType": "address",
          "name": "_admin",
          "type": "address"
        }
      ],
      "stateMutability": "nonpayable",
      "type": "constructor"
    },
    {
      "inputs": [
        {
          "internalType": "address",
          "name": "_token",
          "type": "address"
        }
      ],
      "name": "initialize",
      "outputs": [],
      "stateMutability": "nonpayable",
      "type": "function"
    }
  ],
  "bytecode": "0x608060405234801561001057600080fd5b5060405161022838038061022883398101604081905261002f91610054565b60008054600160a060020a031916600160a060020a0392909216919091179055610084565b60006020828403121561006657600080fd5b8151600160a060020a038116811461007d57600080fd5b9392505050565b610195806100936000396000f3fe608060405234801561001057600080fd5b5060043610610047577c01000000000000000000000000000000000000000000000000000000006000350463c4d66de8811461004c575b600080fd5b61005f61005a366004610122565b610061565b005b60005473ffffffffffffffffffffffffffffffffffffffff1633146100e6576040517f08c379a000000000000000000000000000000000000000000000000000000000815260206004820152600a60248201527f6f6e6c792061646d696e00000000000000000000000000000000000000000000604482015260640160405180910390fd5b6001805473ffffffffffffffffffffffffffffffffffffffff191673ffffffffffffffffffffffffffffffffffffffff92909216919091179055565b60006020828403121561013457600080fd5b813573ffffffffffffffffffffffffffffffffffffffff8116811461015857600080fd5b939250505056fea264697066735822122010426ff6e6972dfd737e76b6febecc8622f443943c8ab18ea1c7c25ce9d9b21964736f6c63430008050033",
  "immutableReferences": {},
  "source": "// SPDX-License-Identifier: MIT\npragma solidity >=0.8.4 <0.9.0;\n\nimport \"@openzeppelin/contracts/token/ERC20/IERC20.sol\";\ncontract WhiteList {\n    address private admin;\n\n    IERC20 private token;\n    constructor(address _admin){\n        admin = _admin;\n    }\n\n    modifier onlyAdmin {\n        require(msg.sender == admin,\"only admin\");\n        _;\n    }\n\n    function initialize(address _token) external onlyAdmin {\n        token = IERC20(_token);\n    }\n}",
  "sourcePath": "C:/Users/skyne/Dev/work/skynet/HungryPandaHome/token/contracts/WhiteList.sol",
  "compiler": {
    "name": "solc",
    "version": "0.8.5+commit.a4f2e591.Emscripten.clang"
  },
  "schemaVersion": "3.4.1",
  "updatedAt": "2021-06-13T06:45:59.697Z",
  "devdoc": {
    "kind": "dev",
    "methods": {},
    "version": 1
  },
  "userdoc": {
    "kind": "user",
    "methods": {},
    "version": 1
  }
}